:020000040800F2
:10000000980900204501000815200008870700080E
:10001000112000086B060008C72600080000000039
:10002000000000000000000000000000B5210008F2
:100030006F060008000000009D200008C92200088B
:100040005F0100085F0100085F0100085F01000810
:100050005F0100085F0100085F0100085F01000800
:100060005F0100085F0100085F0100085F010008F0
:100070005F0100085F0100085F0100085F010008E0
:100080005F0100085F0100085F0100085F010008D0
:100090005F0100085F0100085F0100085F010008C0
:1000A0005F0100085F0100085F0100085F010008B0
:1000B0005F0100082D2300085F0100085F010008B0
:1000C0005F0100085F0100085F0100085F01000890
:1000D0005F010008B12400085F0100085F0100080B
:1000E0005F0100085F0100085F0100085F01000870
:1000F0005F0100085F0100085F0100085F01000860
:100100005F0100085F0100085F0100085F0100084F
:100110005F0100085F0100085F0100085F0100083F
:100120005F0100085F0100085F0100085F0100082F
:10013000DFF80CD000F068FA004800472D270008CF
:10014000980900200648804706480047FEE7FEE77A
:10015000FEE7FEE7FEE7FEE7FEE7FEE7FEE7FEE777
:10016000CD22000831010008F0B480EA0102D40F6A
:100170004200B2EB410F02D20246084611464A0045
:1001800042D0C30DDDB2C1F3C752AD1A202D35DA0E
:10019000C1F3160141F4000204B15242C5F1200638
:1001A00002FA06F12A411044B3EBD05F23D0C4B168
:1001B000012DA0EBC35009DCF0BC4FF0004202EA75
:1001C000C352DBB200F5000000F093B9400000F12B
:1001D000807000EBC350A0F1807040EAD1704900FC
:1001E00009E0490841EAC071A0EBC35000F50000E6
:1001F000400800EBC350F0BC00F072B9614201222C
:1002000002EB4101001BF6E7F0BC704781F00041B2
:10021000AAE780F00040A7E780EA010210B502F0EB
:100220000043400022D04A001FD0010E01EB1261B2
:10023000C0F35600C2F3560240F4000042F400023C
:10024000A0FB022000047F39140400D0401C50EAB7
:10025000124001D44000491EC2B20C0604EBD0107B
:10026000401C4008802A02D003E0002010BD20F08E
:100270000100002900DA0020184310BD2DE9FE4FCF
:1002800081EA030404F0004421F0004100944FF09F
:10029000000B23F0004350EA01045ED052EA03044D
:1002A0005BD0C3F30A54C1F30A552C44A4F2F334CF
:1002B0000194A0FB0254C1F3130141F48011C3F374
:1002C000130343F4801301FB024400FB034E840A32
:1002D000970A44EA815447EA8357A4FB07680295CA
:1002E0008D0A05FB07854FEA932C04FB0C54270568
:1002F000029D4FEA065847EA1637B5EB08056EEB44
:10030000070C870E920E47EA811742EA8312A7FB79
:100310000201B6EB0B0164EB00042B0D43EA0C3336
:100320005E1844EB1C50DA465146E7FB0201C5F368
:1003300013044FEA0B3343EA14534FEA0432019C8F
:1003400043EA0603A4F10C040294009CCDE900B436
:1003500000F00CF903B0BDE8F08F00200146F9E78A
:100360002DE9F04D81EA030404F0004B21F0004533
:1003700014464FF0000A23F0004150EA050220D055
:1003800054EA01021DD0C5F30A570246C5F3130310
:10039000C1F31300C1F30A5640F4801543F48013EF
:1003A000A7EB0608101BD64608F2FD3873EB0500D4
:1003B00002D308F1010801E092185B41B8F1000F87
:1003C00003DA00200146BDE8F08D00204FF48011D3
:1003D000064684460EE0171B73EB050705D3121B78
:1003E00063EB050306434CEA010C49084FEA300071
:1003F00092185B4150EA0107EDD152EA030012D096
:1004000082EA040083EA0501084305D0101BAB41D2
:1004100006D20122002306E000224FF0004302E052
:100420006FF0010253101AEB06004CEB085110EB71
:100430000A0041EB0B01BDE8F04D00F088B8C10F98
:1004400080EAE0700844CA079623002100F051B802
:1004500096230022114600F04CB820F00040C10D58
:10046000C0F3160040F400007F2901DA0020704735
:10047000962903DCC1F19601C8407047963988403F
:10048000704700F0004230F000400AD0C10D01F585
:100490006071C0F3160042EA0151C20840071143DF
:1004A000704700200146704701F0004330B421F04E
:1004B000004150EA010206D00A0DA2F56072C1F3B4
:1004C0001301002A02DC30BC00207047440F44EACC
:1004D000C104C100E01830BC00EBC250AFF3008093
:1004E0000029A8BF7047401C490008BF20F0010048
:1004F000704710B4B0FA80FC00FA0CF050EA010426
:1005000004BF10BC704749B1CCF1200421FA04F4B7
:1005100011FA0CF118BF012121430843A3EB0C0190
:10052000CB1D4FEA00614FEA102042BF002010BCF3
:10053000704700EBC35010440029A4BF10BC7047A3
:10054000401C490008BF20F0010010BC704710B5E6
:10055000141E73F1000408DA401C41F100019218E6
:100560005B411A4301D120F0010010BD2DE9F04D8F
:1005700092469B4611B1B1FA81F202E0B0FA80F2E4
:100580002032904600F052F804460F4640EA0A0036
:1005900041EA0B0153465A46084313D0114653EA29
:1005A000010019D0C8F14002504600F04EF805464F
:1005B0000E4650465946424600F038F8084305D0EA
:1005C000012004E020463946BDE8F08D00200543B7
:1005D00046EAE0762C4337430A986305E40AA0EB29
:1005E00008000022FD0A44EA47540A3002D50020E0
:1005F0000146E9E7010510196941DDE908450019DF
:100600006941BDE8F04DA2E7064C074D06E0E06801
:1006100040F0010394E8070098471034AC42F6D349
:10062000FFF78AFD3C2A00085C2A0008202A04DB28
:10063000203A00FA02F1002070479140C2F12003F5
:1006400020FA03F3194390407047202A04DB203A34
:1006500021FA02F00021704721FA02F3D040C2F1E2
:100660002002914008431946704700BFFEE77047DB
:100670002DE9F04102460025002600200023002439
:10068000002791F803C00CF00F0591F803C00CF09F
:10069000100CBCF1000F03D091F802C04CEA050524
:1006A00091F800C0BCF1000F31D0146800202BE09D
:1006B0004FF0010C0CFA00F3B1F800C00CEA03068D
:1006C0009E4220D183004FF00F0C0CFA03F7BC437D
:1006D00005FA03FC4CEA040491F803C0BCF1280FAE
:1006E00006D14FF0010C0CFA00FCC2F814C00AE06D
:1006F00091F803C0BCF1480F05D14FF0010C0CFA82
:1007000000FCC2F810C0401C0828D1D31460B1F816
:1007100000C0BCF1FF0F34DD546800202EE000F172
:10072000080C4FF0010808FA0CF3B1F800C00CEA0D
:1007300003069E4221D183004FF00F0C0CFA03F701
:10074000BC4305FA03FC4CEA040491F803C0BCF175
:10075000280F05D100F1080C08FA0CF8C2F8148033
:1007600091F803C0BCF1480F07D100F1080C4FF01D
:10077000010808FA0CF8C2F81080401C0828CED3F3
:100780005460BDE8F08100BFFEE7014609B90020D2
:10079000704740F20110A1F806010020A1F8040101
:1007A000A1F80201012081F8080100BFF0E701462D
:1007B00009B900207047B1F90401B1F90221801A8A
:1007C000B1F80621104490FBF2F302FB130080B253
:1007D000F0E700B970470021A0F80411A0F8021159
:1007E00000BFF7E72DE9FF4104460F4615461E46B8
:1007F0001948A04201D0BDE8FF81012E06D0022E8B
:100800000FD0032E0ED0042E22D120E06B462A46B4
:100810003946204600F0CEFABDF80000ADF80000E1
:1008200016E015E0082D01DA284600E0082002460F
:100830006B463946204600F0B2FCBDF800004FEA96
:100840001028BDF8000000F0FF0800BF00E000BF66
:1008500000BF00BFCFE70000040100202DE9F041F8
:1008600004460D4617469846069E094804600CB992
:10087000BDE8F08107480649096808600648044950
:1008800009688860284601F061FF00BFF0E70000BA
:1008900000010020C3080008C108000810B5044684
:1008A0000648006800B910BD044800682146426847
:1008B00002480068904700BFF5E7000000010020F3
:1008C000704770B504460D462946204601F08EFF5C
:1008D00070BD000010B50648006800B910BD04489E
:1008E0000068C16802480068884700BFF6E700005A
:1008F000000100200EB50020012108224FF41653FC
:10090000CDE9002102900A461249134800F03EF852
:100910001249114800F02CF808B900200EBD10490A
:100920000D4800F025F808B90020F7E70D490A48FE
:1009300000F01EF808B90020F0E70B49064800F067
:1009400017F808B90020E9E70849034800F080FDDE
:100950000120E3E75D08000804010020800000207A
:10096000E0000020CC000020F4000020E507000893
:1009700070B504460D4604B10DB9002070BD1422B7
:10098000294604F5866001F02BFBF7E72DE9F04FCF
:1009900089B004460F4693469846139D14B909B092
:1009A000BDE8F08F04F11400FFF7EFFE04F58F703F
:1009B000FFF7EBFE84F828B20020A4F82A03A4F87D
:1009C0002C04002606E0002104F5866040F826107D
:1009D000701CC6B2142EF6DB4148E06041486060EE
:1009E00000202060A0602061401EC4F88004002028
:1009F000C4F88804C4F884044046FFF729FD019038
:100A0000FFF73FFD02460B46CDE9020100203649C3
:100A1000FFF7A6FC0022354BCDE90401FFF72EFCC1
:100A2000CDE90601FFF740FD81464FF0000A149919
:100A300009B1012200E0002212995018FFF7FFFCD3
:100A400049460690FFF7E8FB0790FFF706FD1FFAFF
:100A500080FA65B95046FFF7FBFC49460690FFF760
:100A600083FB0790FFF7F9FC1FFA80FA27E0012DBE
:100A700012D14FF07F514846FFF7CEFB069050460B
:100A8000FFF7E6FC05900699FFF76EFB0790FFF76E
:100A9000E4FC1FFA80FA12E0022D10D169074846E3
:100AA000FFF7BAFB06905046FFF7D2FC0590069977
:100AB000FFF75AFB0790FFF7D0FC1FFA80FAA4F863
:100AC0008CA44FF6FF70A4F88E0437B114982B460F
:100AD000009041462046129AB84700BF5FE70000E9
:100AE0005B1400086D1200080000F03F006AF84037
:100AF00010B5034800F006F800F016FD10BD000028
:100B0000040100202DE9FE4304460CB9BDE8FE8334
:100B100004F2844003C8401AB4F88C14884200D20E
:100B2000F4E7204600F025FC064606B9EEE794F807
:100B3000290294F82812884202D194F8290200B9B7
:100B400098E040F22A20005D01281BDB40F22A20B9
:100B5000005D042816DC4FF40B70015D401E005D43
:100B600041EA002540F22E20015D401E005D41EA71
:100B7000002740F22A20035D3A462946204600F02D
:100B800027F971E040F22A20005D052804D040F2E8
:100B90002A20005D06281BD14FF40B70015D401E1A
:100BA000005D41EA002540F22E20015D401E005DFF
:100BB00041EA00200290022002A9CDE9001040F293
:100BC0002A20035D01222946204600F01EFE4BE04C
:100BD00040F22A20005D0F2804D040F22A20005D58
:100BE000102841D14FF40B70015D401E005D41EAB9
:100BF000002840F22E20015D401E005D41EA0025E4
:100C000040F22F20075D401F005D0F2813D1E91728
:100C100005EB5171C910A5EBC10109B1012100E03B
:100C2000002101EBE501B9420ED003228F212046BD
:100C300000F03EFB19E0B7EB450F05D003229021F1
:100C4000204600F035FB10E040F22F20015D04F556
:100C50000C70CDE9000140F22A20035D2A4641468E
:100C6000204600F0D2FD00BF00BFD4F88404C4F8D1
:100C7000880400BF0020A4F82A0300BF46E72DE93E
:100C8000F04706460D4694461C46089F334613B966
:100C90000020BDE8F087012F03D0022F01D00020F3
:100CA000F7E7002281E003F5866050F8220000B9E2
:100CB00079E003F5866050F822000088A84271DCD4
:100CC00003F5866050F82200018803F5866050F82D
:100CD00022000089084405EB0C01884262DB03F521
:100CE000866050F82200807AB8425AD103F58660B7
:100CF00050F822000088281A1FFA80F8414649E07F
:100D000003F5866959F82290D9F804904FEA211A20
:100D100039F81A904FEAE17A01EB1A7A4FEA2A1A67
:100D2000A1EB0A1A49FA0AF909F00109B9F1000F11
:100D300017D008464FEAE17901EB59794FEAE90902
:100D4000A1EBC90A4FF0010909FA0AF904EBE10A1B
:100D50009AF800A049EA0A0904EBE10A8AF800902F
:100D600016E008464FEAE17901EB59794FEAE909C3
:100D7000A1EBC90A4FF0010909FA0AF904EBE10AEB
:100D80009AF800A02AEA090A04EBE10989F800A010
:100D9000481C81B208EB0C008842B1DC012078E7E6
:100DA00000E000BF00BF501C82B2142AFFF67BAFE8
:100DB00000206EE7F8B504460D4616461F46012092
:100DC0003B463246294600902046FFF758FFF8BDC3
:100DD0002DE9FE4F0446894616469846002714B969
:100DE0000020BDE8FE8F0027CDE104F5866050F8B5
:100DF000270000B9C5E104F5866050F82700008897
:100E000048457BDC04F5866050F82700018804F52E
:100E1000866050F827000089084409EB06018842E3
:100E20006CDBB8F1010F06D104F5866050F827009D
:100E3000807A012809D0B8F1020F6ED104F58660DE
:100E400050F82700807A0228F7D104F5866050F820
:100E500027000088A9EB00001FFA80FB0020029009
:100E6000824600BFD4F88004401C0028FAD1A06854
:100E700010B10120A16888474FF6FF700190002053
:100E8000A4F82C0494F82812019801F05FF801905E
:100E900094F82812B4F82C24501CA4F82C0404F55F
:100EA0004B7081544146019801F050F80190B4F81C
:100EB0002C14481CA4F82C0404F54B7000F8018095
:100EC000F01706EB5070C010A6EBC000009600288B
:100ED00001DD012000E0002000EBE600C1B2019836
:100EE00001F034F801903046F11706EB5171C9104A
:100EF000A6EBC101002902DD012101E040E1002152
:100F000001EBE601CAB2B4F82C34591CA4F82C1435
:100F100004F54B71CA545D4648E07DE0A5EB0B013A
:100F20000298B0EBE10F14D05146019801F00EF891
:100F30000190B4F82C14481CA4F82C0404F54B7050
:100F400000F801A04FF0000AA5EB0B00C0F3CF00A2
:100F5000029004F5866151F8271049682A1131F88A
:100F60001210EA1705EB12721211A5EB02121141D1
:100F700001F0010169B12846E91705EB5171C9106B
:100F8000A5EBC1020121914041EA0A0101F0FF0AEB
:100F90000AE02846E91705EB5171C910A5EBC1021B
:100FA000012191402AEA010A681C85B20BEB060078
:100FB000A842B3DC5146019800F0C8FF0190B4F894
:100FC0002C14481CA4F82C0404F54B7000F801A064
:100FD0000198C1B2B4F82C24501CA4F82C0404F5D8
:100FE0004B70815401980112B4F82C24501CA4F8C1
:100FF0002C0404F54B708154B4F82C1422689047EB
:1010000000BFD4F88004401C0028FAD1A06810B1B9
:101010000020A1688847B1E0B8F1030F06D104F5BC
:10102000866050F82700807A032809D0B8F1040FB1
:101030007ED104F5866050F82700807A0428F7D125
:101040004FF0000A04F5866050F827000088A9EBED
:10105000000080B2029000BFD4F88004401C002839
:10106000FAD1A06810B10120A16888474FF6FF7B34
:101070000020A4F82C0494F82812584600F066FFCB
:10108000834694F82812B4F82C24501CA4F82C049D
:1010900004F54B7081544146584600F057FF834693
:1010A000B4F82C14481CA4F82C0404F54B7000F878
:1010B00001807006010E584600F048FF8346700616
:1010C000010EB4F82C24501CA4F82C0404F54B7029
:1010D00081544FF0000A28E004F5866050F827009C
:1010E0004168029800EB6A0031F81050290A58460E
:1010F00000F02CFF8346290AB4F82C24501CA4F8D5
:101100002C0404F54B708154E9B2584600F01EFFE0
:101110008346B4F82C24501CA4F82C0404F54B701E
:1011200085540AF102001FFA80FABAEB460F00E07C
:1011300023E0D1DBB4F82C24501CA4F82C0404F5D3
:101140004B7000F802B04FEA2B21B4F82C24501C4D
:10115000A4F82C0404F54B708154B4F82C142268C4
:10116000904700BFD4F88004401C0028FAD1A06842
:1011700010B10020A168884700E002E0012030E6BD
:1011800000BF781C87B2142FFFF62FAE08F1800045
:10119000C1B20222204600F08BF8002021E6F8B50B
:1011A00004460D4616461F4603203B463246294656
:1011B0000090204600F001F8F8BD2DE9F043054607
:1011C0000C4617469C46079E2A4612B90020BDE8E9
:1011D000F083032E03D0042E01D00020F7E7002176
:1011E00040E002F5866050F8210000B938E002F5D1
:1011F000866050F821000088A04230DC02F586604D
:1012000050F82100038802F5866050F8210000891B
:101210001844E319984222DB02F5866050F8210059
:10122000807AB0421AD102F5866050F82100008819
:10123000201A1FFA80F800230CE002F5866050F8AF
:101240002100406808EB030930F819002CF813005E
:10125000581C83B2BB42F0DB0120B8E700BF00BFDF
:10126000481C81B21429BCDB0020B0E770B50546EC
:101270000E462C4604B970BD314604F1140000F04E
:101280008DFE00B9F7E7D4F88004401C18B94FF67A
:10129000FF70A4F88E04B4F88E04314600F056FEB8
:1012A000A4F88E04D4F88404C4F8800400BFE2E7F4
:1012B0002DE9F04104460F46154600BFD4F88004DE
:1012C000401C0028FAD1A06810B10120A16888470D
:1012D0004FF6FF760020A4F82C0494F8281230462C
:1012E00000F034FE064694F82812B4F82C24501C62
:1012F000A4F82C0404F54B7081543946304600F0B4
:1013000025FE0646B4F82C14481CA4F82C0404F559
:101310004B7047542946304600F018FE0646B4F894
:101320002C14481CA4F82C0404F54B704554B4F854
:101330002C24501CA4F82C0404F54B708654311254
:10134000B4F82C24501CA4F82C0404F54B708154E0
:10135000B4F82C142268904700BFD4F88004401CD5
:101360000028FAD1A06810B10020A1688847BDE824
:10137000F08138B504460CB9002038BD694604F543
:101380008F7000F0EFFD08B90020F6E79DF800101F
:10139000B4F82A2304F229208154B4F82A0301283E
:1013A0004ADB40F22A20005D012813DB40F22A20AC
:1013B000005D04280EDCB4F82A0305283CDDB4F8EF
:1013C0002A03072838DBB4F82A03401CA4F82A03B0
:1013D0000120D2E740F22A20005D052804D040F227
:1013E0002A20005D06280AD1B4F82A03072823DB47
:1013F000B4F82A03401CA4F82A030120BDE740F2F8
:101400002A20005D0F2804D040F22A20005D102819
:1014100012D1B4F82A0306280EDDB4F82A1340F2DC
:101420002F20005D0830814206DBB4F82A03401CFF
:10143000A4F82A030120A0E7B4F82A03B0F5807FBE
:1014400004DCB4F82A03401CA4F82A03002094E723
:1014500000B97047016100BFFBE72DE9F84305467D
:101460004FF00008C1462C460CB9BDE8F883D4F80B
:101470008404401CC4F88404D4F88404401C50B98B
:10148000D4F88804C0F1FF38C4F884840020C4F87C
:1014900088044FF00109D4F88004401C00B9E4E747
:1014A000B9F1000F0AD0D4F88014C1F1FF31D4F89B
:1014B00084040844C4F88404C4F88084D4F88014F4
:1014C000D4F88404401AB4F88C1488422AD3B4F8AF
:1014D0008E0440B104F11400FFF77BF94FF0FF30A8
:1014E000C4F88004C1E704F11400FFF760F9064670
:1014F000002710E0694604F1140000F033FD00B944
:10150000B3E79DF8001004F58F7000F047FD00B9B7
:10151000ABE7781C87B2B742ECDB4FF0FF30C4F882
:10152000800400BF00BFA0E71FB5FF2003900B4A57
:1015300007CA8DE8070003AB05220121084800F027
:1015400056F9BDF80C200B21054800F030FC6B4625
:1015500005221146024800F035FC1FBD302A000864
:10156000040100202DE9F04306460C4617461D46AF
:10157000334613B90020BDE8F083012D03D0022DBE
:1015800001D00020F7E7002178E003F5866050F8ED
:10159000210000B970E003F5866050F82100008852
:1015A000A04268DC03F5866050F82100028803F54C
:1015B000866050F8210000890244601C82425ADB98
:1015C00003F5866050F82100807AA84252D103F5D5
:1015D000866050F821000088201A82B22FB303F5EC
:1015E000866C5CF821C0DCF804C04FEA22183CF895
:1015F00018C010464FEAE27802EB18784FEA281834
:10160000A2EB08194FF0010808FA09F84CEA080C97
:101610001FFA8CF803F5866C5CF821C0DCF804C076
:101620004FEA22192CF8198022E003F5866C5CF849
:1016300021C0DCF804C04FEA22183CF818C010465C
:101640004FEAE27802EB18784FEA2818A2EB081963
:101650004FF0010808FA09F82CEA080C03F586682F
:1016600058F82180D8F804804FEA221928F819C0C8
:10167000012080E700BF00BF481C81B2142984DB31
:10168000002078E72DE9F04F06460D46944698462F
:10169000099F334613B90020BDE8F08F012F03D016
:1016A000022F01D00020F7E700219BE003F58660C0
:1016B00050F8210000B993E003F5866050F821004E
:1016C0000088A8427EDC03F5866050F8210002887D
:1016D00003F5866050F821000089104405EB0C02E8
:1016E00090427CDB03F5866050F82100807AB84296
:1016F00074D103F5866050F821000088281A84B25E
:10170000002267E0C1464FEAE27A02EB5A7A4FEADA
:10171000EA0AA2EBCA0A09EBE20B9BF800B04BFA0B
:101720000AFB0BF0010ABAF1000F27D003F5866A15
:101730005AF821A0DAF804A004EB020B4FEA2B1BA5
:101740003AF81BA010194FEAE07B00EB1B7B4FEA35
:101750002B1BA0EB0B1E4FF0010B0BFA0EFB4AEA02
:101760000B0A03F5866B5BF821B0DBF804B004EBE1
:10177000020E4FEA2E1E2BF81EA029E003F5866A02
:101780005AF821A0DAF804A004EB020B4FEA2B1B55
:101790003AF81BA010194FEAE07B00EB1B7B4FEAE5
:1017A0002B1BA0EB0B1E4FF0010B0BFA0EFB2AEAD2
:1017B0000B0A03F5866B5BF821B0DBF804B004EB91
:1017C000020E01E00BE009E04FEA2E1E2BF81EA0EE
:1017D000501C82B2624595DB01205DE700BF00BF6F
:1017E000481C81B21429FFF661AF002054E7F8B518
:1017F00004460D4616461F4601203B463246294602
:1018000000902046FFF73EFFF8BD2DE9FC5F04463F
:101810000D4617469846DDE90C6B4FF00009B8F10C
:10182000050F09D0B8F1060F7DD0B8F10F0F7BD0AE
:10183000B8F1100F79D10BE23088B0F57F4F02D0AC
:101840003088002872D13088B0F57F4F07D101234E
:101850001A4629462046FFF785FE814606E0012309
:10186000002229462046FFF77DFE8146B9F1000F90
:101870007CD000BFD4F88004401C0028FAD1A068B6
:1018800010B10120A16888474FF6FF7A0020A4F824
:101890002C0494F82812504600F058FB824694F825
:1018A0002812B4F82C24501CA4F82C0404F54B7016
:1018B00081544146504600F049FB8246B4F82C144E
:1018C000481CA4F82C0404F54B7000F80180290A88
:1018D000504600F03BFB8246290AB4F82C24501CE9
:1018E000A4F82C0404F54B708154E9B2504600F082
:1018F0002DFB8246B4F82C24501CA4F82C0404F5CB
:101900004B7085543088010A504600F01FFB824618
:101910003088010AB4F82C24501CA4F82C0404F5D7
:101920004B70815403E0EEE049E037E241E031786A
:10193000504600F00BFB82463178B4F82C24501C42
:10194000A4F82C0404F54B708154B4F82C24501CDA
:10195000A4F82C0404F54B7000F802A04FEA2A21E9
:10196000B4F82C24501CA4F82C0400E01BE004F56F
:101970004B708154B4F82C142268904700BFD4F8FF
:101980008004401C0028FAD1A06810B10020A16892
:101990008847206990B101231A4629462046D4F889
:1019A00010C0E0470AE0022285212046FFF780FCB4
:1019B00004E0032285212046FFF77AFCEEE10120B6
:1019C00033463A46294600902046FFF75BFE8146A3
:1019D000B9F1000F7CD000BFD4F88004401C00286F
:1019E000FAD1A06810B10120A16888474FF6FF7AAC
:1019F0000020A4F82C0494F82812504600F0A6FA0F
:101A0000824694F82812B4F82C24501CA4F82C0414
:101A100004F54B7081544146504600F097FA8246D7
:101A2000B4F82C14481CA4F82C0404F54B7000F8EE
:101A30000180290A504600F089FA8246290AB4F842
:101A40002C24501CA4F82C0404F54B708154E9B2EA
:101A5000504600F07BFA8246B4F82C24501CA4F8BF
:101A60002C0404F54B708554390A504600F06EFA88
:101A70008246390AB4F82C24501CA4F82C0404F52E
:101A80004B708154F9B2504600F060FA8246B4F8C7
:101A90002C24501CA4F82C0404F54B708754B4F883
:101AA0002C24501CA4F82C0404F54B7000F802A060
:101AB0004FEA2A21B4F82C24501CA4F82C0404F575
:101AC0004B708154B4F82C142268904700BF00E09A
:101AD00013E0D4F88004401C0028F8D1A06810B1AD
:101AE0000020A1688847206960B101233A46294651
:101AF0002046D4F810C0E04704E002228F2120469F
:101B0000FFF7D6FB4AE1328803232946204600F03E
:101B100069F98146B9F1000F7DD000BFD4F8800487
:101B2000401C0028FAD1A06810B10120A1688847A4
:101B30004FF6FF7A0020A4F82C0494F8281250469F
:101B400000F004FA824694F82812B4F82C24501CB1
:101B5000A4F82C0404F54B7081544146504600F023
:101B6000F5F98246B4F82C14481CA4F82C0404F5AA
:101B70004B7000F80180290A504600F0E7F98246D0
:101B8000290AB4F82C24501CA4F82C0404F54B703A
:101B90008154E9B2504600F0D9F98246B4F82C24B9
:101BA000501CA4F82C0404F54B7085543088010AAD
:101BB000504600F0CBF982463088010AB4F82C2454
:101BC000501CA4F82C0404F54B7081543178504615
:101BD00000F0BCF982463178B4F82C24501CA4F8EB
:101BE0002C0404F54B708154B4F82C24501CA4F838
:101BF0002C0404F54B7000F802A04FEA2A21B4F837
:101C00002C24501CA4F82C0404F54B708154B4F817
:101C10002C14226800E015E0904700BFD4F880043F
:101C2000401C0028FAD1A06810B10020A1688847A4
:101C3000206960B10323012229462046D4F810C050
:101C4000E04704E0022286212046FFF731FBA5E0B1
:101C50000320012133463A46CDE9001029462046AB
:101C600000F00AF98146B9F1000F7ED000BFD4F828
:101C70008004401C0028FAD1A06810B10120A1689E
:101C800088474FF6FF7A0020A4F82C0494F8281215
:101C9000504600F05BF9824694F82812B4F82C24E0
:101CA000501CA4F82C0404F54B7081544146504656
:101CB00000F04CF98246B4F82C14481CA4F82C040B
:101CC00004F54B7000F80180290A504600F03EF9F7
:101CD0008246290AB4F82C24501CA4F82C0404F5DC
:101CE0004B708154E9B2504600F030F98246B4F8A6
:101CF0002C24501CA4F82C0404F54B708554390A8C
:101D0000504600F023F98246390AB4F82C24501CBE
:101D1000A4F82C0404F54B708154F9B2504600F03D
:101D200015F98246B4F82C24501CA4F82C0404F5B0
:101D30004B708754B4F82C24501CA4F82C0404F5E0
:101D40004B7000F802A04FEA2A21B4F82C24501C52
:101D5000A4F82C0404F54B708154B4F82C142268B8
:101D6000904700BFD4F8800400E011E0401C002838
:101D7000F8D1A06810B10020A1688847206960B13F
:101D800003233A4629462046D4F810C0E04704E031
:101D9000022290212046FFF78BFA00BF00BFB9F165
:101DA000000F02D10020BDE8FC9F0120FBE770B5C9
:101DB00004460D461646032332462946204600F0C7
:101DC00011F870BDFCB504460D4616461F460320AB
:101DD00000213B463246CDE900102946204600F05E
:101DE0004BF8FCBDF0B505460C4616462A460AB926
:101DF0000020F0BD032B03D0042B01D00020F8E716
:101E0000002135E002F5866050F8210000B92DE090
:101E100002F5866050F821000088A04225DC02F51A
:101E2000866050F82100078802F5866050F821008E
:101E300000890744601C874217DB02F5866050F872
:101E40002100807A98420FD102F5866050F8210077
:101E50000088201A87B202F5866050F82100406899
:101E600020F817600120C4E700BF00BF481C81B202
:101E70001429C7DB0020BCE72DE9F04F06460D46CC
:101E800094461C46DDE90987324612B90020BDE8B8
:101E9000F08F032F03D0042F01D00020F7E700219B
:101EA00050E002F5866050F8210000B948E002F5E4
:101EB000866050F821000088A84240DC02F5866068
:101EC00050F82100038802F5866050F8210000894F
:101ED000184405EB0C03984231DB02F5866050F89C
:101EE0002100807AB84229D102F5866050F821009D
:101EF0000088281A1FFA80F9002300BF1AE0B8F101
:101F0000000F09D014F81300000234F813A040EABF
:101F10001A2024F8130001E034F8130002F5866A51
:101F20005AF821A0DAF804A009EB030B2AF81B00E9
:101F3000581C83B26345E2DB0120A8E700BF00BF65
:101F4000481C81B21429ACDB0020A0E7024682EADB
:101F50000100C0B2024B33F8100080EA2220704723
:101F60003028000810B50246B2F90201B2F9043176
:101F7000984201D1002010BDB2F90201401CB2F814
:101F8000063190FBF3F403FB140000B2A2F8020147
:101F9000B2F90201105C08700120ECE710B50246AE
:101FA000B2F90401401CB2F8063190FBF3F403FBD4
:101FB0001400B2F90231984201D1002010BDB2F9EB
:101FC0000401401CB2F8063190FBF3F403FB14004B
:101FD00000B2A2F80401B2F9040111540120EDE7A6
:101FE00030B503460C46154600211A460BB90020B1
:101FF00030BD002108E052F8210018B942F8214014
:102000000120F5E7481C81B2A942F4DB0020EFE78C
:1020100000BFFEE77047000070B5002100230F22CB
:10202000C47804B3154C246804F4E064C4F5E06497
:10203000210AC1F10403CA40447804FA03F1847808
:102040001440214309010E4C0678A155047804F090
:102050001F050124AC4005786D11AD0005F1E025A8
:10206000C5F8004109E0047804F01F050124AC40E4
:10207000044D0678761145F8264070BD0CED00E061
:1020800000E400E080E100E002490143024A1160FF
:10209000704700000000FA050CED00E070470000FA
:1020A00029B1064AD2690243044BDA6104E0034ACB
:1020B000D2698243014BDA61704700000010024090
:1020C00029B1064A92690243044B9A6104E0034A2B
:1020D00092698243014B9A617047000000100240F0
:1020E00030B500210022002400232D4D6D6805F03D
:1020F0000C0121B1042905D0082923D105E0294D7F
:10210000056022E0274D05601FE0254D6D6805F450
:102110007012234D6D6805F48034022505EB924260
:102120001CB9214D554305600BE01D4D6D6805F44C
:1021300000351DB11C4D5543056002E0194D554356
:10214000056002E0174D056000BF00BF144D6D68CB
:1021500005F0F0010909154D6B5C0568DD4045602F
:102160000F4D6D6805F4E061090A104D6B5C456820
:10217000DD4085600A4D6D6805F46051C90A0B4D5C
:102180006B5C4568DD40C560054D6D6805F44041F8
:10219000890B074D6B5CC568B5FBF3F5056130BD78
:1021A0000010024000127A0000093D002C000020BF
:1021B0003C000020704710B500F002F810BD000090
:1021C0000CB50020019000903348006840F4803046
:1021D0003149086000BF3048006800F400300090CA
:1021E0000198401C0190009818B90198B0F5A06FB3
:1021F000F1D12948006800F4003010B101200090AE
:1022000001E0002000900098012843D12348006895
:1022100040F01000214908600846006820F00300E3
:1022200008600846006840F0020008601A484068EC
:10223000194948600846406848600846406840F4CC
:10224000806048600846406820F47C10486008467A
:10225000406840F4E81048600846006840F080702C
:10226000086000BF0C48006800F000700028F9D03A
:102270000948406820F00300074948600846406864
:1022800040F00200486000BF0348406800F00C00C6
:102290000828F9D10CBD00000010024000200240C7
:1022A000042808D14FF0E021096941F004014FF002
:1022B000E022116107E04FF0E021096921F00401FB
:1022C0004FF0E022116170477047000010B51348CD
:1022D000006840F001001149086008464068104954
:1022E00008400E494860084600680E4908400B49FE
:1022F00008600846006820F48020086008464068AE
:1023000020F4FE0048604FF41F008860FFF753FF81
:102310004FF000600449086010BD0000001002404A
:102320000000FFF8FFFFF6FE08ED00E010B5012108
:10233000074800F050F850B10121054800F03CF882
:1023400004480068401C03490860FEF7C3FA10BD4A
:1023500000040040140000207FB505460C46012112
:102360000220FFF79DFEADF80850ADF804400020B4
:10237000ADF80A00ADF8060001A90E4800F046F8D5
:10238000012211460B4800F037F81D208DF800009F
:1023900001208DF8010003208DF8020001208DF846
:1023A00003006846FFF738FE0121024800F007F8F5
:1023B0007FBD000000040040CA430282704721B183
:1023C000028842F00102028004E002884FF6FE73A8
:1023D0001A400280704730B50246002000230024D6
:1023E000158A05EA0103958905EA010413B10CB1C8
:1023F000012000E0002030BD1AB183890B438381A6
:1024000002E083898B4383817047000000220288A9
:102410001D4B98420ED01D4B98420BD0B0F1804F0F
:1024200008D01B4B984205D01A4B984202D01A4B49
:10243000984204D14FF68F731A404B881A43174BBA
:10244000984207D0164B984204D04FF6FF431A40EB
:10245000CB881A4302808B8883850B8803850A4BBF
:1024600098420BD0094B984208D00E4B984205D0A9
:102470000D4B984202D00D4B984201D10B7A038646
:102480000123838270470000002C0140003401408A
:102490000004004000080040000C00400010004014
:1024A0000014004000400140004401400048014049
:1024B00010B540F22551164800F040F830B11448EC
:1024C00000F0F8F8C4B22046FEF7E8F940F22771B0
:1024D0000F4800F033F8D0B10E4802880088401C45
:1024E0000C4B18800C480068815C094800F0E7F844
:1024F0000848008809490988884208D1012008490C
:102500000870002240F22771014800F041F810BD28
:102510000038014026000020200000202400002078
:102520002800002021B1828942F40052828104E017
:1025300082894DF6FF731A408281704770B502465A
:10254000002400230025002040F66A16B14200D185
:1025500000BFC1F3421501F01F03012606FA03F381
:10256000012D02D19689334006E0022D02D1168A50
:10257000334001E0968A33400C12012606FA04F437
:102580001688344013B10CB1012000E0002070BD6A
:10259000F0B50346002400260025002040F66A1707
:1025A000B94200D100BF1846C1F3421401F01F0622
:1025B000012707FA06F5012C01D10C3004E0022CAA
:1025C00001D1103000E014301AB107682F430760C2
:1025D00002E00768AF430760F0BD00002DE9F04757
:1025E00086B005460E460024A24600BFA14600273D
:1025F000B08900B100BF2F462C8A4CF6FF70044012
:10260000F08804432C82AC894EF6F3100440B08865
:1026100031890843718908430443AC81AC8A4FF681
:10262000FF400440B0890443AC8201A8FFF758FD85
:102630001F48874202D1DDF810A001E0DDF80CA0B0
:10264000A88900F4004040B10AEBCA0000EB0A1070
:1026500031684900B0FBF1F807E00AEBCA0000EB73
:102660000A1031688900B0FBF1F86420B8FBF0F083
:1026700004012009642101FB1089A88900F40040AD
:1026800040B1322000EBC900B0FBF1F000F00700D0
:10269000044308E0322000EB09106421B0FBF1F0A4
:1026A00000F00F0004432C8106B0BDE8F087000065
:1026B0000038014001468888C0F308007047C1F324
:1026C00008028280704700BFFEE702E008C8121FC0
:1026D00008C1002AFAD170477047002001E001C10B
:1026E000121F002AFBD1704710B56FF00400FFF7EE
:1026F000D7FD0A4800680A49B0FBF1F009490870A3
:102700000846007800EB4001C1EBC0104FF6FF71A6
:1027100001EAC0000449088010BD0000000000204C
:1027200000127A00180000201A000020FFF7DCFFDA
:102730004FF4A060FFF7A8FCFEF7DCF86321472008
:10274000FFF70AFE01E0FEF7D3F9FCE710B586B00B
:102750000446012144F20500FFF7B2FC4FF400707B
:10276000ADF8140003208DF8160018208DF817001E
:1027700005A91C48FDF77CFF4FF48060ADF81400FC
:1027800004208DF8170005A91648FDF771FF2520D4
:102790008DF8000000208DF801008DF80200012066
:1027A0008DF803006846FFF737FC01940020ADF870
:1027B0000800ADF80A00ADF80C00ADF810000C20D0
:1027C000ADF80E0001A90848FFF708FF012240F20A
:1027D00025510548FFF7DCFE01210348FFF7A2FE63
:1027E00006B010BD000801400038014070B5054634
:1027F0000C460A4805600A48048000200949088000
:1028000009490870012240F227710848FFF7C0FE0D
:1028100000BF054800780028FBD070BD20000020D4
:10282000240000202600002028000020003801405D
:102830000000C1C081C1400101C3C003800241C288
:1028400001C6C006800741C70005C1C581C4400458
:1028500001CCC00C800D41CD000FC1CF81CE400E08
:10286000000AC1CA81CB400B01C9C009800841C818
:1028700001D8C018801941D9001BC1DB81DA401A88
:10288000001EC1DE81DF401F01DDC01D801C41DC58
:102890000014C1D481D5401501D7C017801641D688
:1028A00001D2C012801341D30011C1D181D0401098
:1028B00001F0C030803141F10033C1F381F2403288
:1028C0000036C1F681F7403701F5C035803441F458
:1028D000003CC1FC81FD403D01FFC03F803E41FE08
:1028E00001FAC03A803B41FB0039C1F981F8403818
:1028F0000028C1E881E9402901EBC02B802A41EA88
:1029000001EEC02E802F41EF002DC1ED81EC402C57
:1029100001E4C024802541E50027C1E781E6402687
:102920000022C1E281E3402301E1C021802041E097
:1029300001A0C060806141A10063C1A381A2406287
:102940000066C1A681A7406701A5C065806441A457
:10295000006CC1AC81AD406D01AFC06F806E41AE07
:1029600001AAC06A806B41AB0069C1A981A8406817
:102970000078C1B881B9407901BBC07B807A41BA87
:1029800001BEC07E807F41BF007DC1BD81BC407C57
:1029900001B4C074807541B50077C1B781B6407687
:1029A0000072C1B281B3407301B1C071807041B097
:1029B0000050C190819140510193C0538052419287
:1029C0000196C056805741970055C1958194405457
:1029D000019CC05C805D419D005FC19F819E405E07
:1029E000005AC19A819B405B0199C0598058419817
:1029F0000188C04880494189004BC18B818A404A87
:102A0000004EC18E818F404F018DC04D804C418C56
:102A10000044C184818540450187C0478046418686
:102A20000182C042804341830041C1818180404096
:102A30000100020003000400050000005C2A0008F9
:102A40000000002004010000CA260008602B0008D6
:102A50000401002094080000DA26000800A24A04BD
:102A6000000000000000000001020304060708093E
:102A70000000000000000000000000000000000056
:102A8000000000000000000000000000010203043C
:102A900001020304060708090204060801000200F7
:102AA00003000400050006000700080009000A00F2
:102AB0000B000C00000000000000000000000000FF
:102AC0000000000000000000000000000000000006
:102AD00000000000000000000000000000000000F6
:102AE00040000020200003000B0015001F002900FB
:102AF00033003D00470051005B0065006F00790026
:102B000000000000000000000000000000000000C5
:102B100000000000000000000000000000000000B5
:102B20000000000000000000000000008C000020F9
:102B30002000040000000000000000000000000071
:102B4000D8000020400001005555555500000000F8
:102B500000000000EC000020400002000000000027
:0400000508000131BD
:00000001FF
