:020000040800F2
:10000000000D002001010008051900086107000823
:100010000119000841060008372000080000000010
:10002000000000000000000000000000E91A0008C5
:1000300045060008000000008D190008FD1B00089F
:100040001B0100081B0100081B0100081B01000820
:100050001B0100081B0100081B0100081B01000810
:100060001B0100081B0100081B0100081B01000800
:100070001B0100081B0100081B0100081B010008F0
:100080001B0100081B0100081B0100081B010008E0
:100090001B0100081B0100081B0100081B010008D0
:1000A0001B0100081B0100081B0100081B010008C0
:1000B0001B010008611C00081B0100081B0100084F
:1000C0001B0100081B0100081B0100081B010008A0
:1000D0001B010008E51D00081B010008591E00084F
:1000E0001B0100081B0100081B010008DFF80CD0F1
:1000F00000F068FA0048004749210008000D002080
:100100000648804706480047FEE7FEE7FEE7FEE7B1
:10011000FEE7FEE7FEE7FEE7FEE7FEE7011C00085C
:10012000ED000008F0B480EA0102D40F4200B2EB07
:10013000410F02D20246084611464A0042D0C30D82
:10014000DDB2C1F3C752AD1A202D35DAC1F3160165
:1001500041F4000204B15242C5F1200602FA06F150
:100160002A411044B3EBD05F23D0C4B1012DA0EBE2
:10017000C35009DCF0BC4FF0004202EAC352DBB2CC
:1001800000F5000000F093B9400000F1807000EB32
:10019000C350A0F1807040EAD170490009E04908DD
:1001A00041EAC071A0EBC35000F50000400800EB2D
:1001B000C350F0BC00F072B96142012202EB410170
:1001C000001BF6E7F0BC704781F00041AAE780F021
:1001D0000040A7E780EA010210B502F000434000AA
:1001E00022D04A001FD0010E01EB1261C0F356006D
:1001F000C2F3560240F4000042F40002A0FB0220C9
:1002000000047F39140400D0401C50EA124001D48D
:100210004000491EC2B20C0604EBD010401C40083E
:10022000802A02D003E0002010BD20F00100002948
:1002300000DA0020184310BD2DE9FE4F81EA0304C7
:1002400004F0004421F0004100944FF0000B23F033
:10025000004350EA01045ED052EA03045BD0C3F3CA
:100260000A54C1F30A552C44A4F2F3340194A0FBC0
:100270000254C1F3130141F48011C3F3130343F497
:10028000801301FB024400FB034E840A970A44EAF0
:10029000815447EA8357A4FB076802958D0A05FB42
:1002A00007854FEA932C04FB0C542705029D4FEA67
:1002B000065847EA1637B5EB08056EEB070C870EB4
:1002C000920E47EA811742EA8312A7FB0201B6EBBE
:1002D0000B0164EB00042B0D43EA0C335E1844EB76
:1002E0001C50DA465146E7FB0201C5F313044FEAFE
:1002F0000B3343EA14534FEA0432019C43EA0603EA
:10030000A4F10C040294009CCDE900B400F00CF9B7
:1003100003B0BDE8F08F00200146F9E72DE9F04D6C
:1003200081EA030404F0004B21F0004514464FF02D
:10033000000A23F0004150EA050220D054EA0102ED
:100340001DD0C5F30A570246C5F31303C1F31300CA
:10035000C1F30A5640F4801543F48013A7EB060856
:10036000101BD64608F2FD3873EB050002D308F1E6
:10037000010801E092185B41B8F1000F03DA002098
:100380000146BDE8F08D00204FF4801106468446FA
:100390000EE0171B73EB050705D3121B63EB050378
:1003A00006434CEA010C49084FEA300092185B41C1
:1003B00050EA0107EDD152EA030012D082EA0400AC
:1003C00083EA0501084305D0101BAB4106D2012288
:1003D000002306E000224FF0004302E06FF001022C
:1003E00053101AEB06004CEB085110EB0A0041EBDE
:1003F0000B01BDE8F04D00F088B8C10F80EAE07055
:100400000844CA079623002100F051B89623002221
:10041000114600F04CB820F00040C10DC0F31600AA
:1004200040F400007F2901DA00207047962903DCA0
:10043000C1F19601C840704796398840704700F076
:10044000004230F000400AD0C10D01F56071C0F3E8
:10045000160042EA0151C2084007114370470020CC
:100460000146704701F0004330B421F0004150EAEA
:10047000010206D00A0DA2F56072C1F31301002A31
:1004800002DC30BC00207047440F44EAC104C100C4
:10049000E01830BC00EBC250AFF300800029A8BFC9
:1004A0007047401C490008BF20F00100704710B49D
:1004B000B0FA80FC00FA0CF050EA010404BF10BC52
:1004C000704749B1CCF1200421FA04F411FA0CF17F
:1004D00018BF012121430843A3EB0C01CB1D4FEAB8
:1004E00000614FEA102042BF002010BC704700EBB3
:1004F000C35010440029A4BF10BC7047401C4900E1
:1005000008BF20F0010010BC704710B5141E73F135
:10051000000408DA401C41F1000192185B411A43C3
:1005200001D120F0010010BD2DE9F04D92469B460F
:1005300011B1B1FA81F202E0B0FA80F220329046B5
:1005400000F052F804460F4640EA0A0041EA0B0167
:1005500053465A46084313D0114653EA010019D0B6
:10056000C8F14002504600F04EF805460E4650468F
:100570005946424600F038F8084305D0012004E00F
:1005800020463946BDE8F08D0020054346EAE07676
:100590002C4337430A986305E40AA0EB08000022C5
:1005A000FD0A44EA47540A3002D500200146E9E733
:1005B000010510196941DDE9084500196941BDE8E7
:1005C000F04DA2E7064C074D06E0E06840F001035D
:1005D00094E8070098471034AC42F6D3FFF78AFD41
:1005E000B4230008D4230008202A04DB203A00FAB0
:1005F00002F1002070479140C2F1200320FA03F37A
:10060000194390407047202A04DB203A21FA02F077
:100610000021704721FA02F3D040C2F1200291403C
:100620000843194670470000014908607047000000
:1006300088860D42014908607047000000860D421F
:1006400000BFFEE770472DE9F04102460025002675
:10065000002000230024002791F803C00CF00F05B0
:1006600091F803C00CF0100CBCF1000F03D091F80E
:1006700002C04CEA050591F800C0BCF1000F31D072
:10068000146800202BE04FF0010C0CFA00F3B1F8D5
:1006900000C00CEA03069E4220D183004FF00F0CED
:1006A0000CFA03F7BC4305FA03FC4CEA040491F886
:1006B00003C0BCF1280F06D14FF0010C0CFA00FC6E
:1006C000C2F814C00AE091F803C0BCF1480F05D18C
:1006D0004FF0010C0CFA00FCC2F810C0401C0828B6
:1006E000D1D31460B1F800C0BCF1FF0F34DD546801
:1006F00000202EE000F1080C4FF0010808FA0CF37E
:10070000B1F800C00CEA03069E4221D183004FF0ED
:100710000F0C0CFA03F7BC4305FA03FC4CEA040483
:1007200091F803C0BCF1280F05D100F1080C08FABC
:100730000CF8C2F8148091F803C0BCF1480F07D13F
:1007400000F1080C4FF0010808FA0CF8C2F810800C
:10075000401C0828CED35460BDE8F0814161704749
:1007600000BFFEE7014609B90020704740F20110C2
:10077000A1F806010020A1F80401A1F8020101205E
:1007800081F8080100BFF0E72DE9F04104460D466D
:1007900017469846069E094804600CB9BDE8F081EA
:1007A00007480649096808600648044909688860DE
:1007B000284601F073FC00BFF0E70000C0000020F5
:1007C000F9070008ED07000810B504460648006860
:1007D00000B910BD0448006821464268024800681C
:1007E000904700BFF5E70000C00000200149086005
:1007F00070470000B401224270B504460D462946F8
:10080000204601F0CBFC70BD10B50648006800B969
:1008100010BD04480068C16802480068884700BFEE
:10082000F6E70000C00000201CB5002001210823CD
:100830004FF41652CDE9001029492A4800F096F8E5
:10084000012801D000201CBD2749264800F06AF885
:1008500008B90020F7E72549224800F063F808B9F5
:100860000020F0E7032047F2305342F210721D4996
:1008700000901F4800F064F8032047F2305342F222
:100880001072184900901B4800F05AF8032047F2F4
:10089000305342F2107213490090174800F050F89C
:1008A000032047F2305342F210720E490090134871
:1008B00000F046F8032047F2305342F21072094923
:1008C00000900F4800F03CF80EA20021104800F004
:1008D00021FF10A20021124800F01CFF0120B2E706
:1008E00089070008C4000020480000209400002070
:1008F000440300205C030020740300208C030020CC
:10090000A403002072775F746573745F3000000089
:100910005911000872775F746573745F31000000CD
:100920009911000870B504460D4604B10DB90020B8
:1009300070BD1422294604F1100000F0C9FFF7E74A
:1009400030B5039C00B930BD426001600025856070
:10095000036104754575C1F8785200BFF3E700B92B
:10096000704700210173417500BFF9E72DE9F04F91
:1009700089B004460F4690469946129D1CB9002046
:1009800009B0BDE8F08F04F16000FFF7EBFE002630
:1009900006E0002104F1100040F82610701CC6B2D9
:1009A000142EF6DB4048E060002020603F48606085
:1009B0000020A060A4F86A02401EC4F86C02002067
:1009C000C4F870024046FFF721FD0190FFF737FDA4
:1009D00002460B46CDE9020100203549FFF79EFC97
:1009E0000022344BCDE90401FFF726FCCDE90601D6
:1009F000FFF738FD82464FF0000B139909B1012132
:100A000000E0002101EB0900FFF7F7FC51460690DA
:100A1000FFF7E0FB0790FFF7FEFC1FFA80FB65B9CC
:100A20005846FFF7F3FC51460690FFF77BFB079013
:100A3000FFF7F1FC1FFA80FB27E0012D12D14FF0E8
:100A40007F515046FFF7C6FB06905846FFF7DEFC85
:100A500005900699FFF766FB0790FFF7DCFC1FFA8D
:100A600080FB12E0022D10D169075046FFF7B2FB60
:100A700006905846FFF7CAFC05900699FFF752FB0F
:100A80000790FFF7C8FC1FFA80FBA4F874B200209F
:100A900084F87C0237B113982B464A4641460090B1
:100AA0002046B84701206BE7AF1300086B1300081E
:100AB0000000F03F006AF8402DE9F04F06460D4671
:100AC00094469946DDE90978334613B90020BDE81C
:100AD000F08F012F03D0022F01D00020F7E7002173
:100AE000A2E003F1100050F8210000B99AE003F1F0
:100AF000100050F82100C07A404500D092E003F188
:100B0000100050F821000088A8427DDC03F110009D
:100B100050F82100028803F1100050F821000089EC
:100B2000104405EB0C0290427BDB03F1100050F8FF
:100B30002100807AB84273D103F1100050F82100EF
:100B40000088281A84B2002266E04FEAE27A02EBBB
:100B50005A7A4FEAEA0AA2EBCA0A09EBE20B9BF8BF
:100B600000B04BFA0AFB0BF0010ABAF1000F27D0D4
:100B700003F1100A5AF821A0DAF804A004EB020BE2
:100B80004FEA2B1B3AF81BA010194FEAE07B00EB51
:100B90001B7B4FEA2B1BA0EB0B1E4FF0010B0BFA3C
:100BA0000EFB4AEA0B0A03F1100B5BF821B0DBF8ED
:100BB00004B004EB020E4FEA2E1E2BF81EA029E013
:100BC00003F1100A5AF821A0DAF804A004EB020B92
:100BD0004FEA2B1B3AF81BA010194FEAE07B00EB01
:100BE0001B7B4FEA2B1BA0EB0B1E4FF0010B0BFAEC
:100BF0000EFB2AEA0B0A03F1100B5BF821B0DBF8BD
:100C000004B004EB020E01E00BE009E04FEA2E1EF7
:100C10002BF81EA0501C82B2624596DB012056E7DD
:100C200000BF00BF481C81B21429FFF65AAF002054
:100C30004DE72DE9F04F06460D4694461C46DDE98A
:100C40000A79DDF82480324612B90020BDE8F08F21
:100C5000032F03D0042F01D00020F7E7002158E034
:100C600002F1100050F8210000B950E002F110002C
:100C700050F82100C07A484500D048E002F1100049
:100C800050F821000088A84240DC02F1100050F822
:100C90002100038802F1100050F821000089184457
:100CA00005EB0C03984231DB02F1100050F82100F3
:100CB000807AB84229D102F1100050F82100008852
:100CC000281A1FFA80FA002300BF1AE0B8F1000FBB
:100CD00009D014F81300000234F813B040EA1B20C6
:100CE00024F8130001E034F8130002F1100B5BF854
:100CF00021B0DBF804B00AEB030E2BF81E00581CE1
:100D000083B26345E2DB0120A0E700BF00BF481CBF
:100D100081B21429A4DB002098E710B500F073FB22
:100D200010BD2DE9F04F8BB004460D4690461E468F
:100D3000DDE9147B01200A901CB900200BB0BDE84E
:100D4000F08F206808B90020F8E72068D0F8780212
:100D500030B12068D0F87802A04201D00220EDE73F
:100D6000607DC0BB216801F1600000F05DFD012DD8
:100D700009DB042D07DC00973346424629462068EC
:100D800000F03CFA1CE0052D01D0062D0BD1012FFF
:100D900016DBBBF800000090334642462946206827
:100DA00000F02CFC0CE00F2D01D0102D08D1F8B272
:100DB000CDE9000B334642462946206800F024FB6B
:100DC0002068D0F87002A060012060752068C0F82B
:100DD00078420520B2E7FFE7207B217D884271DA67
:100DE000206890F87C0200286DD0002007902168D0
:100DF00081F87C02216801F1600008A900F02AFD59
:100E000010B908200A90A1E19DF82000804502D089
:100E100007200A909AE1216801F1600007A900F01B
:100E200019FD10B908200A9090E19DF81C00812856
:100E300079D012DC052877D008DC01281ED00228E2
:100E40001DD0032877D0042870D175E006286ED015
:100E50000F286DD01028F7D1EAE0852869D006DC8C
:100E6000822867D083287AD08428EDD116E186289D
:100E700076D08F2875D09028E6D123E100BF216875
:100E800001F1600008A900F0E5FC216801F16000B3
:100E900000F0B8FC9DF82010891C884202D0082080
:100EA0000A9053E107F0FF0909964FF0000A31E07C
:100EB000216801F1600006A900F0CCFC20B90820EF
:100EC0000A9043E139E103E19DF81C00CDE90008F7
:100ED000B9F1080F01DA494600E008210A4606ABDD
:100EE00020680999FFF7E8FD10B909200A902DE163
:100EF000B9F1080F01DA494600E0082109980844D1
:100F000080B20990A9F1080000F0FF090AF1010080
:100F10001FFA80FA9DF820008245C9DB0220607527
:100F200010200A9012E1AAE057E004E0CFE055E07B
:100F30007DE0B8E0A8E000BF216801F1600008A9E9
:100F400000F088FC216801F1600000F05BFC9DF876
:100F50002010891C884205D008200A90F6E098E00D
:100F6000A6E0AAE09DF82000401006904FF0000A8D
:100F70002BE0216801F1600004A900F06BFC9DF8F2
:100F8000100000020590216801F1600004A900F042
:100F900061FCBDF814009DF81010084305909DF801
:100FA0001C00002106EB0A02CDE90108009191B274
:100FB00005AB01222068FFF73CFE10B909200A901A
:100FC000C4E00AF101001FFA80FA06988245D0DBDE
:100FD0000220607510200A90B8E000BF012206A927
:100FE000206800F097F9012802D008200A90ADE0AF
:100FF000BDF81800B04202D00E200A90A6E00122EF
:1010000006A9206800F086F9012802D008200A907D
:101010009CE0BBF80000BDF81810884202D00E20FA
:101020000A9093E00220607510200A908EE000BFC5
:10103000012206A9206800F06DF9012802D00820DD
:101040000A9083E0BDF81800B04202D00E200A904A
:101050007CE0012206A9206800F05CF9012802D09A
:1010600008200A9072E0BDF81800B84202D00E20A5
:101070000A906BE00220607510200A9066E0032061
:1010800060750A200A9061E0032060750B200A90C9
:101090005CE0032060750C200A9057E00320607527
:1010A0000D200A9052E0032060750E200A904DE05A
:1010B000032060750F200A9048E0032060750E2021
:1010C0000A9043E0032060750F200A903EE000BFC5
:1010D000607D02280CD12068D0F87002A168401A07
:1010E000616888422CD30020607501200A902DE0B1
:1010F000607D012802D0607D032821D12068D0F8CE
:101100007002A168401A2169884219D32068D0F87A
:101110007002A06000206075207B401C20730020BE
:101120002168C1F87802207B217D884202DB0620FD
:101130000A900BE004200A9008E006200A9005E0DF
:10114000607D012801D10520F8E500BF002021685D
:10115000C1F878020A98F1E538B505460B48062330
:101160000022012100900A4800F036F80446022CC3
:101170000AD0102C06D0062C06D10648FFF7EFFB4C
:10118000012038BD0220FCE70020FAE7A60000207D
:10119000740300205C03002038B505460B48062385
:1011A0000022012100900A4800F016F80446022CA3
:1011B0000AD0102C06D0062C06D10648FFF7CFFB2C
:1011C000012038BD0220FCE70020FAE7B200002031
:1011D0008C0300205C0300202DE9FC4107460C46EF
:1011E00015461E46DDF820802B4622461021384643
:1011F000CDE90068FFF795FDBDE8FC812DE9F047DA
:101200000446894617461D46089E00BFD4F86C0266
:10121000401C0028FAD1A06810B10120A1688847BD
:101220004FF6FF780020A4F86A02B4F86A12481C4E
:10123000A4F86A0204F5B57047543946404600F0F8
:10124000FDFA8046B4F86A12481CA4F86A0204F554
:10125000B57000F801904946404600F0EFFA80462C
:10126000290AB4F86A22501CA4F86A0204F5B57081
:101270008154290A404600F0E1FA8046B4F86A2217
:10128000501CA4F86A0204F5B5708554E9B24046D2
:1012900000F0D4FA8046310AB4F86A22501CA4F84F
:1012A0006A0204F5B5708154310A404600F0C6FA6E
:1012B0008046B4F86A22501CA4F86A0204F5B5709E
:1012C0008654F1B2404600F0B9FA8046B4F86A227A
:1012D000501CA4F86A0204F5B57000F802804FEAC9
:1012E0002821B4F86A22501CA4F86A0204F5B570EB
:1012F0008154B4F86A122268904700BFD4F86C0297
:10130000401C0028FAD1A06810B10020A1688847CD
:10131000BDE8F087F8B506460D4617460DB9002022
:10132000F8BD00241DE0694606F1600000F092FA65
:1013300008B90320F4E79DF80000000225F8140026
:10134000694606F1600000F085FA08B90320E7E776
:1013500035F814009DF80010084325F81400601CAF
:10136000C4B2BC42DFDB0120DAE770B505460E46A9
:101370002C4604B970BD314604F1600000F086FAD5
:1013800000B9F7E7D4F86C02401C18B94FF6FF70AB
:10139000A4F87602B4F87602314600F04FFAA4F8C9
:1013A0007602D4F87002C4F86C0200BFE2E770B5B0
:1013B00005462C4604B970BDD4F87002401CC4F830
:1013C0007002D4F86C02401C00B9F4E7D4F86C1237
:1013D000D4F87002401AB4F87412884211D3B4F8E9
:1013E000760240B104F1600000F01EFA4FF0FF30C9
:1013F000C4F86C02DFE7012084F87C02801EC4F888
:101400006C0200BFD7E770472DE9F84F04460F463E
:10141000934698460A9E00BFD4F86C02401C0028F0
:10142000FAD1A06810B10120A16888474FF6FF707B
:1014300000900020A4F86A02B4F86A12481CA4F8CC
:101440006A0204F5B57000F801B05946009800F042
:10145000F5F90090B4F86A12481CA4F86A0204F581
:10146000B57047543946009800F0E8F900904FEA0B
:101470001821B4F86A22501CA4F86A0204F5B57069
:1014800081544FEA1821009800F0D8F90090B4F880
:101490006A22501CA4F86A0204F5B57000F80280B4
:1014A00008F0FF01009800F0C9F900900021B4F89D
:1014B0006A22501CA4F86A0204F5B57081540098A1
:1014C00000F0BCF90090B4F86A22501CA4F86A023B
:1014D00004F5B5708654F1B2009800F0AFF90090B1
:1014E0000F2F0DD13046F11706EB5171C910A6EB45
:1014F000C10109B1012100E0002101EBE60904E08E
:10150000102F02D170064FEA1069B4F86A12481C15
:10151000A4F86A0204F5B57000F8019049460098F5
:1015200000F08CF900900F2F16D1002511E00B98D8
:10153000415DB4F86A22501CA4F86A0204F5B57043
:1015400081540B98415D009800F078F90090681C78
:1015500085B24D45EBDB2CE0102F2AD1DDF82CA015
:10156000002523E03AF815000112B4F86A22501C55
:10157000A4F86A0204F5B57081543AF81500011216
:10158000009800F05BF900901AF81510B4F86A2280
:10159000501CA4F86A0204F5B57081541AF81510AD
:1015A000009800F04BF90090681C85B2B542D9DB79
:1015B00000BF0098C1B2B4F86A22501CA4F86A02B5
:1015C00004F5B570815400980112B4F86A22501CD9
:1015D000A4F86A0204F5B5708154B4F86A1222685E
:1015E000904700BFD4F86C02401C0028FAD1A068D4
:1015F00010B10020A1688847BDE8F88F2DE9F047B9
:101600000446894617461D46089E00BFD4F86C0262
:10161000401C0028FAD1A06810B10120A1688847B9
:101620004FF6FF780020A4F86A02B4F86A12481C4A
:10163000A4F86A0204F5B57047543946404600F0F4
:10164000FDF88046B4F86A12481CA4F86A0204F552
:10165000B57000F801904946404600F0EFF880462A
:10166000290AB4F86A22501CA4F86A0204F5B5707D
:101670008154290A404600F0E1F88046B4F86A2215
:10168000501CA4F86A0204F5B5708554E9B24046CE
:1016900000F0D4F88046310AB4F86A22501CA4F84D
:1016A0006A0204F5B5708154310A404600F0C6F86C
:1016B0008046B4F86A22501CA4F86A0204F5B5709A
:1016C0008654F1B2404600F0B9F88046B4F86A2278
:1016D000501CA4F86A0204F5B57000F802804FEAC5
:1016E0002821B4F86A22501CA4F86A0204F5B570E7
:1016F0008154B4F86A122268904700BFD4F86C0293
:10170000401C0028FAD1A06810B10020A1688847C9
:10171000BDE8F0872DE9F04105460F46164600F07A
:1017200051F8044614B90020BDE8F0812560A66098
:1017300067602046F8E7000070B500243DE02048CF
:1017400000EB0410007B00F0010098B31C4800EB94
:101750000410007BC00968BB194800EB0410006846
:1017600000B928E0164A02EB04125068144A02EB52
:101770000412116888470546012D09D1104800EB75
:101780000410007B40F080000D4901EB0411087348
:1017900085B10B4800EB0410007BC0F3400048B15A
:1017A000074800EB0410007B40F08000044901EB87
:1017B0000411087300BF601C84B2142CBFDB70BD21
:1017C000BC030020002116E00D4800EB0110007B57
:1017D00000F0010068B90A4800EB0110007B40F0FE
:1017E0000100074A02EB01121073054800EB0110DB
:1017F0007047481C81B21429E6DB0020F8E700009E
:10180000BC030020014609B900207047B1F904016A
:10181000B1F90221801AB1F80621104490FBF2F3CD
:1018200002FB130080B2F0E700B970470021A0F876
:101830000411A0F8021100BFF7E70000024682EA97
:101840000100C0B2024B33F8100080EA222070473A
:10185000B421000810B50246B2F90201B2F9043110
:10186000984201D1002010BDB2F90201401CB2F82B
:10187000063190FBF3F403FB140000B2A2F802015E
:10188000B2F90201105C08700120ECE710B50246C5
:10189000B2F90401401CB2F8063190FBF3F403FBEB
:1018A0001400B2F90231984201D1002010BDB2F902
:1018B0000401401CB2F8063190FBF3F403FB140062
:1018C00000B2A2F80401B2F9040111540120EDE7BD
:1018D00030B503460C46154600211A460BB90020C8
:1018E00030BD002108E052F8210018B942F821402B
:1018F0000120F5E7481C81B2A942F4DB0020EFE7A4
:1019000000BFFEE77047000070B5002100230F22E2
:10191000C47804B3154C246804F4E064C4F5E064AE
:10192000210AC1F10403CA40447804FA03F184781F
:101930001440214309010E4C0678A155047804F0A7
:101940001F050124AC4005786D11AD0005F1E025BF
:10195000C5F8004109E0047804F01F050124AC40FB
:10196000044D0678761145F8264070BD0CED00E078
:1019700000E400E080E100E002490143024A116016
:10198000704700000000FA050CED00E07047000011
:1019900029B1064AD2690243044BDA6104E0034AE2
:1019A000D2698243014BDA617047000000100240A7
:1019B00029B1064A92690243044B9A6104E0034A42
:1019C00092698243014B9A61704700000010024007
:1019D00030B500210022002400232D4D6D6805F054
:1019E0000C0121B1042905D0082923D105E0294D96
:1019F000056022E0274D05601FE0254D6D6805F468
:101A00007012234D6D6805F48034022505EB924277
:101A10001CB9214D554305600BE01D4D6D6805F463
:101A200000351DB11C4D5543056002E0194D55436D
:101A3000056002E0174D056000BF00BF144D6D68E2
:101A400005F0F0010909154D6B5C0568DD40456046
:101A50000F4D6D6805F4E061090A104D6B5C456837
:101A6000DD4085600A4D6D6805F46051C90A0B4D73
:101A70006B5C4568DD40C560054D6D6805F440410F
:101A8000890B074D6B5CC568B5FBF3F5056130BD8F
:101A90000010024000127A0000093D002C000020D6
:101AA0003C00002008B501211120FFF781FF002034
:101AB000FEF7C0FD0020FEF7B7FD4FF40050ADF873
:101AC000000010208DF8030002208DF80200694606
:101AD0000448FEF7B8FD4FF400510248FEF73EFE01
:101AE00008BD000000100140704710B500F002F87A
:101AF00010BD00000CB50020019000903348006834
:101B000040F480303149086000BF3048006800F47C
:101B1000003000900198401C0190009818B901987D
:101B2000B0F5A06FF1D12948006800F4003010B181
:101B30000120009001E0002000900098012843D18E
:101B40002348006840F010002149086008460068FA
:101B500020F0030008600846006840F002000860BA
:101B60001A48406819494860084640684860084675
:101B7000406840F4806048600846406820F47C106B
:101B800048600846406840F4E8104860084600682D
:101B900040F08070086000BF0C48006800F00070E2
:101BA0000028F9D00948406820F003000749486040
:101BB0000846406840F00200486000BF03484068A3
:101BC00000F00C000828F9D10CBD00000010024004
:101BD00000200240042808D14FF0E021096941F0BB
:101BE00004014FF0E022116107E04FF0E0210969A4
:101BF00021F004014FF0E0221161704770470000AE
:101C000010B51348006840F001001149086008460B
:101C10004068104908400E494860084600680E496F
:101C200008400B4908600846006820F480200860DE
:101C30000846406820F4FE0048604FF41F008860AA
:101C4000FFF753FF4FF000600449086010BD00002B
:101C5000001002400000FFF8FFFFF6FE08ED00E074
:101C600010B50121074800F050F850B10121054896
:101C700000F03CF804480068401C03490860FEF787
:101C8000C3FD10BD00040040140000207FB50546D0
:101C90000C4601210220FFF77BFEADF80850ADF89D
:101CA00004400020ADF80A00ADF8060001A90E4876
:101CB00000F046F8012211460B4800F037F81D20CD
:101CC0008DF8000001208DF8010003208DF802003E
:101CD00001208DF803006846FFF716FE0121024837
:101CE00000F007F87FBD000000040040CA430282F4
:101CF000704721B1028842F00102028004E00288AC
:101D00004FF6FE731A400280704730B5024600203D
:101D100000230024158A05EA0103958905EA0104D8
:101D200013B10CB1012000E0002030BD1AB183894D
:101D30000B43838102E083898B43838170470000DA
:101D4000002202881D4B98420ED01D4B98420BD0AA
:101D5000B0F1804F08D01B4B984205D01A4B9842E7
:101D600002D01A4B984204D14FF68F731A404B8819
:101D70001A43174B984207D0164B984204D04FF69F
:101D8000FF431A40CB881A4302808B8883850B88D7
:101D900003850A4B98420BD0094B984208D00E4B52
:101DA000984205D00D4B984202D00D4B984201D17C
:101DB0000B7A03860123838270470000002C0140C8
:101DC000003401400004004000080040000C0040C6
:101DD0000010004000140040004001400044014059
:101DE0000048014010B540F22551164800F05FF858
:101DF00030B1144800F016F9C4B22046FEF7E4FCF6
:101E000040F227710F4800F052F8D0B10E48028816
:101E10000088401C0C4B18800C480068815C094805
:101E200000F005F90848008809490988884208D166
:101E3000012008490870002240F22771014800F093
:101E400060F810BD0038014026000020200000206E
:101E5000240000202800002010B540F2255106483B
:101E600000F025F838B1044800F0DCF8C4B2204690
:101E7000FEF7AAFC00BF10BD0048004021B18289D6
:101E800042F40052828104E082894DF6FF731A40C9
:101E90008281704702460020B1F5007F00D100BF6B
:101EA00013880B400BB1012000E00020704770B593
:101EB0000246002400230025002040F66A16B142A5
:101EC00000D100BFC1F3421501F01F03012606FA3D
:101ED00003F3012D02D19689334006E0022D02D191
:101EE000168A334001E0968A33400C12012606FA26
:101EF00004F41688344013B10CB1012000E0002036
:101F000070BDF0B50346002400260025002040F6F1
:101F10006A17B94200D100BF1846C1F3421401F05C
:101F20001F06012707FA06F5012C01D10C3004E049
:101F3000022C01D1103000E014301AB107682F4391
:101F4000076002E00768AF430760F0BD2DE9F04786
:101F500086B005460E460024A24600BFA1460027D3
:101F6000B08900B100BF2F462C8A4CF6FF700440A8
:101F7000F08804432C82AC894EF6F3100440B088FC
:101F800031890843718908430443AC81AC8A4FF618
:101F9000FF400440B0890443AC8201A8FFF718FD5C
:101FA0001F48874202D1DDF810A001E0DDF80CA047
:101FB000A88900F4004040B10AEBCA0000EB0A1007
:101FC00031684900B0FBF1F807E00AEBCA0000EB0A
:101FD0000A1031688900B0FBF1F86420B8FBF0F01A
:101FE00004012009642101FB1089A88900F4004044
:101FF00040B1322000EBC900B0FBF1F000F0070067
:10200000044308E0322000EB09106421B0FBF1F03A
:1020100000F00F0004432C8106B0BDE8F0870000FB
:102020000038014001468888C0F308007047C1F3BA
:1020300008028280704700BFFEE702E008C8121F56
:1020400008C1002AFAD170477047002001E001C1A1
:10205000121F002AFBD1704710B56FF00400FFF784
:10206000B9FD0A4800680A49B0FBF1F00949087057
:102070000846007800EB4001C1EBC0104FF6FF713D
:1020800001EAC0000449088010BD000000000020E3
:1020900000127A00180000201A00002010B586B047
:1020A000044601210920FFF783FC01218804FFF782
:1020B0006FFC4FF40060ADF8040004208DF80700B9
:1020C00001A91F48FEF7BFFA4FF48060ADF8040085
:1020D00003208DF8060018208DF8070001A9184884
:1020E000FEF7B1FA02940020ADF80C00ADF80E0036
:1020F000ADF81000ADF814000C20ADF8120002A9E4
:102100001048FFF723FF012240F225510D48FFF749
:10211000F8FE01210B48FFF7B1FE27208DF80000E3
:1021200001208DF8030000208DF801008DF80200D9
:102130006846FFF7E9FBFFF7B5FC06B010BD0000ED
:10214000000C014000480040FFF786FF4FF4A060FC
:10215000FFF712FCFEF768FB63214720FFF796FDAF
:1021600003E0FEF7DAFDFFF7E7FAFAE710B50446F9
:1021700000BF40210848FFF78DFE0028F9D0214616
:102180000548FFF754FF00BF40210348FFF782FED8
:102190000028F9D010BD00000048004070B5054689
:1021A0000E46002403E0285DFFF7E0FF641CB44204
:1021B000F9DB70BD0000C1C081C1400101C3C00393
:1021C000800241C201C6C006800741C70005C1C5E3
:1021D00081C4400401CCC00C800D41CD000FC1CFA3
:1021E00081CE400E000AC1CA81CB400B01C9C00993
:1021F000800841C801D8C018801941D9001BC1DB33
:1022000081DA401A001EC1DE81DF401F01DDC01DE2
:10221000801C41DC0014C1D481D5401501D7C01702
:10222000801641D601D2C012801341D30011C1D112
:1022300081D0401001F0C030803141F10033C1F352
:1022400081F240320036C1F681F7403701F5C035E2
:10225000803441F4003CC1FC81FD403D01FFC03FA2
:10226000803E41FE01FAC03A803B41FB0039C1F992
:1022700081F840380028C1E881E9402901EBC02BF2
:10228000802A41EA01EEC02E802F41EF002DC1EDE2
:1022900081EC402C01E4C024802541E50027C1E702
:1022A00081E640260022C1E281E3402301E1C02112
:1022B000802041E001A0C060806141A10063C1A312
:1022C00081A240620066C1A681A7406701A5C065E2
:1022D000806441A4006CC1AC81AD406D01AFC06FA2
:1022E000806E41AE01AAC06A806B41AB0069C1A992
:1022F00081A840680078C1B881B9407901BBC07B32
:10230000807A41BA01BEC07E807F41BF007DC1BDE1
:1023100081BC407C01B4C074807541B50077C1B701
:1023200081B640760072C1B281B3407301B1C07111
:10233000807041B00050C190819140510193C053D1
:10234000805241920196C056805741970055C195E1
:1023500081944054019CC05C805D419D005FC19FA1
:10236000819E405E005AC19A819B405B0199C05991
:10237000805841980188C04880494189004BC18BF1
:10238000818A404A004EC18E818F404F018DC04DE1
:10239000804C418C0044C184818540450187C04701
:1023A000804641860182C042804341830041C18111
:1023B00081804040D423000800000020C4000000B9
:1023C0003A20000898240008C40000203C0C0000BB
:1023D0004A20000800A24A0400000000000000009B
:1023E00001020304060708090000000000000000C5
:1023F00000000000000000000000000000000000DD
:10240000000000000102030401020304060708099A
:1024100002040608000000000000000000000000A8
:102420004000002040000101010002000300040000
:10243000050006000700080009000A000B000C0058
:10244000000000000000000000000000000000008C
:10245000000000000000000000000000000000007C
:1024600000000000000000000000000054000020F8
:1024700020000301AAAA5555D2040100020003005E
:102480000400050006000600050004000300020029
:08249000010000000000000043
:04000005080000ED02
:00000001FF
