:020000040800F2
:10000000E818002045010008AD270008510F00083E
:10001000AB270008D9080008553A00080000000086
:100020000000000000000000000000008B2A000813
:10003000DB08000800000000292800084D2B0008FC
:100040005F0100085F0100085F0100085F01000810
:100050005F0100085F0100085F0100085F01000800
:100060005F0100085F0100085F0100085F010008F0
:100070005F0100085F0100085F0100085F010008E0
:100080005F0100085F0100085F0100085F010008D0
:100090005F0100085F0100085F0100085F010008C0
:1000A0005F0100085F0100085F0100085F010008B0
:1000B0005F010008A12B00085F0100085F01000834
:1000C0005F0100085F0100085F0100085F01000890
:1000D0005F010008ED3800085F0100085F010008BB
:1000E0005F0100085F0100085F0100085F01000870
:1000F0005F0100085F0100085F0100085F01000860
:100100005F0100085F0100085F0100085F0100084F
:100110005F0100085F0100085F0100085F0100083F
:100120005F0100085F0100085F0100085F0100082F
:10013000DFF80CD000F084FB00480047593E00086F
:10014000E81800200648804706480047FEE7FEE71B
:10015000FEE7FEE7FEE7FEE7FEE7FEE7FEE7FEE777
:10016000512B000831010008F0B480EA0102D40FDD
:100170004200B2EB410F02D20246084611464A0045
:1001800042D0C30DDDB2C1F3C752AD1A202D35DA0E
:10019000C1F3160141F4000204B15242C5F1200638
:1001A00002FA06F12A411044B3EBD05F23D0C4B168
:1001B000012DA0EBC35009DCF0BC4FF0004202EA75
:1001C000C352DBB200F5000000F05DBA400000F160
:1001D000807000EBC350A0F1807040EAD1704900FC
:1001E00009E0490841EAC071A0EBC35000F50000E6
:1001F000400800EBC350F0BC00F03CBA6142012261
:1002000002EB4101001BF6E7F0BC704781F00041B2
:10021000AAE780F00040A7E780EA010210B502F0EB
:100220000043400022D04A001FD0010E01EB1261B2
:10023000C0F35600C2F3560240F4000042F400023C
:10024000A0FB022000047F39140400D0401C50EAB7
:10025000124001D44000491EC2B20C0604EBD0107B
:10026000401C4008802A02D003E0002010BD20F08E
:100270000100002900DA0020184310BD30B480EAE4
:10028000010202F0004530F0004221F0004013D09E
:1002900090B1C30DD40DC2F31601C0F31600E41AD9
:1002A00041F4000140F400027D34914201D3641C0A
:1002B00000E04900002C02DA30BC002070474FF407
:1002C00000000023914201D3891A034340084FEAFA
:1002D0004101F7D151B1914202D14FF0004105E007
:1002E00002D24FF0010101E06FF0010103EBC450B5
:1002F000284430BC00F0BEB9420005D0C0F3C7525C
:100300005242914201DC0020704700EBC15070471F
:100310002DE9FE4F81EA030404F0004421F000417E
:1003200000944FF0000B23F0004350EA01045ED02C
:1003300052EA03045BD0C3F30A54C1F30A552C44B8
:10034000A4F2F3340194A0FB0254C1F3130141F46D
:100350008011C3F3130343F4801301FB024400FB39
:10036000034E840A970A44EA815447EA8357A4FB60
:10037000076802958D0A05FB07854FEA932C04FB5D
:100380000C542705029D4FEA065847EA1637B5EB8D
:1003900008056EEB070C870E920E47EA811742EABA
:1003A0008312A7FB0201B6EB0B0164EB00042B0DDB
:1003B00043EA0C335E1844EB1C50DA465146E7FB27
:1003C0000201C5F313044FEA0B3343EA14534FEA17
:1003D0000432019C43EA0603A4F10C040294009C3D
:1003E000CDE900B400F08CF903B0BDE8F08F002037
:1003F0000146F9E72DE9F04D81EA030404F0004BD2
:1004000021F0004514464FF0000A23F0004150EA65
:10041000050220D054EA01021DD0C5F30A57024656
:10042000C5F31303C1F31300C1F30A5640F480155A
:1004300043F48013A7EB0608101BD64608F2FD38DC
:1004400073EB050002D308F1010801E092185B414B
:10045000B8F1000F03DA00200146BDE8F08D00205E
:100460004FF48011064684460EE0171B73EB050718
:1004700005D3121B63EB050306434CEA010C490844
:100480004FEA300092185B4150EA0107EDD152EA81
:10049000030012D082EA040083EA0501084305D074
:1004A000101BAB4106D20122002306E000224FF0D0
:1004B000004302E06FF0010253101AEB06004CEB10
:1004C000085110EB0A0041EB0B01BDE8F04D00F0C4
:1004D00008B9C10F80EAE0700844CA0796230021DA
:1004E00000F0D1B896230022114600F0CCB80EB52A
:1004F00040F2334102910021CDE900110A460B463A
:1005000000F0FEF803B000BD00F0004220F0004013
:10051000C10DC0F3160040F400007F2901DA00206D
:100520007047962903DCC1F19601C84001E0963975
:100530008840002AF4D04042704720F00040C10DAE
:10054000C0F3160040F400007F2901DA0020704754
:10055000962903DCC1F19601C8407047963988405E
:100560007047C1F30A5210B5C1F3130140F2FF33D3
:1005700041F480119A4201DA002010BD40F2334369
:100580009A42A2F2334203DC524200F063F810BDFB
:10059000904010BD00F0004230F000400AD0C10D84
:1005A00001F56071C0F3160042EA0151C20840072C
:1005B00011437047002001467047000030B5041E0B
:1005C00071F1000404DB4FF00044404264EB010190
:1005D000141E73F1000405DB1C464FF00043524229
:1005E00063EB04038B4208BF824230BD30B5041E6A
:1005F00071F1000404DB4FF00044404264EB010160
:10060000141E73F1000405DB1C464FF000435242F8
:1006100063EB0403994208BF904230BD01F00043F0
:1006200030B421F0004150EA010206D00A0DA2F5D3
:100630006072C1F31301002A02DC30BC0020704755
:10064000440F44EAC104C100E01830BC00EBC250C2
:1006500000F010B8202A04DB203A21FA02F0002131
:10066000704721FA02F3D040C2F1200291400843C2
:10067000194670470029A8BF7047401C490008BFB1
:1006800020F00100704710B4B0FA80FC00FA0CF0C2
:1006900050EA010404BF10BC704749B1CCF12004FA
:1006A00021FA04F411FA0CF118BF01212143084387
:1006B000A3EB0C01CB1D4FEA00614FEA102042BFB3
:1006C000002010BC704700EBC35010440029A4BFA9
:1006D00010BC7047401C490008BF20F0010010BC4E
:1006E000704710B5141E73F1000408DA401C41F184
:1006F000000192185B411A4301D120F0010010BDA6
:100700002DE9F04D92469B4611B1B1FA81F202E01B
:10071000B0FA80F22032904600F0A4F804460F466A
:1007200040EA0A0041EA0B0153465A46084313D0F7
:10073000114653EA010019D0C8F140025046FFF7B4
:1007400089FF05460E4650465946424600F08AF853
:10075000084305D0012004E020463946BDE8F08D6D
:100760000020054346EAE0762C4337430A986305A8
:10077000E40AA0EB08000022FD0A44EA47540A30CC
:1007800002D500200146E9E7010510196941DDE9BC
:10079000084500196941BDE8F04DA2E72DE9F04D8B
:1007A00000231A461B1A8A4103DB00200146BDE8DC
:1007B000F08DC1F30A52C1F3130141F480154FF0DB
:1007C000000BD10702D100186D41521E00270446CC
:1007D00040F2FF11384601EB620A3E46804602466F
:1007E00000204FF48011FFF735FFC2197141BB188B
:1007F00046EB0100B4EB030C75EB000C04D3E41AD8
:1008000065EB000517460E46241908F101006D41FD
:1008100080463428E3DDF91946EB0600091BA841A0
:1008200003D24FF0FF32134601E0002213461BEBC8
:10083000070046EB0A51BDE8F04DFFF752BF00003C
:10084000064C074D06E0E06840F0010394E807001D
:1008500098471034AC42F6D3FFF76EFCC05A00083C
:10086000E05A0008202A04DB203A00FA02F10020B6
:1008700070479140C2F1200320FA03F319439040DE
:10088000704770B58C1810F8015B15F0070301D1A3
:1008900010F8013B2A1106D110F8012B03E010F8E3
:1008A000016B01F8016B5B1EF9D12B0705D4002306
:1008B000521E0DD401F8013BFAE710F8013BCB1AA8
:1008C000921C03E013F8015B01F8015B521EF9D59D
:1008D000A142D8D3002070BDFEE77047F0B51C469A
:1008E000094B1646094F1A885B8885B04FF0000CFB
:1008F0003F8810258DE8F010121A5B1A92B29BB255
:1009000000F063FA05B0F0BD44010020160000209D
:100910008000A0F1C0400029016802D041F001012F
:1009200001E0024A1140016070470000FEFF0F0025
:1009300010B5D0E901121143D0E903231A43114342
:100940004269114382691143C2691143026A11432A
:10095000426A1143826A1143C26A1143026B114316
:1009600002689200A2F1C04211608168082907D193
:1009700001688900A1F1C0410A6842F040020A60A2
:10098000416BD1E9002342EA03128B688C891B0278
:1009900043EA04431A430B8A42EA03520B7D8969F6
:1009A00042EA03620A4301688900A1F1C0414A603A
:1009B000C16AB1F5804F08D000686FF070418000C7
:1009C000A0F1C040C0F8041110BD816BD1E9002333
:1009D00042EA03128B680C8A1B0243EA04531A434F
:1009E0000B7D896942EA036200680A438000A0F136
:1009F000C040C0F8042110BD2DE9F041DFF85C8053
:100A00000C4606464FF4006715463946404600F04E
:100A10009DFA052000F037FA032000F021F8C4F316
:100A2000074000F01DF8C4F3072000F019F8E0B209
:100A300000F016F8002405E0FF2000F011F8305512
:100A4000641CA4B2AC42F7D33946404600F07CFAAD
:100A5000BDE8F041052000F016BA0000001C01407E
:100A60002DE9F047DFF85490154F054600244FF468
:100A7000007828064146484602D500F067FA01E0B2
:100A800000F062FA0221384600F05EFA6806060EAF
:100A90000421384600F051FA40EA060502213846A2
:100AA00000F054FA641CE4B2082CE2D30221384668
:100AB00000F04CFA2846BDE8F0870000001C014019
:100AC000000C014030B40C460178202A1AD009DC11
:100AD0000C2A0DD0102A13D0182A17D10C4801FB6C
:100AE000030108E0302A0FD0402A0FD10948F6E769
:100AF000594301F50021204630BC1A46FFF77CBF60
:100B00000548ECE70548EAE70548E8E730BC7047E8
:100B100000120800009208000008080000260800E3
:100B20000048080030B40C460146154600784A7863
:100B3000812809D3402A07D3FF2A05D0FF2803D0F4
:100B40007F2A0CD2403A0BE00022104603E0521CF0
:100B500004F8010B92B29A42F9D330BC7047413A83
:100B60008138D1B2C0B2C0EB401202EB801001EB71
:100B7000400159430C2D0CD0102D0CD0182D0DD048
:100B8000202DEAD101F56011204630BC1A46FFF74E
:100B900033BF044800E004480144F5E701F5ED11D6
:100BA000F2E700000014090000DD1100F8B5012192
:100BB000882001F053FE0220ADF800001024134EEF
:100BC0008DF8034003258DF802506946304600F049
:100BD00066F90420ADF8000048208DF8030069464E
:100BE000304600F05CF94FF42060ADF800008DF85D
:100BF00003408DF802506946054800F050F9022183
:100C0000304600F0A3F900F005F8F8BD000C0140F3
:100C1000001C014070B586B04FF6FF7000F074FA0A
:100C2000002005466C462554401CC0B21828FAD353
:100C3000112200212046FFF7DFFE4FF478461021F5
:100C40006B4632460846FFF749FE00202554401CFB
:100C5000C0B21828FAD3082214216846FFF7CCFE48
:100C60006B46324620211020FFF738FE0020255425
:100C7000401CC0B21828FAD308221E216846FFF78C
:100C8000BBFE6B46324630211020FFF727FEC820FE
:100C900003F0AEF806B070BD2DE9F04F8246C1B04A
:100CA0001C4616460D468946580701D0012100E032
:100CB000002101EBD401600841438B460C2C09D084
:100CC000102C07D0182C05D0202C03D0302C01D0AC
:100CD000402C2DD10B46224669463046FFF7F2FEE6
:100CE000002022E01DF808700026380601D54A9A37
:100CF00002E04C9820B94B9A2946504600F016FB6A
:100D000078066D1C070EADB2A5EB0900A04205D117
:100D10000AF101004D461FFA80FA03E0761CB6B2D4
:100D2000082EE2D308F1010080B280465845D9D39D
:100D300041B0BDE8F08F2DE9F04F8246A1B01F46CB
:100D400015460C468946580701D0012100E00021D4
:100D500001EBD70179438B460C2F05D0102F03D020
:100D6000182F01D0202F2DD10B463A466946284630
:100D7000FFF7D8FE002022E01DF8086000253006AD
:100D800001D52A9A02E02C9820B92B9A2146504688
:100D900000F0CCFA7006641C060EA4B2A4EB0900A5
:100DA000B84205D10AF101004C461FFA80FA03E06F
:100DB0006D1CEDB2082DE2D308F10100C0B28046EF
:100DC0005845D9D321B0BDE8F08F2DE9FF4F83B04E
:100DD0000446DDE9107580469B460E468A46002093
:100DE000814620E0B9F1000F23D005994FF00009AA
:100DF00008EB0100401BA04202DA701986B244469B
:100E00000AEB0B00401BB04210DB12AB93E807006B
:100E10008DE807002B463A4631462046FFF78BFF08
:100E2000601984B2BF1C38780028DBD107B0BDE858
:100E3000F08F802801D90120D2E7059A08EB020142
:100E4000A1EB5501A14202DA71198EB244460AEBB8
:100E50000B01491BB142E9DB0D280FD012AB93E81F
:100E600007008DE807002B463A4631462046FFF73B
:100E700013FF04EB550084B27F1CD4E7701986B2CF
:100E800044467F1CF5E7002206E00021491CC9B258
:100E90006429FBD3521CD2B28242F6D37047F0B51C
:100EA000CC78002204F00F03E40601D58C782343AC
:100EB0000C784FF00F0C14F0FF0F4FF0010E1BD009
:100EC00005680E880EFA02F42640A64210D196005C
:100ED0000CFA06F725EA070703FA06F5CE783D4334
:100EE000282E02D0482E02D002E0446100E00461C6
:100EF000521C082AE5D305600A88FF2A1CD94468D9
:100F0000002202F108060EFA06F50E882E40AE42C7
:100F10000ED196000CFA06F7BC4303FA06F7CE781A
:100F20003C43282E00D14561CE78482E00D1056182
:100F3000521C082AE5D34460F0BD024600209268A6
:100F40000A4200D00120704741617047016170473B
:100F5000FEE7000038B50121102001F07FFC0320DE
:100F6000ADF8000010218DF80310064C8DF802003A
:100F700069462046FFF793FF03212046FFF7E6FF6F
:100F800038BD0000001001402DE9F041054616482B
:100F9000016821F0F0010160016841F03001016059
:100FA000124E0027C6F880713C464FF00108280613
:100FB00002D5C6F8848101E0C6F884716806050E82
:100FC000022002F02FFFC6F88081022002F02AFFE3
:100FD000C6F88071022002F025FF641CE4B2082CE0
:100FE000E5D3BDE8F081000000100140000022427E
:100FF00070B50D48016821F0F0010160016841F011
:1010000030010160094C0120C4F88401C4F880015A
:10101000042004F5C07402F005FF0025656004207B
:1010200002F000FF256070BD001001400000224268
:101030000E4810B5016821F0F0010160016841F02F
:10104000300101600A4C0020C4F88001C4F884011A
:10105000042004F5C07402F0E5FE01202060606009
:10106000BDE81040042002F0DDBE00000010014089
:101070000000224270B513480024016821F0F001FD
:101080000160016841F0800101600F4D0126C5F843
:101090008461304602F0C6FEC5F88061012002F08E
:1010A000C1FE07E0641CE4B2FA2C03D9FFF7C0FFCD
:1010B000012070BDD5F804010028F3D1C5F88001E6
:1010C00070BD0000001001400000224208B501215F
:1010D000442001F0C3FB1820ADF8000048208DF833
:1010E000030069460648FFF7DAFE0120ADF800006C
:1010F00028208DF8030069460248FFF7D0FE08BD9E
:101100000018014000080140F0B50C4F00240646CD
:101110007B883A882146204600F000FB3D8878888D
:1011200000214543084600F0DFFA00F0E7FB0448E1
:1011300001E00680641CAC42FBD3F0BD44010020FA
:101140000008006CF0B400271949F0222C242A254D
:101150004FF4A0732B2638B101280FD04FF0010CAB
:10116000022813D003281AD08F710A804B800C817B
:101170004D818E810020F0BC00F076BA8F710A801C
:101180004B800C814D818E810320F4E781F806C0ED
:101190000B804A800C814D818E810520EBE781F820
:1011A00006C00B804A800C814D818E810620E2E7CB
:1011B000440100202DE9FE4F0026A2EB00088246E4
:1011C0005F1A701E35468946B8F1000F02DD4FF0F8
:1011D000010102E003D14FF00001019102E0C8F1EA
:1011E00000080190002F02DD4FF0010002E003D162
:1011F0004FF00000009002E0C7F100070090404669
:10120000B84501DD044600E03C46601C4FF0000B91
:10121000029016E01FFA89F11FFA8AF00C9A00F08A
:1012200085F846443D44A64202DD0199361B8A44B6
:10123000A54202DD00992D1B89440BF101001FFA24
:1012400080FB02998B45E5DDBDE8FE8F00B500F01F
:101250004BFA00F053FB024802490088088000BDA9
:10126000140000200008006C2DE9FF4F8046002488
:101270001546032082B00F46A0EB450651E0781BCF
:1012800081B208EB040A01901FFA8AF0059A00F077
:101290004DF8381B009081B208EB05091FFA89F060
:1012A000059A00F043F807EB040B1FFA8BF11FFAC5
:1012B00089F0059A00F03AF807EB05091FFA89F161
:1012C0001FFA8AF0059A00F031F8A8EB040A1FFA19
:1012D00089F11FFA8AF0059A00F028F8A8EB0509B1
:1012E0001FFA8BF11FFA89F0059A00F01FF8019898
:1012F000059A81B21FFA8AF000F018F80098059A52
:1013000081B21FFA89F000F011F8641C002E03DA94
:1013100006EB8406B61D04E0601B06EB80066D1E1E
:101320000A36AC42ABDD06B0BDE8F08F70B50C4CB0
:10133000A388A3F51345413D10D10A4D63892B8045
:10134000060AAB1C1E80C0B21880A0892880080A3B
:101350001880C8B21880208928801A8070BD0000CB
:1013600044010020FE07006CF0B501219FB0080287
:1013700001F05CFA01214FF4B47001F06FFA01251D
:10138000ADF83C5010268DF83F6003248DF83E40A8
:101390000FA99F48FFF783FD4CF23370ADF83C0076
:1013A00018278DF83F708DF83E400FA99948FFF738
:1013B00076FD4FF68070ADF83C008DF83F708DF8EB
:1013C0003E400FA99448FFF76AFD41F20100ADF8D5
:1013D0003C008DF83F708DF83E400FA98F48FFF715
:1013E0005EFD00200F21CDE918011A901B901C9082
:1013F0001D901090CDE91104CDE916051490062139
:101400001590CDE90010CDE9020613900490290350
:10141000CDE908010690059007908900CDE90A0101
:101420000C9017A80D9010A80E906846FFF780FA50
:1014300001210620FFF76CFA322002F0D9FC0020CF
:1014400000F006F97649774C4FF6FF76888049F22E
:101450004132FF2804D3B04202D0B0F5134F13D16C
:10146000D320208000F0EAF8888000F0E7F8888038
:1014700000F0E4F806EA0020888000F0DFF88B88AE
:101480001843888090427DD180B290427BD1CF209A
:10149000208064490020891C0880C12008803020F9
:1014A0000880ED202080642008800320088012201E
:1014B000088081200880E820208085200880102076
:1014C00008807A200880CB202080392008802C20BA
:1014D0000880002008803420088002200880F7203F
:1014E000208020200880EA202080002008800880BA
:1014F000C02020801B200880C1202080012008807F
:10150000C5202080302008800880C7202080B72098
:10151000088036202080482008803A2020805520EE
:101520000880B1202080002008801A200880B62082
:1015300020800A200880A2200880F220208000203D
:1015400008802620208001200880E02020800F20B5
:1015500008802A20088028200880082008800E2083
:1015600008800820088054200880A9200880432093
:1015700008800A2008800F2008800020088008804A
:10158000088001E041E037E00880E1202080002071
:101590000880152008801720088007200880112067
:1015A0000880062008802B200880562008803C20D8
:1015B000088005200880102008800F2008803F2028
:1015C000088008800F2008802B20208000200880C1
:1015D0000880012008803F2008802A2020800020E9
:1015E000088008800880EF20088011202080782063
:1015F00002F0FEFB292020800320FFF7A3FD0A480C
:10160000C0F880513046FFF77FFD1FB0F0BD0000ED
:10161000000C01400014014000180140002001406E
:1016200044010020FE07006C008021420346012097
:1016300000E05843491EC9B2FBD27047034808B5C1
:101640000088ADF80000BDF8000008BD0008006C7F
:10165000044910B50880052002F0E4FBBDE8104005
:10166000FFF7ECBFFE07006C1D4B10B59A880021F8
:10167000A2F51344413C31D1082812D2DFE800F032
:10168000110406080A0C0E1080210AE0402108E02F
:10169000C02106E0202104E0602102E0A02100E05A
:1016A000E02141F00801362000F032F90D4C588954
:1016B00020800021A01C018001801988491E0A0A8F
:1016C0000280C9B2018099892180002101800180B6
:1016D0005988491E0A0A0280C9B2018010BD000063
:1016E00044010020FE07006C30B50A4CA288A2F528
:1016F0001343413B0DD1084D62892A80030AAA1C7D
:101700001380C0B21080A0892880080A1080C8B257
:10171000108030BD44010020FE07006CF0B502448B
:10172000521E94B2CA180F4E521E93B2B288A2F53E
:101730001345413D15D10C4F72893A80050ABA1CF8
:101740001580C0B21080200A1080E0B21080B089ED
:101750003880080A1080C8B21080180A1080D8B2E9
:101760001080F0BD44010020FE07006C2DE9F84F09
:1017700082461F460C468B46580700D0012000EBDE
:10178000D70079084843203AC0B202F0FF0900268A
:10179000009040E00C2F0FD0102F11D0182F3DD10A
:1017A0001F4909EBC90001EB80004FF00008855D7F
:1017B000280609D50A9A0BE009EB49001949F2E716
:1017C000194901EB0910F0E70B9828B9174842882E
:1017D00021465046FFF7AAFD6806050E1448641C12
:1017E000A4B24088A04219D9A4EB0B00B84209D199
:1017F0000AF101001FFA80FA0D485C460188514544
:101800000CD906E008F1010000F0FF08B8F1080F5C
:10181000CED3761CF6B200988642BBD3BDE8F88FD3
:10182000DC4A000878400008EC440008140000205E
:10183000440100202DE9FF4F82B080460027DDE9FA
:101840000F091D4693463C46BA46460827E0281B2A
:10185000401EC1B20A20FFF7E9FEBBFBF0F00A21EF
:10186000B0FBF1F201FB120027B9691E8C4201DACC
:1018700048B101273030C2B2CDE9009A06FB04809E
:1018800080B20F9B06E0CDE9009A06FB04800F9B17
:1018900080B220220399FFF769FF641CE4B2AC42D6
:1018A000D5D306B0BDE8F08F2DE9FC4F044600F01B
:1018B000FF0910190D46DDE90CB61FFA80F858191A
:1018C0001FFA80FA0B9F12E0444502D3E8194C46F8
:1018D00085B2554510D20020CDE900B03B462946DF
:1018E0002046FFF743FF04EB570084B2761C3278A2
:1018F000A2F120005E28E7D9BDE8FC8F0248034929
:10190000008908807047000044010020FE07006C39
:10191000024A1080901C018070470000FE07006C96
:1019200038B50121482000F099FF2024ADF800408F
:1019300010208DF8030003200B4D8DF8020069463E
:101940002846FFF7ACFA20212846FFF7FFFAADF84A
:101950000040064C69462046FFF7A1FA20212046A8
:10196000FFF7F4FA38BD0000000C014000180140F8
:1019700000280CD040F20111A0F806110021A0F8B7
:101980000411A0F80211012180F8081108467047DF
:10199000014603480068002801D04268104770479C
:1019A0003C010020014603480068002801D0C268BD
:1019B000104770473C01002000280CD0B0F90411FA
:1019C000B0F90221B0F80601891A014491FBF0F246
:1019D00000FB121080B27047002804D00021A0F84C
:1019E0000411A0F8021170471FB50C4C84420FD1AE
:1019F000012B0ED0022B0BD0032B09D1082A00D3C8
:101A000008226B4600F0C7FABDF80000ADF80000F0
:101A10001FBD6B4600F0A5F9F6E700005411002049
:101A200004490028086004D0034A0260096803489A
:101A30008860704738010020571A0008551A0008BE
:101A4000014603480068002801D0426810477047EB
:101A500038010020704702F0FBBA0000014603483D
:101A60000068002801D0C268104770473801002084
:101A70003EB50022012108208DE807000A464FF4F8
:101A8000E1331349134800F02DF814481249044675
:101A900000F03AFF002819D00F492046183100F015
:101AA00033FF002812D00C4920460C3100F02CFFE7
:101AB00000280BD008492046243100F025FF0028DB
:101AC00004D00749034800F036FB01203EBD00006A
:101AD000211A000854110020B800002080140020B2
:101AE000E91900082DE9F84F9B46DDE90B58DDF8B0
:101AF00028A017460E4604005FD004F11400FFF73B
:101B000037FF04F58F70FFF733FF002184F8287248
:101B1000A4F82A13084604EB8002401CC0B2C2F8A5
:101B20002C131428F7D32C48E0602C48C4E900108B
:101B3000A16021614FF0FF30C4F88413C4E9DF01D4
:101B40005846FEF7CFFCFEF725FD02460B46002067
:101B50002349FEF74FFC0022224BFEF7D9FBFEF78C
:101B60005DFD81465FEA080000D001205044FEF789
:101B7000B9FC4946FEF750FBFEF7DFFC87B225B102
:101B8000012D1CD0022D20D008E03846FEF7AAFC1B
:101B90004946FEF7E9FAFEF7D0FC87B2A4F888734D
:101BA0004FF6FF70A4F88A03002E06D02B4652464B
:101BB00059462046CDF80080B047BDE8F88F4FF079
:101BC0007F514846FEF728FB03E001214846FEF717
:101BD00093FB8146D9E700003F2100081920000847
:101BE0000000F03F006AF84010B5034800F006F826
:101BF000BDE8104000F0DABA54110020FEB5040030
:101C000062D0D4E9E001401AB4F8881388425BD36B
:101C1000204600F056FA002856D094F8290294F88D
:101C2000281288424DD194F82A32581E032809D828
:101C3000B4F82B0241BAB4F82D0242BA204600F0A3
:101C400096F83AE0052B06D0062B04D00F2B10D0C7
:101C5000102B0ED031E0B4F82B02022241BAB4F8B6
:101C60002D0240BAADF8080002A8CDE90002012219
:101C700020E0B4F82B020F2B41BAB4F82D0242BA7F
:101C800094F82F0208D0B0EB420F0FD0032290211E
:101C9000204600F0E6F910E0550700D0012505EBDD
:101CA000D206864202D003228F21F1E704F50C759B
:101CB000CDE90050204600F02BFBD4F88003C4F897
:101CC00084030020A4F82A03FEBD2DE9F0439146C9
:101CD000079F00283CD0012F01D0022F3FD10022C6
:101CE00001EB090C00EB8206D6F82C4394B325884F
:101CF0008D4230D8B4F80880454465452BD3A47A8A
:101D0000BC4228D100EB8200D0F82C030088081ACE
:101D100080B2012200EB090517E0D6F82C13040964
:101D200000F00707496831F8141000F00F04E14093
:101D3000C90703EBD00102FA07F70C7801D03C4346
:101D400000E0BC43401C0C7080B28542E5D8012005
:101D5000BDE8F083FFE7521C92B2142AC2D30020E0
:101D6000F6E718B501240094FFF7AFFF18BD2DE981
:101D7000F84F17460A461D4604004FF000011DD0DB
:101D800004F563704FF6FF73009004EB8108D8F8F8
:101D90002C03002811D0068896420ED8B0F808C04F
:101DA000664402EB070C664507D3012D09D0022DCE
:101DB0000BD0032D70D0042D6FD088E00020BDE83B
:101DC000F88F807A012803D081E0807A02287ED1C2
:101DD00004EB81004FF0000AD0F82C03564600882F
:101DE000A4F88C33101A1FFA80F9184694F82812B8
:101DF00001F0D6FFA4F88C0394F82812204600F0D6
:101E000028F9B4F88C03294601F0CAFFA4F88C0322
:101E10002946204600F01DF9780700D0012000EB8C
:101E2000D700C1B2B4F88C0301F0BAFFA4F88C0358
:101E3000780700D0012000EBD700C1B2204600F0A7
:101E400008F94D4609EB070B2BE0A5EB0907BAEBA8
:101E5000E70F0DD0B4F88C03314601F0A1FFA4F8D0
:101E60008C033146204600F0F4F80026C7F3CF0A71
:101E7000D8F82C032909406830F8110005F00F014B
:101E8000C840C00705F007014FF0010000FA01F05B
:101E900004D03043C6B202E012E015E086436D1C68
:101EA000ADB2AB45D1D8B4F88C03314601F078FF20
:101EB000A4F88C033146204600F0CBF865E006E03C
:101EC000807A03280FD002E0807A04280BD0491CC6
:101ED00089B21429FFF459AF8035E9B202222046B5
:101EE00000F0BFF86AE704EB81000026D0F82C036D
:101EF0000088A4F88C33101A1FFA80FA184694F858
:101F0000281201F04DFFA4F88C0394F82812204603
:101F100000F09FF8B4F88C03294601F041FFA4F8C3
:101F20008C032946204600F094F87D00E9B2B4F80D
:101F30008C0301F035FFA4F88C03E9B2204600F0D1
:101F400088F81FE0D8F82C0341680AEB560031F8F6
:101F50001050B4F88C03290A894601F021FFA4F837
:101F60008C034946204600F074F8E9B2B4F88C03BB
:101F700001F016FFA4F88C03E9B2204600F069F8DE
:101F8000B61CB6B2B6EB470FDCD32268022100982C
:101F90009047012013E718B50324009400F001F8DE
:101FA00018BD2DE9F0439946079E00282CD0032E3A
:101FB00001D0042E2ED1002301EB020C00EB83078D
:101FC000D7F82C4314B325888D421FD8B4F8088065
:101FD000454465451AD3A47AB44217D100EB830077
:101FE000D0F82C030088081A81B2002009E0D7F845
:101FF0002C330C185B6833F8144029F81040401C4F
:1020000080B29042F3D30120BDE8F0835B1C9BB209
:10201000142BD3D30020F7E770B504000D4617D07A
:1020200004F1140000F0A7FB002811D0D4F87C03C1
:10203000401C03D14FF6FF70A4F88A03B4F88A035A
:10204000294604F55F7401F0ABFEE0816068206012
:1020500070BD13B5002803D00268012101A8904784
:102060001CBD70B504464FF6FF700D46A4F88C03F6
:10207000164694F8281201F093FEA4F88C0394F805
:1020800028122046FFF7E5FFB4F88C03294601F03B
:1020900087FEA4F88C0329462046FFF7DAFFB4F840
:1020A0008C03314601F07CFEA4F88C0331462046B7
:1020B000FFF7CFFF04F563702268BDE8704002218E
:1020C000104738B5040034D0694604F58F7000F02D
:1020D0003BFB002826D0B4F82A2304F229209DF8DF
:1020E00000101154B4F82A1301B394F82A02421EC6
:1020F000032A04D8052916D907290FD213E0052889
:10210000FAD00628F8D00F2801D010280BD10629C4
:1021100009D994F82F020830814204D3491CA4F84D
:102120002A13012038BDB1F5807F02D8491CA4F8DC
:102130002A13002038BD002800D0016170472DE926
:10214000F843041E2FD0C4F88013D4F87C23531C0A
:1021500029D0891AB4F88823914224D3B4F88A1379
:102160004FF0FF3704F1140011B1FFF735FC18E010
:102170008146FFF721FC0646002504F58F780EE026
:102180006946484600F0E0FA00280CD09DF800109F
:10219000404600F0F0FA002805D06D1CADB2B54203
:1021A000EED3C4F87C73BDE8F88300001FB5FF20B0
:1021B000ADF80C000B4803AB07C88DE807000522FB
:1021C0000121094800F09EF8BDF80C200B210648BB
:1021D00000F041FA05226B461146034800F03EFA32
:1021E0001FBD00003858000854110020F0B5002829
:1021F0002ED0012B01D0022B2FD100244F1C00EB3D
:102200008405D5F82C5325B32E888E4221D8B5F8F5
:1022100008C06644BE421CD3AE7A9E4219D100EB80
:1022200084000123D0F82C030088081A80B2002A09
:1022300069684FEA101200F00F0031F8124003FAFB
:1022400000F301D01C4300E09C4321F81240012020
:10225000F0BD641CA4B2142CD1D30020F0BD2DE934
:10226000F0439946079F002844D0012F01D0022F48
:1022700046D1002301EB020C00EB8305D5F82C437B
:1022800074B326888E4237D8B4F808804644664531
:1022900032D3A47ABC422FD100EB8300D0F82C03B8
:1022A0000088081A81B20020012620E009EBD00343
:1022B00000F007041B7800EB010CE340DB07D5F8C6
:1022C0002C3301EB00044FEA14145B680CF00F0C84
:1022D00006FA0CFC33F8147003D047EA0C0702E04E
:1022E0000AE027EA0C07401C23F8147080B29042E1
:1022F000DCD30120BDE8F0835B1C9BB2142BBBD365
:102300000020F7E718B501240094FFF7A8FF18BDD7
:102310002DE9FE4F0E46044604F563710C9D994667
:10232000174618464FF6FF784FEA162B0291052BF9
:1023300009D0062872D001214FEA172A0F286FD042
:10234000102B68D127E12888B0F57F4F02D020B14B
:1023500003225CE001231A4601E0012300223146FA
:102360002046FFF743FFE8B3A4F88C83404694F877
:10237000281201F015FDA4F88C0394F828122046C9
:10238000FFF767FEB4F88C03494601F009FDA4F895
:102390008C0349462046FFF75CFEB4F88C0359468F
:1023A00001F0FEFCA4F88C0359462046FFF751FECD
:1023B000F1B2B4F88C0301F0F3FCA4F88C03F1B291
:1023C0002046FFF746FE2888010AB4F88C0301F086
:1023D000E7FCA4F88C032888010A2046FFF739FEA1
:1023E000297800E012E0B4F88C0301F0D9FCA4F8DD
:1023F0008C0329782046FFF72CFE226802210298E0
:1024000090472569002D66D00123BFE00222852177
:102410002046FFF726FE0020BDE8FE8F5FE0FFE7C5
:1024200000912B463A4631462046FFF718FFE8B3A5
:10243000A4F88C83404694F8281201F0B1FCA4F86B
:102440008C0394F828122046FFF703FEB4F88C039F
:10245000494601F0A5FCA4F88C0349462046FFF745
:10246000F8FDB4F88C03594601F09AFCA4F88C03EB
:1024700059462046FFF7EDFDF1B2B4F88C0301F0A8
:102480008FFCA4F88C03F1B22046FFF7E2FDB4F80C
:102490008C03514601F084FCA4F88C03514620467D
:1024A000FFF7D7FDF9B2B4F88C0300E014E001F0B7
:1024B00077FCA4F88C03F9B22046FFF7CAFD226826
:1024C0000221029890472569002D9CD00123BBE092
:1024D00031462046A847BCE002228F2198E72A888F
:1024E00003233146204600F0C1F8E8B3A4F88C83FA
:1024F000404694F8281201F053FCA4F88C0394F899
:1025000028122046FFF7A5FDB4F88C03494601F0D8
:1025100047FCA4F88C0349462046FFF79AFDB4F81F
:102520008C03594601F03CFCA4F88C035946204624
:10253000FFF78FFDF1B2B4F88C0301F031FCA4F881
:102540008C03F1B22046FFF784FD2888010AB4F815
:102550008C0301F025FCA4F88C032888010A20468E
:10256000FFF777FD297800E012E0B4F88C0301F062
:1025700017FCA4F88C0329782046FFF76AFD22682F
:102580000221029890472569EDB3032301229FE7BA
:10259000022286213CE70320CDE900102B463A4673
:1025A0003146204600F08DF870B3A4F88C83404685
:1025B00094F8281201F0F4FBA4F88C0394F8281284
:1025C0002046FFF746FDB4F88C03494601F0E8FBCE
:1025D000A4F88C0349462046FFF73BFDB4F88C0372
:1025E000594601F0DDFBA4F88C0359462046FFF75D
:1025F00030FDF1B2B4F88C0301F0D2FBA4F88C03E7
:10260000F1B2204601E024E020E0FFF722FDB4F81B
:102610008C03514601F0C4FBA4F88C0351462046BC
:10262000FFF717FDF9B2B4F88C0301F0B9FBA4F879
:102630008C03F9B22046FFF70CFD226802210298B4
:10264000904725692DB103233A4641E702229021A4
:10265000DEE60120E0E6032300F008B83CB50325E0
:102660000024CDE9004500F02CF83CBDF0B5002871
:1026700020D0032B01D0042B21D100244F1C00EBD0
:102680008405D5F82C53B5B12E888E4213D8B5F8F1
:1026900008C06644BE420ED3AE7A9E420BD100EB18
:1026A0008400D0F82C030088081A696880B221F8E9
:1026B00010200120F0BD641CA4B2142CDFD3002034
:1026C000F0BD2DE9F0470028DDE908AC34D0BCF1BD
:1026D000030F02D0BCF1040F34D1002401EB020936
:1026E00000EB8407D7F82C5345B32E888E4225D8AB
:1026F000B5F80880B044C84520D3AD7A65451DD1F2
:1027000000EB8400D0F82C030088081A84B2002063
:102710000FE033F81010BAF1000F02D049BA23F8D5
:102720001010D7F82C532618401C6D6880B225F87D
:1027300016109042EDD30120BDE8F087641CA4B2CE
:10274000142CCDD30020F7E710B5B0F90221B0F971
:1027500004319A4201D1002010BDB0F80631521C5C
:1027600092FBF3F403FB142212B2A0F80221805C66
:102770000870012010BD30B5B0F90421B0F8063161
:10278000521C92FBF3F403FB1424B0F90251AC4247
:1027900001D1002030BD92FBF3F403FB142212B2EE
:1027A000A0F804218154012030BDFEE770470000ED
:1027B00030B50F23C27801780125F2B1144A1268AE
:1027C00001F1E02102F4E062C2F5E062120AC2F116
:1027D0000404D3404278A24084781C401443220170
:1027E00081F80024007800F01F018D40400980002E
:1027F00000F1E020C0F8005130BD01F01F0085401D
:102800004809800000F1E020C0F8805130BD000090
:102810000CED00E0024908430249086070470000DF
:102820000000FA050CED00E070470000044A0029A2
:10283000516901D0014300E08143516170470000BC
:1028400000100240044A0029D16901D0014300E090
:102850008143D1617047000000100240044A002902
:10286000916901D0014300E081439161704700000C
:102870000010024030B5204A5168204B11F00C0185
:1028800003D0042901D0082901D0036012E0516867
:10289000536801F470114FF0020413F4803F04EB0D
:1028A000914102D053689B0301D5154B00E0134BB7
:1028B0005943016051680F2303EA1111114B5C5C0D
:1028C0000168E14041605468072505EA14241C5D55
:1028D00021FA04F48460546805EAD4241B5DD940CD
:1028E000C1605268032303EA9232064B1B1F9A5CB5
:1028F000B1FBF2F1016130BD0010024000127A001C
:1029000000093D00680000200022002807D050F890
:1029100022302BB1521C92B2142AF8D300207047F7
:1029200040F822100120704730B587B001210820FF
:10293000FFF794FF01218803FFF784FF4FF4604401
:10294000ADF8144018208DF817000320194D8DF8AC
:10295000160005A92846FEF7A2FA21462846FEF7EA
:10296000F5FA0020ADF800004FF48271ADF80210C6
:10297000ADF804000221ADF806100121ADF80810F1
:102980004902ADF80A103821ADF80C10ADF80E0070
:102990000720094CADF810006946204600F059F8B0
:1029A0000121204600F040F8FF2000F007F807B0B2
:1029B00030BD0000000C01400038004070B50646F4
:1029C0000024114D03E0641CE4B2C82C0FD802218E
:1029D000284600F033F80028F5D03146284600F0AC
:1029E00036F8002405E0641CE4B2C82C01D90020AC
:1029F00070BD0121284600F021F80028F3D02846B8
:102A000000F023F8C0B270BD003800400146054810
:102A1000028822F03802028002880A4302800121E3
:102A200000F002B8003800400029018802D041F0CF
:102A3000400101E021F04001018070470246002082
:102A400012890A4200D00120704780897047818135
:102A5000704730B502884C8802F441530A88CD880B
:102A600022438C882C4322430C8922434C892243E5
:102A70008C892243CC8922431A430280828B22F420
:102A800000628283098A018230BD70470CB5002242
:102A9000264800920192016841F4803101604FF4B0
:102AA000A063016801F4003101910099491C009173
:102AB000019911B900999942F3D10168890333D57D
:102AC000012101911A490A6842F010020A600A685D
:102AD00022F003020A600A6842F002020A604168BA
:102AE000416041684160416841F4806141604168F2
:102AF00021F47C114160416841F4E81141600168B2
:102B000041F08071016001688901FCD5416821F0C4
:102B100003014160416841F0020141604168C1F335
:102B200081010229FAD10CBD01920CBD00100240B6
:102B3000002002404FF0E0210428086903D020F073
:102B400004000861704740F00400FAE77047000095
:102B50000F4810B5016841F00101016041680D4A5C
:102B60001140416001680C4A11400160016821F484
:102B700080210160416821F4FE0141604FF41F0192
:102B80008160FFF783FF05494FF00060086010BDCA
:102B9000001002400000FFF8FFFFF6FE08ED00E025
:102BA00010B50C4C0121204600F055F800280FD03C
:102BB0000121204600F042F8074C2068401C2060AC
:102BC0002068FEF74BFF2068BDE81040FEF7EABE24
:102BD00010BD0000000400405C0000207FB50D46E1
:102BE000044601210220FFF72DFEADF8044000202D
:102BF000ADF80050104CADF80600ADF80200694683
:102C0000204600F03DF801221146204600F02FF842
:102C10001D208DF80C0001218DF80D1003228DF878
:102C20000E208DF80F1003A8FFF7C2FD01212046EA
:102C300000F007F87FBD000000040040C943018296
:102C400070470029018802D041F0010101E021F024
:102C500001010180704702460020138A92890B42CD
:102C600002EA010202D0002A00D001207047002AA7
:102C7000828901D00A4300E08A43828170470000C4
:102C800030B502881B4C1C4DA0420DD0A8420BD081
:102C9000B0F1804F08D0194B984205D0184B98429C
:102CA00002D0184B984203D122F070034A881A438D
:102CB000154B984206D0154B984203D022F440732E
:102CC000CA881A4302808A8882850A880285A042BF
:102CD0000AD0A84208D00E4A904205D00D4A904230
:102CE00002D00D4A904201D1097A018601218182E8
:102CF00030BD0000002C01400034014000040040C1
:102D000000080040000C004000100040001400408B
:102D10000040014000440140004801402DE9FF4FC0
:102D200083B0804610A84FF4784490E8000E5548D0
:102D30001025564E048054A00095CDE901400F4661
:102D400073883288A0212820FEF7AEFD50A00095A0
:102D5000CDE9014073883288A0217820FEF7A4FDD8
:102D60004CA00095CDE9014073883288B421282019
:102D7000FEF79AFD48A00095CDE90140738832889E
:102D8000B4217820FEF790FD44A00095CDE90140E4
:102D900073883288C8212820FEF786FD40A0009560
:102DA000CDE9014073883288C8217820FEF77CFD88
:102DB0003CA00095CDE9014073883288DC212820B1
:102DC000FEF772FD38A00095CDE901407388328886
:102DD000DC217820FEF768FD34A00095CDE90140A4
:102DE00073883288F0212820FEF75EFDCDE900547B
:102DF00004234246A0214020FEF71CFDCDE90054EB
:102E000004233A46A0219020FEF714FDCDE900549A
:102E10000423B4214020059AFEF70CFDCDE90054AF
:102E20000423B4219020069AFEF704FDCDE9005456
:102E300004234A46C8214020FEF7FCFCCDE900549B
:102E400004235246C8219020FEF7F4FCCDE900543B
:102E500004235A46DC214020FEF7ECFCCDE9005467
:102E60000423DC219020139AFEF7E4FCCDE9005402
:102E70000323F0216020149AFEF7DCFC07B0BDE8C4
:102E8000F08F00001400002078313A004401002047
:102E900079313A0078323A0079323A0078333A00A0
:102EA00079333A0078343A0079343A006661632025
:102EB00069733A002DE9F04F0025DFF8088489B0E6
:102EC0001F202C46A8F800004FF6FF77FE48078029
:102ED0003846FEF719F90026FC48A8F800604FF0C4
:102EE00010080168CDF80080CDE901612821642334
:102EF000A0220846FEF7D8FC4FF47849F4A08DE8EC
:102F00000103CDE903761023F022C8210820FDF744
:102F10005CFFF5A08DE80103CDE903761023F022D4
:102F2000DC210820FDF751FF14214A46084600F035
:102F30009BFAF348DFF8CC8380F820604662F04EBD
:102F400001207168884796F820000121B1EB901F9D
:102F50004AD120F0400086F8200005A8B28920F868
:102F6000252000EB85006D1C0024F18AEDB2418024
:102F7000012D06D0022D12D0032D21D0042D33D1E6
:102F80003FE014214FF6FF72084600F06DFAB8F8E2
:102F900000004FF47842143880B2142122E0B8F8CF
:102FA00000004646143880B24FF6FF72142100F03C
:102FB0005BFA70884FF47842143881B2142011E023
:102FC000B8F802004646143881B24FF6FF7214205A
:102FD00000F04AFA70884FF47842143881B2308891
:102FE000143880B200F040FA0A2000F001FF641C9F
:102FF000A4B2B4F57A7FA2D900F076FA09B0BDE8A0
:10300000F08FBDF81400BDF81810411A00D54942E0
:10301000BDF81600BDF81A20801A00D54042494379
:1030200040430844FDF763FA00F09CFFFDF799FA6E
:1030300085B2BDF81C00BDF82010411A00D54942E8
:10304000BDF81E00BDF82220801A00D54042494339
:1030500040430844FDF74BFA00F084FFFDF781FA86
:1030600080B28146FDF73EFA06462846FDF73AFA59
:103070003146FDF703F9FDF78DFA06460F464FF08E
:103080006632A14BFDF79AFA4FD3A04AA04B3046C7
:103090003946FDF7ABFA48D3F5B3B9F1000F44D088
:1030A000BDF81400BDF81C10411A00D54942BDF806
:1030B0001600BDF81E20801A00D540424943404307
:1030C0000844FDF714FA00F04DFFFDF74AFA85B207
:1030D000BDF81800BDF82010411A00D54942BDF8CE
:1030E0001A00BDF82220801A00D5404249434043CF
:1030F0000844FDF7FCF900F035FFFDF732FA80B225
:10310000FDF7F0F906462846FDF7ECF93146FDF7E4
:10311000B5F8FDF73FFA00E007E006460F464FF02E
:103120006632794BFDF74AFA33D2B8F80210B8F894
:10313000000014391438002589B280B24FF6FF72AE
:1031400000F092F914214FF47842084600F08CF90F
:103150000022704B30463946FDF7DAF8FDF701FAE8
:1031600080B2BDF82210BDF82030BDF81E20CDE998
:103170000310CDE90123BDF81C000090BDF81A3002
:10318000BDF81820BDF81610BDF81400FFF7C6FDF5
:10319000D5E6DFF878B1DFF878915A464B463046ED
:1031A0003946FDF723FAC0D3BDF81800BDF81C104E
:1031B000411A00D54942BDF81A00BDF81E20801AF8
:1031C00000D54042494340430844FDF790F900F0E0
:1031D000C9FEFDF7C6F985B2BDF81400BDF8201090
:1031E000411A00D54942BDF81600BDF82220801AC8
:1031F00000D54042494340430844FDF778F900F0C8
:10320000B1FEFDF7AEF980B2FDF76CF9064628462F
:10321000FDF768F93146FDF731F8FDF7BBF90646D1
:103220000F464FF06632384BFDF7C8F9BBD35A460C
:103230004B4630463946FDF7D9F9B4D3BDF81400F2
:10324000BDF818708146381AFDF743F9B8F80060E8
:103250000546A6F12800FDF73CF92946FDF70EF8D2
:10326000274D8246686207EB0900FDF73BF951469E
:10327000FCF7D2FF07463046FDF734F93946FCF734
:10328000C5FF4FF0FF31FDF737F8E862BDF81E00CB
:10329000BDF816108346401A0191FDF71AF9B8F8E7
:1032A00002708146A7F12800FDF713F94946FCF7A3
:1032B000E5FFA8620199814600900BEB0100FDF744
:1032C00011F929E0140000201600002074400008C5
:1032D000D0A3D7BCA3BAD2C0B4CEB5E3CBC4BDC7CC
:1032E000B5C4B5E300000000202020202020BDF858
:1032F000D0D0B4A5C3FEC6C1D0A3D7BC0000000087
:1033000024000020440100206666EE3FCDCCCCCCEA
:10331000CCCCF03F000059404946FCF77DFF814688
:103320003846FDF7DFF84946FCF770FF4FF0FF31F4
:10333000FCF7E2FF28635046FDF7E6F8002800DAC4
:103340004042022807DC0098FDF7DEF8002800DA8A
:103350004042022834DD143F143E0025B9B2B0B219
:103360004FF6FF7200F080F84FF478461421324691
:10337000084600F079F81020CDE9000627A1029157
:10338000B8F80230B8F800201A212820FEF78CFA8D
:10339000274991F8340050B1002081F8340040B141
:1033A0002349902008390870D0204870C7E50120D3
:1033B000F3E71F48D0210838017090214170BEE525
:1033C0001C491F204FF6FF7408802046FDF79CFE25
:1033D000102619A04FF478450096CDE90150B8F8B1
:1033E0000230B8F800206E212020FEF75DFA0020A0
:1033F0000295CDE9034016A0CDE900061023F02286
:1034000082212020FDF7E1FC4FF47A7000F0F0FCFF
:1034100000F0C8F92046FDF777FEEFE55450204E46
:1034200065656420726561646A75737421000000CB
:103430002400002014000020546F7563682053633B
:103440007265656E2041646A757374204F4B21006C
:10345000B4A5C3FEC6C1D0A3D7BCCDEAB3C9A3AC43
:103460004F4BA3A1A3A100002DE9F84305461D4839
:1034700016460C46028005F10D00009282B2193802
:1034800080B20B46FDF796FE04F10D0083B21938A9
:1034900081B22A4610460096FDF78CFE671C05F1A6
:1034A0000109B9B21FFA89F0FDF7D0FEA5F10108B4
:1034B000B9B21FFA88F0FDF7C9FE671EB9B21FFA4C
:1034C00089F0FDF7C3FEB9B21FFA88F0FDF7BEFE22
:1034D00001B0334621462846BDE8F0430622FDF7F9
:1034E000C3BE00001400002070B586B01822002171
:1034F000684600F003FB9DF812109DF811000A29A0
:1035000001D1032802D0002006B070BD134D0098F1
:103510006860281D0068FCF7DCFF114E3146FCF79F
:10352000ADFE05F1080460620198FCF7D2FF314658
:10353000FCF7A4FEA0620298FCF7CBFFE0620398C0
:103540006860FCF7C6FF2063012084F834009020F7
:103550002870D02068700120D6E700001C000020F1
:1035600020BCBE4CF8B501218820FFF777F9022076
:10357000ADF800001025264F8DF8035003268DF876
:10358000026069463846FDF78AFC02213846FDF79D
:10359000DDFC0420ADF8000048248DF803406946A6
:1035A0003846FDF77CFC4FF42067ADF800708DF8CD
:1035B0000350184D8DF8026069462846FDF76FFCF0
:1035C00039462846FDF7C2FC2815ADF800008DF8F5
:1035D000034069462846FDF762FC0F49A1F10A0045
:1035E0000C46054600F08CF82146284600F088F885
:1035F000FFF77AFF08B10020F8BD4FF6FF70FDF726
:1036000083FDFFF757FCFFF76FFF0120F8BD0000B7
:10361000000C0140001C01403A0000202DE9F04759
:1036200000251D4F2C462E46C7F88451DFF86C80CC
:10363000C8F8A451C8F8AC5107F5C27700F032F9C8
:10364000062000F0EFFB3E60012000F0EBFB4FF0A6
:103650000109C7F80090484600F0E4FB3E60B2461E
:103660004E464FF6FF79A7F5C27709EA4404C7F83A
:1036700084A1012000F0D6FBC7F88461D7F80801C7
:1036800008B1641CA4B26D1CEDB2102DEDD320095D
:10369000C8F8AC61BDE8F087008021420080234279
:1036A000FEB5064600246D463046FFF7B7FF25F805
:1036B0001400641CA4B2052CF6D300214C1CA0B24B
:1036C0000BE035F8113035F81020934203D925F876
:1036D000112025F81030401C80B20528F1D3A1B28A
:1036E0000429EBD30021012035F81020401C11449F
:1036F00080B289B20428F7D30320B1FBF0F0FEBDFD
:103700002DE9F041074F06460D463878FFF7C8FF10
:1037100004467878FFF7C4FF348028800120BDE894
:10372000F08100001C00002070B586B00C460546F4
:10373000694604A8FFF7E4FF00282FD001A903A8D9
:10374000FFF7DEFF002829D0BDF80C30BDF81020AF
:10375000934203D803F13200824205D39A421FD824
:1037600002F1320083421BD2BDF80410BDF8000004
:10377000814203D801F13206B04204D388420FD807
:10378000323081420CD2D01840082880BDF80000A9
:10379000BDF80410084440082080012006B070BD28
:1037A0000020FBE770B5154C154E86B03146606AB7
:1037B000FCF732FDFCF7A8FE251F3146286000907B
:1037C000A06AFCF729FDFCF79FFE0190E06AFCF778
:1037D0009BFE0290206BFCF797FE2860039003206D
:1037E00084F834008DF811000A208DF81200182298
:1037F0000021684600F0E4F906B070BD2400002006
:1038000020BCBE4C254910B5D1F82811244C41B13B
:1038100094F82000010635D520F0800084F82000BF
:1038200037E002001E4800F1160100F10C0002D042
:10383000FFF77AFF1AE0FFF777FFB8B1A089FCF72E
:1038400051FE616AFCF7E8FCE16AFCF78DFCFCF7CD
:1038500074FEA081E08AFCF745FEA16AFCF7DCFC5F
:10386000216BFCF781FCFCF768FEE08294F82000F5
:1038700000060ED4C02084F82000A089A082E08A2F
:10388000E08306E00020A082E0834FF6FF70A08175
:10389000E08294F8200000F0800010BD00802342F8
:1038A000240000202DE9F04700240E4E0E4F05465F
:1038B000A0464FF00109280601D5484600E04046E1
:1038C000C6F8A4016806050EC7F88481012000F03F
:1038D000A9FAC7F88491641CE4B2082CEBD3BDE8C4
:1038E000F0870000008023420080214210B50A4C7E
:1038F00040F22551204600F01BF800280BD020464E
:1039000000F0A4F8C4B22046FEF79AF82046BDE8BD
:103910001040FEF73DB810BD0038014000298189F4
:1039200002D041F4005101E021F40051818170473F
:1039300070B501F01F0501260024C1F3421306FAF9
:1039400005F2012B0FD0022B0FD0838A4FEA1121F1
:103950000088134206FA01F600EA060001D000B121
:103960000124204670BD8389F0E7038AEEE710B595
:10397000C1F3421301F01F040121A140012B07D024
:10398000022B07D01430002A026805D00A4304E055
:103990000C30F8E71030F6E78A43026010BD0000F3
:1039A00030B50446008A85B00D464CF6FF710840DC
:1039B000E98801432182A0894EF6F3110840A988C5
:1039C0002A8911436A8902431143A181A08A4FF6D3
:1039D000FF410840A9890143A1826846FEF74AFFDA
:1039E0001948844201D1039800E00298A189090492
:1039F00000EBC00101EB0010296801D5490000E08F
:103A00008900B0FBF1F06422B0FBF2F109010B096F
:103A10006FF018056B4300EB8300A3891D044FF082
:103A2000320306D503EBC000B0FBF2F000F0070054
:103A300005E003EB0010B0FBF2F000F00F000843CC
:103A4000208105B030BD0000003801408088C0F3FF
:103A500008007047FEE7000070B5040300F0FEF8B0
:103A600000F0A8F80E4D0020C5F8B001202005F5A3
:103A7000D875FEF7A3FFC4F30740FEF79FFFC4F31A
:103A80000720FEF79BFFE0B2FEF798FF01202860B9
:103A90004FF4C87000F0ACF9BDE8704000F08AB88F
:103AA0000080214238B501210820FEF7D7FE4FF4EF
:103AB0008054ADF8004010208DF8030003200C4D19
:103AC0008DF8020069462846FDF7E9F921462846A7
:103AD000FDF73CFA07490120C1F8B001FEF724FFC9
:103AE0000020FEF793FF00F031F80349088038BD4D
:103AF000000C014000802142180000202DE9F04117
:103B0000114F0646002015460C46C7F8B0010320A9
:103B1000FEF754FFC4F30740FEF750FFC4F307203D
:103B2000FEF74CFFE0B2FEF749FF002405E0FF205E
:103B3000FEF744FF3055641CA4B2AC42F7D3012019
:103B4000C7F8B001BDE8F0810080214270B50F4D8B
:103B50000024C5F8B041902005F5D875FEF72EFF7A
:103B60000020FEF72BFF0020FEF728FF0020FEF7C5
:103B700025FFFF20FEF722FF44EA0024FF20FEF786
:103B80001DFF20430121296070BD000000802142FB
:103B900010B5074C0020C4F8B001052004F5D87416
:103BA000FEF70CFFFF20FEF709FF0121216010BD89
:103BB0000080214210B5FFF7EBFFC007FBD110BD1D
:103BC0002DE9F05FC1F30B06DFF88C800F0BC6F513
:103BD00080548A4681461546A24200D814463903CD
:103BE0008B464FF480524046FFF788FF002006E0E6
:103BF000321818F80210FF2903D1401C80B2A042ED
:103C0000F6D3A04221D23846FFF726FF002006E077
:103C100019F800208319401C08F8032080B2A04244
:103C2000F6D359464FF48052404600F027F8A5429B
:103C30000FD0281BA144A244002685B24FF4805423
:103C40007F1CA542CBD82C46C9E7224651464846A0
:103C5000EBE7BDE8F09F00005201002010B5064CD4
:103C60000020C4F8B001062004F5D874FEF7A6FEC3
:103C70000120206010BD0000008021422DE9F041AC
:103C80000746C8B2C0F580740E461546A24200D859
:103C900014464FF4807822463146384600F00EF83C
:103CA000A54208D0281B2744264485B24446A54295
:103CB000F1D82C46EFE7BDE8F08100002DE9F04196
:103CC00015460C460646FFF7C9FF114F0020C7F8FE
:103CD000B0010220FEF772FEC4F30740FEF76EFE4D
:103CE000C4F30720FEF76AFEE0B2FEF767FE002489
:103CF00004E0305DFEF762FE641CA4B2AC42F8D36F
:103D00000120C7F8B001BDE8F041FFF753BF000044
:103D10000080214202E008C8121F08C1002AFAD11F
:103D200070477047002001E001C1121F002AFBD13B
:103D30007047000001490860704700004001002002
:103D400010B5FDF707F90021084600F00AF83F21F9
:103D5000012000F006F80021BDE810400220AFF37A
:103D6000008070B50C460546FDF742F9D220FDF7FC
:103D70000BF9FDF77FF950B92846FDF705F9FDF776
:103D800079F92046FDF700F9FDF774F918B1FDF750
:103D90004FF9012070BDFDF74BF9002070BD000008
:103DA0004140034AC9B232F8111081EA102070472D
:103DB0004258000810B56FF00400FEF7BBFE09483A
:103DC00009490068B0FBF1F00849C0B200EB4002BD
:103DD0000870C2EBC0104FF6FF7202EAC0004880C4
:103DE00010BD00000000002000127A0060000020DA
:103DF0000B49498848434FF0E021486100238B611B
:103E0000086940F0010008610869C20701D0C003D9
:103E1000FAD5086920F0010008618B617047000045
:103E2000600000200B49097848434FF0E0214861C9
:103E300000238B61086940F0010008610869C2072E
:103E400001D0C003FAD5086920F0010008618B6138
:103E500070470000600000200EB5FFF7ABFF4FF485
:103E6000A060FEF7D7FC4FF4E13000F0A1F8FDF7B9
:103E700057FDFDF779FAFFF715FE28484FF478440F
:103E800010250480264F4FF4FA764EF614781FE082
:103E900024A00095CDE901401023C82296211E20C0
:103EA000FDF702FD3046FFF7A3FF24A00095CDE902
:103EB00001401023C82296211E20FDF7F5FC304654
:103EC000FFF796FFD7F8940130B30020C7F89401AC
:103ED000FFF73CFE4045DBD11DA00095CDE9014038
:103EE0001023C82296211E20FDF7DEFCFCF75EFEA3
:103EF000FDF7ECF81A4800688047FFF721FF4FF6FE
:103F0000FF70FDF701F9FDF7B3FD63212320FEF7F4
:103F100065FEFDF769FEFCE70120D7E714000020ED
:103F20000000234257323551313620436865636BB8
:103F3000204661696C65642100000000506C656179
:103F4000736520436865636B2120202020202000BA
:103F500057323551313620526561647921000000B5
:103F6000240000202DE9F04106460F46FCF716FC20
:103F7000041E0D4618BF0120284320F00040C0F168
:103F80007F6000F1E040C00F0ED0301C18BF012050
:103F9000384320F00040C0F17F6000F1E040C00FE6
:103FA00004BF0120FFF7C6FE20462946BDE8F08188
:103FB00030B5054687B0012144F20500FEF74EFCFE
:103FC0004FF40070ADF8100003208DF81200182097
:103FD0001D4C8DF8130004A92046FCF760FF201546
:103FE000ADF8100004208DF8130004A92046FCF75A
:103FF00056FF25208DF8140000248DF815408DF80B
:10400000164001208DF8170005A8FEF7D1FBADF88A
:104010000440ADF80640ADF80840ADF80C400C2067
:104020000A4CADF80A00009569462046FFF7B8FC37
:10403000012240F225512046FFF799FC012120463C
:10404000FFF76CFC07B030BD0008014000380140AC
:1040500030B5074B00221D1D06E01C886406FCD508
:10406000845C2C80521C92B28A42F6D330BD000090
:1040700000380140445A0008000000000000000021
:1040800000000000000000003F40000000000000B1
:1040900000003000400030004000000009000BC06C
:1040A0003D000BC03D00090018C024407FE02240C5
:1040B00031800000180024C01B000D8032400180B8
:1040C00003801C4027401C80074000401000600017
:1040D00000000000000000000000000000001F8041
:1040E000204040200000402020401F8000000000B1
:1040F000090006001F8006000900000004000400FB
:104100003F80040004000000001000600000000078
:10411000000000000400040004000400040000008B
:10412000000000400000000000000000002001C06E
:1041300006003800400000001F8020402040204042
:104140001F800000000010403FC000400000000041
:1041500018C0214022402440184000001080204018
:10416000244024401B80000002000D0011003FC0CD
:10417000014000003C802440244024402380000073
:104180001F80244024403440038000003000200081
:1041900027C03800200000001B8024402440244019
:1041A0001B8000001C0022C0224022401F80000013
:1041B00000000000084000000000000000000000B7
:1041C0000460000000000000000004000A0011006C
:1041D0002080404009000900090009000900000092
:1041E00000004040208011000A0004001800200058
:1041F00023402400180000001F8020402740294051
:104200001F400000004007C039000F0001C00040FF
:1042100020403FC0244024401B8000001F802040DD
:10422000204020403080000020403FC020402040FF
:104230001F80000020403FC024402E4030C00000BE
:1042400020403FC024402E00300000000F001080AE
:10425000204022403380020020403FC00400040080
:104260003FC02040204020403FC020402040000070
:104270000060202020203FC02000200020403FC0C0
:1042800024400B0030C0204020403FC02040004070
:10429000004000C03FC03C0003C03C003FC00000E5
:1042A00020403FC00C4023003FC020001F80204022
:1042B000204020401F80000020403FC024402400B8
:1042C000180000001F802140214020E01FA00000B6
:1042D00020403FC02440260019C0004018C02440A0
:1042E0002440224031800000300020403FC0204068
:1042F0003000000020003F80004000403F80200050
:1043000020003E0001C0070038002000380007C030
:104310003C0007C038000000204039C0060039C00A
:10432000204000002000384007C038402000000036
:10433000304021C02640384020C00000000000006E
:104340007FE0402040200000000070000C0003804F
:10435000004000000000402040207FE000000000FE
:1043600000002000400020000000000000100010AD
:1043700000100010001000100000000040000000BD
:1043800000000000000002800540054003C000401E
:1043900020003FC004400440038000000000038070
:1043A0000440044006400000000003800440244014
:1043B0003FC000400000038005400540034000006E
:1043C000000004401FC0244024402000000002E000
:1043D000055005500650042020403FC00440040012
:1043E00003C000400000044027C00040000000005F
:1043F00000100010041027E00000000020403FC023
:104400000140070004C00440204020403FC000405D
:104410000040000007C0040007C0040003C0000003
:10442000044007C00440040003C0004000000380B3
:104430000440044003800000041007F004500440CE
:1044400003800000000003800440045007F00010C7
:10445000044007C0024004000400000000000640C1
:104460000540054004C00000000004001F80044017
:1044700000400000040007800040044007C00040E6
:104480000400070004C0018006000400060001C00B
:10449000070001C006000000044006C0010006C07D
:1044A000044000000410071004E00180060004002E
:1044B0000000044005C00640044000000000000069
:1044C00004007BE040200000000000000000FFF03E
:1044D00000000000000040207BE00400000000001D
:1044E000400080004000200020004000000000004C
:1044F00000000000000000000000000000000000BC
:1045000000001FCC000C00000000000000000800AC
:10451000300060000800300060000000022003FC52
:104520001E20022003FC1E200220000000000E18A6
:1045300011043FFF10840C78000000000F0010846D
:104540000F3800C0077818840078000000780F84C6
:1045500010C411240E9800E40084000808006800CC
:1045600070000000000000000000000000000000DB
:10457000000007E01818200440020000000040027C
:104580002004181807E0000000000000024002406C
:1045900001800FF001800240024000000080008096
:1045A00000800FF800800080008000000001000DF6
:1045B000000E00000000000000000000000000806D
:1045C0000080008000800080008000800000000CDF
:1045D000000C0000000000000000000000000006C9
:1045E000001800600180060018002000000007F09D
:1045F000080810041004080807F000000000080470
:1046000008041FFC000400040000000000000E0C61
:1046100010141024104411840E0C000000000C181B
:1046200010041104110412880C700000000000E056
:104630000320042408241FFC0024000000001F980D
:10464000108411041104108810700000000007F09D
:1046500008881104110418880070000000001C0074
:10466000100010FC13001C001000000000000E38A9
:1046700011441084108411440E380000000007001B
:10468000088C10441044088807F000000000000067
:104690000000030C030C00000000000000000000FC
:1046A0000001010600000000000000000000008082
:1046B000014002200410080810040000022002201B
:1046C000022002200220022002200000000010042C
:1046D00008080410022001400080000000000E00C5
:1046E0001200100C106C10800F00000003E00C187A
:1046F00013E4142417C4082807D000000004003C69
:1047000003C41C40074000E4001C000410041FFC0C
:104710001104110411040E880070000003E00C184D
:1047200010041004100410081C10000010041FFCDA
:10473000100410041004080807F0000010041FFC07
:104740001104110417C410040818000010041FFC01
:104750001104110017C010000800000003E00C183D
:104760001004100410441C780040000010041FFCCA
:1047700010840080008010841FFC100400001004CE
:1047800010041FFC100410040000000000030001CE
:10479000100110011FFE10001000000010041FFC8B
:1047A000110403801464181C1004000010041FFC82
:1047B0001004000400040004000C000010041FFC9E
:1047C0001F0000FC1F001FFC1004000010041FFC51
:1047D0000C04030000E010181FFC100007F008088C
:1047E000100410041004080807F0000010041FFC57
:1047F00010841080108010800F00000007F008184F
:1048000010241024101C080A07F2000010041FFCDA
:104810001104110011C011300E0C000400000E1C18
:1048200011041084108410441C380000180010007B
:1048300010041FFC100410001800000010001FF8E6
:1048400010040004000410041FF8100010001E00E3
:1048500011E0001C007013801C0010001FC0103CF1
:1048600000E01F0000E0103C1FC000001004180C06
:10487000163401C001C01634180C100410001C00BE
:10488000130400FC13041C00100000000804101C9A
:104890001064108413041C041018000000000000B1
:1048A00000007FFE40024002400200000000300095
:1048B0000C0003800060001C0003000000004002A8
:1048C000400240027FFE00000000000000000000E7
:1048D00020004000400040002000000000010001D6
:1048E0000001000100010001000100010000400082
:1048F00040002000000000000000000000000098C0
:10490000012401440144014400FC000410001FFC88
:10491000008801040104008800700000000000709D
:1049200000880104010401040088000000000070F8
:1049300000880104010411081FFC0004000000F8B5
:10494000014401440144014400C800000000010486
:1049500001040FFC1104110411001800000000D61E
:1049600001290129012901C90106000010041FFCC9
:10497000008401000100010400FC000400000104A7
:10498000190419FC000400040000000000000003EA
:1049900000010101190119FE0000000010041FFCB4
:1049A0000024004001B4010C0104000000001004C8
:1049B00010041FFC0004000400000000010401FCBE
:1049C0000104010001FC0104010000FC010401FCE0
:1049D000008401000100010400FC0004000000F854
:1049E000010401040104010400F80000010101FFB9
:1049F00000850104010400880070000000000070C0
:104A0000008801040104010501FF00010104010403
:104A100001FC00840104010001800000000000CCC2
:104A20000124012401240124019800000000010058
:104A3000010007F80104010400000000010001F872
:104A4000000400040004010801FC000401000180CE
:104A50000170000C001001600180010001F0010CE8
:104A6000003001C00030010C01F001000000010421
:104A7000018C00740170018C0104000001010181AE
:104A80000171000E00180160018001000000018426
:104A9000010C013401440184010C000000000000FD
:104AA0000000000001003EFC400240020000000047
:104AB00000000000FFFF00000000000000004002B6
:104AC00040023EFC01000000000000000000600009
:104AD0008000800040004000200020000000000016
:104AE00000000000000000000000000000000000C6
:104AF00000000000000000000000000000000000B6
:104B00000000000000000000000000000000000F96
:104B100080380FFE380F80380000000000000000D1
:104B2000000000000000000000000100000600007E
:104B30000C00003800003100000600000C000038B6
:104B400000003000000000000000000061800067ED
:104B5000F807F98000618000618000618000618059
:104B60000067F807F9800061800000000000000085
:104B7000000001C0E003E0F00630080418081FFF41
:104B8000FE040E080787F00381E00000000000002B
:104B900001F000060C00040408060C7001F9C000C6
:104BA0000E00003BE000EC18070808040C18000396
:104BB000E00000000001E00007F003F818041C0802
:104BC00004170807E1D003C0E00023B0003C080050
:104BD000200800001000000000000001000031006B
:104BE000003200001C000000000000000000000077
:104BF00000000000000000000000000000000000B5
:104C00000000000000000000000000007F0001FF25
:104C1000C00780F00C001810000420000200000003
:104C20000000002000021000040C00180780F001B2
:104C3000FFC0007F00000000000000000000000036
:104C40000000000000000000420000660000660056
:104C5000003C0000180003FFC0001800003C0000EA
:104C60006600006600004200000000000800000826
:104C70000000080000080000080001FFC000080054
:104C80000008000008000008000008000000000004
:104C9000000100003100003200001C000000000094
:104CA0000000000000000000000000000000000004
:104CB00000000000080000080000080000080000D4
:104CC00008000008000008000008000008000008B4
:104CD0000000000000000000000000003800003864
:104CE000000038000000000000000000000000008C
:104CF00000000000000000000000000000060000AE
:104D00001C000070000180000E0000380000C00090
:104D10000700001C00003000000000000000000040
:104D20007F8001FFE0038070060018040008040083
:104D30000806001803807001FFE0007F800000007B
:104D40000000000000000100080100080100080345
:104D5000FFF807FFF8000008000008000008000046
:104D60000000000000000001C03802C05804009894
:104D7000040118040218040418061C1803F818018A
:104D8000E0F800000000000000000001C0E003C0E7
:104D9000F004000804080804080806180803F418BA
:104DA00001E7F00001E0000000000000000000004A
:104DB0000300000D000011000061000081080301E4
:104DC0000807FFF80FFFF8000108000108000000C5
:104DD0000000000000E007FCD006080806100806E6
:104DE0001008061008061838060FF00607C0000065
:104DF00000000000000000003F8001FFE00384305D
:104E000002081804100804100804100807181003FA
:104E10000FF00007C000000000000000000003C009
:104E2000000700000600000600F80607F806180054
:104E300006E000070000060000000000000000017E
:104E4000E1E003F7F0063410041808041808040C15
:104E500008040C0806161803F3F001C1E000000076
:104E600000000000F80003FC3003063804020804C8
:104E700002080402080404100308F001FFC0007FC8
:104E80000000000000000000000000000000000022
:104E9000000000007038007038007038000000001A
:104EA0000000000000000000000000000000000002
:104EB0000000000000000000301A00301C0000005C
:104EC00000000000000000000000000000000000E2
:104ED00000000008000014000022000041000080D3
:104EE00080010040020020040010080008000000BB
:104EF000000000002100002100002100002100002E
:104F000021000021000021000021000021000021DB
:104F1000000000000000000000000800080400106D
:104F200002002001004000808000410000220000BB
:104F3000140000080000000000000003C00004C0CE
:104F400000040000080038080F380808380810006E
:104F50000C300007E00003C000000000000000006B
:104F60003F8000FFE0038070020F1006708804C0CD
:104F700088048308047F8802C09003012000FE405B
:104F80000000080000180001F8003E0801C20007F8
:104F9000020007E20000FE00001FC80001F8000048
:104FA0003800000804000807FFF807FFF8040808A5
:104FB00004080804080804080806180803F418017F
:104FC000E7F00001E0000000000000003F8001FF6A
:104FD000E0038070020018040008040008040008C0
:104FE0000400100600200780C0000000040008072D
:104FF000FFF807FFF8040008040008040008040094
:105000001802001003807001FFE0007F80000000A4
:1050100004000807FFF807FFF8040808040808045C
:105020000808040808043E080400080600180100E7
:105030006000000004000807FFF807FFF8040808F4
:10504000040800040800040800043E0006000006EE
:105050000000018000000000000000003F8001FF10
:10506000E003807006001804000804020804020827
:105070000203F00783F000020000020004000807AA
:10508000FFF807FFF80408080008000008000008FF
:105090000000080004080807FFF807FFF8040008EC
:1050A00000000000000004000804000804000807D5
:1050B000FFF807FFF80400080400080400080000D7
:1050C00000000000000000000006000007000001D2
:1050D00004000104000104000307FFFE07FFFC04B5
:1050E000000004000004000004000807FFF807FFA8
:1050F000F8040C08001800003E0004C7800503C82F
:105100000600F8040038040018000008040008072E
:10511000FFF807FFF804000800000800000800007E
:1051200008000008000008000018000060000000EF
:1051300004000807FFF807800807FC00007FC00094
:1051400003F80007C000780007800807FFF807FF92
:10515000F804000804000807FFF807000803C0006F
:1051600000E000003800001E000007000001C0043D
:1051700000F007FFF8040000000000007F8001FF3E
:10518000E0038070060018040008040008060018F8
:1051900003003001FFE0007F8000000004000807EA
:1051A000FFF807FFF80404080404000404000404E2
:1051B00000040400060C0003F80001F000000000E9
:1051C000000000007F8001FFE0038070060088047B
:1051D00000880400C806003C03003E01FFE6007F93
:1051E0008400000004000807FFF807FFF80408081F
:1051F000040800040C00040F00040BC00610F003A8
:10520000F03801E00800000800000001E0F803F0B9
:1052100030063010041808041808040C08040C08A0
:105220000206180207F00781E00000000180000676
:10523000000004000004000004000807FFF807FF56
:10524000F8040008040000040000060000018000CB
:1052500004000007FFE007FFF0040018000008004A
:10526000000800000800000800000804001007FF04
:10527000E004000004000006000007E00007FE0054
:10528000041FE00001F80000380001E0043E0007C0
:10529000C00006000004000004000007E00007FF53
:1052A000C0041FF80007C007F80007FF80043FF89C
:1052B0000007C004F800070000040000000000041C
:1052C000000806001807C07805F1C8003E00001F5E
:1052D000800463E80780F806001804000800000056
:1052E00004000006000007800007E008047C0800B6
:1052F0001FF80007F800180804E00807000006007F
:10530000000400000000000100080600380400F856
:105310000403E8040F08047C0805F00807C0080728
:105320000018040060000000000000000000000001
:10533000000000000000003FFFFE200002200002ED
:1053400020000220000220000200000000000000F7
:10535000000008000007000000C000003800000640
:10536000000001C000003000000E0000010000003D
:1053700000000000000020000220000220000220A7
:1053800000022000023FFFFE0000000000000000BD
:105390000000000000000000000000000008000005
:1053A0001000003000002000003000001000000855
:1053B00000000000000000000000010000010000EB
:1053C00001000001000001000001000001000001D7
:1053D00000000100000100000100000100000000C9
:1053E000000000000020000020000010000010005D
:1053F00000000000000000000000000000000000AD
:105400000000000000F00019F8001B18002208003E
:105410002608002408002410003FF8001FF80000B0
:105420000800001800000004000007FFF80FFFF05C
:10543000001818001008002008002008003018008C
:105440001FF0000FC00000000000000007C0001F98
:10545000F0001830002008002008002008003C0858
:10546000001C1000006000000000000000000000B0
:1054700007C0001FF0003818002008002008002096
:105480000804101007FFF80FFFF0000010000000E4
:105490000000000000000007C0001FF000123000F4
:1054A0002218002208002208003208001E10000EF8
:1054B000200000000000000020000020080020085C
:1054C00001FFF803FFF8062008042008042008075D
:1054D000200003000000000000000000000E000E8D
:1054E0006E001FF30031B10020B10020B1003191F6
:1054F000001F13002E1E00200E00300000000004CC
:10550000000807FFF80FFFF8001008002000002037
:1055100000002008003FF8001FF80000080000000D
:1055200000000000000000200800200800200806FD
:105530003FF8063FF80000080000080000080000DF
:105540000000000000000000000000000300000355
:10555000002001002001002003063FFE063FFC0062
:10556000000000000000000000000004000807FF29
:10557000F80FFFF8000188000300002FC00038F882
:105580000020380020080000080000000000000093
:10559000000004000804000804000807FFF80FFFDB
:1055A000F8000008000008000008000000000000EB
:1055B000002008003FF8003FF8001008002000001D
:1055C0003FF8003FF8001008002000003FF8003FBF
:1055D000F8000008000000002008003FF8003FF835
:1055E000001008001000002000002008003FF80014
:1055F0001FF80000080000000000000007C0000FB6
:10560000F0001830003008002008002008003008A2
:10561000001830000FF00007C0000000000000007C
:105620002001003FFF003FFF001011002009002073
:1056300008002008003038001FF0000FC0000000F4
:105640000000000007C0001FF0003818002008000C
:105650002008002009001011001FFF003FFF00007C
:1056600001000000002008002008002008003FF88A
:10567000003FF80008080010080020080020000083
:105680003000003000000000000000000000000CAE
:1056900078001E1800330800230800210800218824
:1056A0000021980030F00038600000000000000089
:1056B000200000200000200000FFF003FFF8002081
:1056C0000800200800200800003000000000000052
:1056D000000000002000003FF0007FF800001800EC
:1056E0000008000008002010003FF8007FF00000D4
:1056F00010000000000000002000003000003C000E
:10570000003F800023F0000078000070002380003C
:105710003C00003000002000002000003C00003F62
:10572000E00023F80000E0002700003E00003FE01A
:105730000021F80001E0003E000020000000000011
:105740002008002008003838003E68002780000349
:10575000C8002CF80038380020180020080000008D
:10576000000000002000003003003C01003F8300E7
:1057700023EC000070002380003C0000200000208B
:105780000000000000000000000000380800203881
:105790000020F80023E8002F88003E0800380800A9
:1057A0002018000070000000000000000000000051
:1057B000000000000000000008000014001FF7FCBB
:1057C0003000062000020000000000000000000081
:1057D0000000000000000000000000000000FFFFCB
:1057E000FF000000000000000000000000000000BA
:1057F0000000000000002000023000061FF7FC003F
:10580000140000080000000000000000000000007C
:1058100000000000000000180000600000400000D0
:1058200040000020000010000008000004000004F8
:1058300000000C0000100000010002000300040042
:1058400005000000C1C081C1400101C3C003800246
:1058500041C201C6C006800741C70005C1C581C459
:10586000400401CCC00C800D41CD000FC1CF81CED2
:10587000400E000AC1CA81CB400B01C9C009800893
:1058800041C801D8C018801941D9001BC1DB81DA99
:10589000401A001EC1DE81DF401F01DDC01D801CDB
:1058A00041DC0014C1D481D5401501D7C017801642
:1058B00041D601D2C012801341D30011C1D181D091
:1058C000401001F0C030803141F10033C1F381F26A
:1058D00040320036C1F681F7403701F5C0358034DB
:1058E00041F4003CC1FC81FD403D01FFC03F803ED2
:1058F00041FE01FAC03A803B41FB0039C1F981F811
:1059000040380028C1E881E9402901EBC02B802AFA
:1059100041EA01EEC02E802F41EF002DC1ED81EC58
:10592000402C01E4C024802541E50027C1E781E641
:1059300040260022C1E281E3402301E1C021802012
:1059400041E001A0C060806141A10063C1A381A2C8
:1059500040620066C1A681A7406701A5C06580645A
:1059600041A4006CC1AC81AD406D01AFC06F806ED1
:1059700041AE01AAC06A806B41AB0069C1A981A890
:1059800040680078C1B881B9407901BBC07B807A9A
:1059900041BA01BEC07E807F41BF007DC1BD81BCD8
:1059A000407C01B4C074807541B50077C1B781B641
:1059B00040760072C1B281B3407301B1C071807092
:1059C00041B00050C190819140510193C053805229
:1059D00041920196C056805741970055C1958194D8
:1059E0004054019CC05C805D419D005FC19F819ED1
:1059F000405E005AC19A819B405B0199C059805812
:105A000041980188C04880494189004BC18B818AF7
:105A1000404A004EC18E818F404F018DC04D804C59
:105A2000418C0044C184818540450187C047804640
:105A300041860182C042804341830041C18181800F
:105A400040400000506C656173652075736520747B
:105A50006865207374796C757320636C69636B205F
:105A60007468652063726F7373206F6E207468654D
:105A70002073637265656E2E5468652063726F7360
:105A8000732077696C6C20616C77617973206D6F1E
:105A9000766520756E74696C207468652073637216
:105AA00065656E2061646A7573746D656E742069D6
:105AB0007320636F6D706C657465642E0000000068
:105AC000E05A00080000002044010000820800089D
:105AD0005C5B000844010020A4170000243D00087E
