:020000040800F2
:10000000E81800204501000869340008FD100008C8
:1000100065340008C10800089B4D0008000000007E
:10002000000000000000000000000000D9370008B8
:10003000C508000800000000F1340008ED38000891
:100040005F0100085F0100085F0100085F01000810
:100050005F0100085F0100085F0100085F01000800
:100060005F0100085F0100085F0100085F010008F0
:100070005F0100085F0100085F0100085F010008E0
:100080005F0100085F0100085F0100085F010008D0
:100090005F0100085F0100085F0100085F010008C0
:1000A0005F0100085F0100085F0100085F010008B0
:1000B0005F010008513900085F0100085F01000876
:1000C0005F0100085F0100085F0100085F01000890
:1000D0005F010008D94B00085F0100085F010008BC
:1000E0005F0100085F0100085F0100085F01000870
:1000F0005F0100085F0100085F0100085F01000860
:100100005F0100085F0100085F0100085F0100084F
:100110005F0100085F0100085F0100085F0100083F
:100120005F0100085F0100085F0100085F0100082F
:10013000DFF80CD000F078FB0048004701520008BF
:10014000E81800200648804706480047FEE7FEE71B
:10015000FEE7FEE7FEE7FEE7FEE7FEE7FEE7FEE777
:10016000F138000831010008F0B480EA0102D40F30
:100170004200B2EB410F02D20246084611464A0045
:1001800042D0C30DDDB2C1F3C752AD1A202D35DA0E
:10019000C1F3160141F4000204B15242C5F1200638
:1001A00002FA06F12A411044B3EBD05F23D0C4B168
:1001B000012DA0EBC35009DCF0BC4FF0004202EA75
:1001C000C352DBB200F5000000F051BA400000F16C
:1001D000807000EBC350A0F1807040EAD1704900FC
:1001E00009E0490841EAC071A0EBC35000F50000E6
:1001F000400800EBC350F0BC00F030BA614201226D
:1002000002EB4101001BF6E7F0BC704781F00041B2
:10021000AAE780F00040A7E780EA010210B502F0EB
:100220000043400022D04A001FD0010E01EB1261B2
:10023000C0F35600C2F3560240F4000042F400023C
:10024000A0FB022000047F39140400D0401C50EAB7
:10025000124001D44000491EC2B20C0604EBD0107B
:10026000401C4008802A02D003E0002010BD20F08E
:100270000100002900DA0020184310BD30B480EAE4
:10028000010202F0004530F0004221F0004013D09E
:1002900090B1C30DD40DC2F31601C0F31600E41AD9
:1002A00041F4000140F400027D34914201D3641C0A
:1002B00000E04900002C02DA30BC002070474FF407
:1002C00000000023914201D3891A034340084FEAFA
:1002D0004101F7D151B1914202D14FF0004105E007
:1002E00002D24FF0010101E06FF0010103EBC450B5
:1002F000284430BC00F0B2B92DE9FE4F81EA030476
:1003000004F0004421F0004100944FF0000B23F072
:10031000004350EA01045ED052EA03045BD0C3F309
:100320000A54C1F30A552C44A4F2F3340194A0FBFF
:100330000254C1F3130141F48011C3F3130343F4D6
:10034000801301FB024400FB034E840A970A44EA2F
:10035000815447EA8357A4FB076802958D0A05FB81
:1003600007854FEA932C04FB0C542705029D4FEAA6
:10037000065847EA1637B5EB08056EEB070C870EF3
:10038000920E47EA811742EA8312A7FB0201B6EBFD
:100390000B0164EB00042B0D43EA0C335E1844EBB5
:1003A0001C50DA465146E7FB0201C5F313044FEA3D
:1003B0000B3343EA14534FEA0432019C43EA060329
:1003C000A4F10C040294009CCDE900B400F08CF977
:1003D00003B0BDE8F08F00200146F9E72DE9F04DAC
:1003E00081EA030404F0004B21F0004514464FF06D
:1003F000000A23F0004150EA050220D054EA01022D
:100400001DD0C5F30A570246C5F31303C1F3130009
:10041000C1F30A5640F4801543F48013A7EB060895
:10042000101BD64608F2FD3873EB050002D308F125
:10043000010801E092185B41B8F1000F03DA0020D7
:100440000146BDE8F08D00204FF480110646844639
:100450000EE0171B73EB050705D3121B63EB0503B7
:1004600006434CEA010C49084FEA300092185B4100
:1004700050EA0107EDD152EA030012D082EA0400EB
:1004800083EA0501084305D0101BAB4106D20122C7
:10049000002306E000224FF0004302E06FF001026B
:1004A00053101AEB06004CEB085110EB0A0041EB1D
:1004B0000B01BDE8F04D00F008B9C10F80EAE07013
:1004C0000844CA079623002100F0D1B896230022E1
:1004D000114600F0CCB80EB540F233410291002134
:1004E000CDE900110A460B4600F0FEF803B000BD4E
:1004F00000F0004220F00040C10DC0F3160040F4AF
:1005000000007F2901DA00207047962903DCC1F141
:100510009601C84001E096398840002AF4D0404254
:10052000704720F00040C10DC0F3160040F40000F9
:100530007F2901DA00207047962903DCC1F196017A
:10054000C8407047963988407047C1F30A5210B5C9
:10055000C1F3130140F2FF3341F480119A4201DAF2
:10056000002010BD40F233439A42A2F2334203DC32
:10057000524200F063F810BD904010BD00F0004200
:1005800030F000400AD0C10D01F56071C0F31600D3
:1005900042EA0151C208400711437047002001465A
:1005A0007047000030B5041E71F1000404DB4FF009
:1005B0000044404264EB0101141E73F1000405DBAA
:1005C0001C464FF00043524263EB04038B4208BFCA
:1005D000824230BD30B5041E71F1000404DB4FF0DF
:1005E0000044404264EB0101141E73F1000405DB7A
:1005F0001C464FF00043524263EB0403994208BF8C
:10060000904230BD01F0004330B421F0004150EA87
:10061000010206D00A0DA2F56072C1F31301002A8F
:1006200002DC30BC00207047440F44EAC104C10022
:10063000E01830BC00EBC25000F010B8202A04DBF8
:10064000203A21FA02F00021704721FA02F3D0404B
:10065000C2F1200291400843194670470029A8BF03
:100660007047401C490008BF20F00100704710B4DB
:10067000B0FA80FC00FA0CF050EA010404BF10BC90
:10068000704749B1CCF1200421FA04F411FA0CF1BD
:1006900018BF012121430843A3EB0C01CB1D4FEAF6
:1006A00000614FEA102042BF002010BC704700EBF1
:1006B000C35010440029A4BF10BC7047401C49001F
:1006C00008BF20F0010010BC704710B5141E73F174
:1006D000000408DA401C41F1000192185B411A4302
:1006E00001D120F0010010BD2DE9F04D92469B464E
:1006F00011B1B1FA81F202E0B0FA80F220329046F4
:1007000000F0A4F804460F4640EA0A0041EA0B0153
:1007100053465A46084313D0114653EA010019D0F4
:10072000C8F140025046FFF789FF05460E46504685
:100730005946424600F08AF8084305D0012004E0FB
:1007400020463946BDE8F08D0020054346EAE076B4
:100750002C4337430A986305E40AA0EB0800002203
:10076000FD0A44EA47540A3002D500200146E9E771
:10077000010510196941DDE9084500196941BDE825
:10078000F04DA2E72DE9F04D00231A461B1A8A41CD
:1007900003DB00200146BDE8F08DC1F30A52C1F32E
:1007A000130141F480154FF0000BD10702D100185E
:1007B0006D41521E0027044640F2FF11384601EBFE
:1007C000620A3E468046024600204FF48011FFF741
:1007D00035FFC2197141BB1846EB0100B4EB030CA5
:1007E00075EB000C04D3E41A65EB000517460E46C2
:1007F000241908F101006D4180463428E3DDF91920
:1008000046EB0600091BA84103D24FF0FF32134606
:1008100001E0002213461BEB070046EB0A51BDE83E
:10082000F04DFFF752BF0000064C074D06E0E068B0
:1008300040F0010394E8070098471034AC42F6D327
:10084000FFF77AFC4079000860790008202A04DB71
:10085000203A00FA02F1002070479140C2F12003D3
:1008600020FA03F319439040704770B58C1810F8C4
:10087000015B15F0070301D110F8013B2A1106D1E5
:1008800010F8012B03E010F8016B01F8016B5B1EFF
:10089000F9D12B0705D40023521E0DD401F8013BDA
:1008A000FAE710F8013BCB1A921C03E013F8015B46
:1008B00001F8015B521EF9D5A142D8D3002070BDCA
:1008C00000BFFEE7704700002DE9F04385B0044605
:1008D0000D4617461E460E480088001B1FFA80F87A
:1008E0000B484088401B1FFA80F9002009490988FD
:1008F00010224B46CDE901270096CDE90310424670
:100900002946204600F0ECFA05B0BDE8F08300006F
:10091000480100201600002051B18200A2F1C0421F
:10092000126842F001038200A2F1C042136009E0A4
:100930008200A2F1C0421268034B1A408300A3F167
:10094000C0431A6070470000FEFF0F00D0E901129B
:100950001143C2681143026911434269114382691C
:100960001143C2691143026A1143426A1143826A08
:100970001143C26A1143026B114302689200A2F153
:10098000C0421160816808290BD101688900A1F17A
:10099000C041096841F0400201688900A1F1C041ED
:1009A0000A60416B0968426B526841EA0211426B6E
:1009B000926841EA0221426B928941EA0241426B0C
:1009C000128A41EA0251426B127D41EA0261426B96
:1009D000926911430268521C9200A2F1C042116058
:1009E000C16AB1F5804F1BD1816B0968826B526877
:1009F00041EA0211826B926841EA0221826B128AFB
:100A000041EA0251826B127D41EA0261826B926976
:100A1000114302689200A2F1C042C2F8041107E03B
:100A20006FF0704201688900A1F1C041C1F8042152
:100A3000704700002DE9F04106460C4617464FF47A
:100A40000061144800F058FB052000F0B2FA0320C2
:100A500000F022F8C4F3074000F01EF8C4F30720AA
:100A600000F01AF8E0B200F017F8002505E0FF20CA
:100A700000F012F87055681C85B2BD42F7DB4FF4E8
:100A80000061044800F036FB052000F092FABDE852
:100A9000F0810000001C014070B5044600251EE0F6
:100AA00004F08000802804D18100114800F024FB6C
:100AB00004E04FF400710E4800F01CFB02210D48C9
:100AC00000F018FB6006040E04210A4800F009FB40
:100AD00004430221074800F00FFB681CC5B2082D33
:100AE000DEDB0221034800F007FB204670BD00005A
:100AF000001C0140000C01402DE9F04707468846E4
:100B000091461C463E78B9F1200F1ED009DCB9F1A0
:100B10000C0F0DD0B9F1100F0FD0B9F1180F20D173
:100B20000FE0B9F1300F14D0B9F1400F19D114E032
:100B300006FB04F000F5002515E00F4806FB040550
:100B400011E00E4806FB04050DE00D4806FB040508
:100B500009E00C4806FB040505E00B4806FB04050C
:100B600001E0BDE8F08700BF224629464046FFF776
:100B700061FF00BFF5E70000000808000012080050
:100B80000026080000480800009208002DE9FF5FD9
:100B900082460F4698469AF800900AF10100824674
:100BA0000478B9F1810F06DB402C04DBFF2C02D066
:100BB000B9F1FF0F0DD14FF0000B06E0002007F850
:100BC000010B0BF101001FFA80FBC345F6DBBDE80A
:100BD000FF9F7F2C03DAA4F14000C4B202E0A4F12D
:100BE0004100C4B2A9F1810000F0FF09BE2000FB62
:100BF000094000FB08F502980C2806D0102807D001
:100C0000182808D020280CD108E00A482E1809E03E
:100C100009482E1806E005F5ED1603E005F5601607
:100C200000E0D4E700BF424631463846FFF702FFF6
:100C300000BFCCE70014090000DD110008B5012158
:100C4000882002F077FC0220ADF8000010208DF81B
:100C5000030003208DF802006946114800F0B6F940
:100C60000420ADF8000048208DF8030069460C48C8
:100C700000F0ACF94FF42060ADF8000010208DF8C2
:100C8000030003208DF802006946064800F09EF933
:100C90000221034800F030FA00F006F808BD000019
:100CA000000C0140001C014010B586B04FF6FF70EB
:100CB00000F016FB002404E000200DF80400601C86
:100CC000C4B2182CF8DB112200216846FFF7B2FEEF
:100CD0006B464FF4784210210846FFF7F5FD0024DB
:100CE00004E000200DF80400601CC4B2182CF8DBEE
:100CF000082214216846FFF79DFE6B464FF47842A8
:100D000020211020FFF7E0FD002404E000200DF872
:100D10000400601CC4B2182CF8DB08221E216846AF
:100D2000FFF788FE6B464FF4784230211020FFF722
:100D3000CBFDC82004F018FA06B010BD2DE9FF4F16
:100D4000C1B080460D461C46AB462046E31704EB77
:100D50005373DB1021464FEAE47C04EB5C7C4FEAE2
:100D6000EC0CA4EBCC0CBCF1000F02D04FF0010C4A
:100D700001E04FF0000C6344224604EBD27C4FEAC2
:100D80006C0C03FB0CF39FB20C2C0CD0102C0AD073
:100D9000182C08D0202C06D0302C04D0402C02D0A7
:100DA00045B0BDE8F08F3B46224601A94398FFF7C6
:100DB000A3FE00262FE001A810F806904FF0000ACD
:100DC00023E009F0800028B1294640464E9A00F001
:100DD000C5FB06E0509820B9294640464F9A00F0DE
:100DE000BDFB4FEA49604FEA1069681C85B2A5EB6C
:100DF0000B00A04205D15D4608F101001FFA80F802
:100E000006E00AF101001FFA80FABAF1080FD8DBF8
:100E100000BF701C86B2BE42CDDB00BFC0E72DE92B
:100E2000FF4FA1B080460D461C46AB462046E21758
:100E300004EB5272D2102146E31704EB5373DB101C
:100E4000A4EBC3030BB1012300E000231A44624367
:100E500097B20C2C08D0102C06D0182C04D0202CC3
:100E600002D025B0BDE8F08F3B46224601A9239869
:100E7000FFF78CFE00262FE001A810F806904FF037
:100E8000000A23E009F0800028B1294640462E9A46
:100E900000F064FB06E0309820B9294640462F9ABE
:100EA00000F05CFB4FEA49604FEA1069681C85B2AC
:100EB000A5EB0B00A04205D15D4608F101001FFA29
:100EC00080F806E00AF1010000F0FF0ABAF1080F0D
:100ED000D8DB00BF701CC6B2BE42CDDB00BFC0E78E
:100EE0002DE9F04F85B007460D4691469A46DDE95B
:100EF0000F4B0E9EB84604950020039052E00398D5
:100F000088BB3078802802DD012003904AE004EBA2
:100F1000D47108EB0902A2EB6101B94202DA281987
:100F200085B2474604985044001BA84200DA3CE0D2
:100F300030780D2804D1281985B24746761C0AE07E
:100F4000DDE9111023463246CDE900B10290294671
:100F50003846FFF7F3FE761C204604EBD07107EB12
:100F600061018FB21EE0FFE70020039008EB09004B
:100F7000001BB84202DA281985B24746049850444B
:100F8000001BA84200DA10E0DDE9110123463246D9
:100F9000CDE900B0029129463846FFF740FFB61C64
:100FA000381987B230780028A9D100BF05B0BDE854
:100FB000F08F002107E0002201E0531CDAB2642A1E
:100FC000FBDB4B1CD9B28142F5DB70472DE9F041C8
:100FD000024600250026002000230024002791F867
:100FE00003C00CF00F0591F803C00CF0100CBCF11D
:100FF000000F03D091F802C04CEA050591F800C03B
:10100000BCF1000F31D0146800202BE04FF0010C30
:101010000CFA00F3B1F800C00CEA03069E4220D19E
:1010200083004FF00F0C0CFA03F7BC4305FA03FCE6
:101030004CEA040491F803C0BCF1280F06D14FF02C
:10104000010C0CFA00FCC2F814C00AE091F803C0CD
:10105000BCF1480F05D14FF0010C0CFA00FCC2F8AE
:1010600010C0401C0828D1D31460B1F800C0BCF1F6
:10107000FF0F34DD546800202EE000F1080C4FF023
:10108000010808FA0CF3B1F800C00CEA03069E420E
:1010900021D183004FF00F0C0CFA03F7BC4305FA83
:1010A00003FC4CEA040491F803C0BCF1280F05D1FD
:1010B00000F1080C08FA0CF8C2F8148091F803C08B
:1010C000BCF1480F07D100F1080C4FF0010808FAF5
:1010D0000CF8C2F81080401C0828CED35460BDE83C
:1010E000F0810246002093680B400BB1012000E024
:1010F00000207047416170470161704700BFFEE703
:1011000008B50121102002F015FA0320ADF8000007
:1011100010208DF8030003208DF802006946044872
:10112000FFF754FF03210248FFF7E6FF08BD000068
:101130000010014070B504461848006820F0F00027
:10114000164908600846006840F03000086000203A
:101150001349086000251EE0E00920B10120104974
:10116000091D086003E000200D49091D08606006A4
:10117000040E022004F01EF8012009490860022034
:1011800004F018F800200749C1F88001022004F09B
:1011900011F8681CC5B2082DDEDB70BD00100140DF
:1011A000800122420000224210B50F48006820F062
:1011B000F0000D4908600846006840F03000086003
:1011C00001200A4908600A49C1F88001042003F09F
:1011D000F1FF002005490860042003F0EBFF002028
:1011E0000349C1F8800110BD001001408401224272
:1011F0000000224210B50F48006820F0F0000D49B1
:1012000008600846006840F03000086000200A4985
:1012100008600A49C1F88401042003F0CBFF0120D3
:10122000054908600549C1F88401042003F0C2FFA4
:1012300010BD000000100140800122420000224247
:1012400010B500241448006820F0F000124908602E
:101250000846006840F08000086001200F490860DF
:1012600003F0A8FF01200E49C1F8800103F0A2FF9E
:1012700007E0601CC4B2FA2C03DDFFF7BBFF0120BE
:1012800010BD0648803800680028F2D10349091FC4
:10129000086000BFF4E70000001001408401224212
:1012A0000000224208B50121442002F043F9182031
:1012B000ADF8000048208DF8030069460648FFF7A6
:1012C00085FE0120ADF8000028208DF80300694656
:1012D0000248FFF77BFE08BD0018014000080140EE
:1012E00070B5044600250D48438802880021084651
:1012F00000F0E8FB094800880849498800FB01F62E
:101300000021084600F0BEFB00F02EFD00BF02E009
:10131000034804806D1CB542FAD370BD480100201B
:101320000008006C30B505467DB900202B49887156
:10133000F02008804FF4A07048802C2008812A20DB
:1013400048812B208881002444E0012D0FD100200A
:1013500022498871F02008804FF4A07048802C202A
:1013600008812A2048812B208881032432E0022D25
:101370000FD10120194988714FF4A0700880F02026
:1013800048802C2008812A2048812B208881052430
:1013900020E0032D0FD10120104988714FF4A07077
:1013A0000880F02048802C2008812A2048812B20AA
:1013B000888106240EE0002008498871F02008800A
:1013C0004FF4A07048802C2008812A2048812B20CF
:1013D00088810024204600F0F5FA30BD4801002045
:1013E0002DE9FF4F84B081468A4600200290834653
:1013F0000698A0EB09050798A0EB0A06CDF8049023
:10140000CDF800A0002D01DD012705E00DB9002772
:1014100002E04FF0FF376D42002E02DD4FF0010871
:1014200006E016B94FF0000802E04FF0FF387642B0
:10143000B54201DD2C4600E03446002003901EE05A
:10144000009A91B2019A90B2119A00F087F802982E
:1014500028440290B3440298A04205DD0298001B84
:101460000290019838440190A34504DDABEB040BD6
:101470000098404400900398401C80B20390611C87
:1014800003988842DCDD08B0BDE8F08F30B5044633
:101490000D462946204600F0F5FA00F065FC0248AA
:1014A00000880249088030BD140000200008006C4C
:1014B0002DE9F04706460F4690469A4600244546D9
:1014C0000320A0EB480944E07A1B91B2321990B294
:1014D000524600F043F83A1B91B2721990B252464C
:1014E00000F03CF83A1991B2721990B2524600F0ED
:1014F00035F87A1991B2321990B2524600F02EF8AE
:101500007A1991B2321B90B2524600F027F83A197C
:1015100091B2721B90B2524600F020F87A1B91B241
:10152000321B90B2524600F019F83A1B91B2721B6E
:1015300090B2524600F012F8641CB9F1000F03DAC1
:10154000A000801D814404E0601B80000A308144BB
:101550006D1EAC42B8DDBDE8F087000010B5034653
:101560000C461048808849F24131884219D10D4912
:10157000488900F0F3FB181200F0EAFBD8B200F043
:10158000E7FB0849888900F0E9FB201200F0E0FB46
:10159000E0B200F0DDFB0348008903490880881CA5
:1015A000028010BD48010020FE07006C00B59FB00E
:1015B0000121080201F09EFF01214FF4B47001F0F7
:1015C000B9FF0120ADF8780010208DF87B000320D2
:1015D0008DF87A001EA9E448FFF7F8FC4CF233704E
:1015E000ADF8780018208DF87B0003208DF87A0084
:1015F0001EA9DE48FFF7EAFC4FF68070ADF87800D0
:1016000018208DF87B0003208DF87A001EA9D84899
:10161000FFF7DCFC41F20100ADF8780018208DF8EE
:101620007B0003208DF87A001EA9D248FFF7CEFC7C
:1016300001200890002009900F200A9000200B90B4
:101640000C900D900E9001900290032003900020CA
:10165000049005900690079006200F9000201090AF
:101660001190102012900020139015901490169055
:1016700017904FF480501890002019904FF480403C
:101680001A9000201B9008A81C9001A81D900FA87C
:10169000FFF75CF901210620FFF73EF9322003F045
:1016A00063FD002000F082F9B349888008468088F5
:1016B000FF280ADB084680884FF6FF71884204D075
:1016C000AD488088B0F5134F25D1D32000F046FBFC
:1016D00000F062F9A849888000F05EF9A649888088
:1016E00000F05AF9A4498880084680884FF6FF71B7
:1016F00001EA0020A049888000F04EF99E498988BF
:1017000008439D4988800846808849F241318842D3
:1017100001D01FB000BD9848808849F2413188420D
:101720007ED1CF2000F01AFB002000F011FBC12079
:1017300000F00EFB302000F00BFBED2000F00EFB64
:10174000642000F005FB032000F002FB122000F0F3
:10175000FFFA812000F0FCFAE82000F0FFFA852073
:1017600000F0F6FA102000F0F3FA7A2000F0F0FA18
:10177000CB2000F0F3FA392000F0EAFA2C2000F038
:10178000E7FA002000F0E4FA342000F0E1FA022049
:1017900000F0DEFAF72000F0E1FA202000F0D8FA9D
:1017A000EA2000F0DBFA002000F0D2FA002000F07E
:1017B000CFFAC02000F0D2FA1B2000F0C9FAC120F5
:1017C00000F0CCFA012000F0C3FAC52000F0C6FA00
:1017D000302000F0BDFA302000F0BAFAC72000F047
:1017E000BDFAB72000F0B4FA362000F0B7FA48206E
:1017F00000F0AEFA3A2000F0B1FA552000F0A8FA55
:10180000B12000F0ABFA002000F0A2FA1A2000F09C
:101810009FFAB62000F0A2FA0A2000F099FA00E040
:1018200095E0A22000F094FAF22000F097FA002050
:1018300000F08EFA262000F091FA012000F088FADC
:10184000E02000F08BFA0F2000F082FA2A2000F04E
:101850007FFA282000F07CFA082000F079FA0E20A8
:1018600000F076FA082000F073FA542000F070FAC5
:10187000A92000F06DFA432000F06AFA0A2000F077
:1018800067FA0F2000F064FA002000F061FA0020EF
:1018900000F05EFA002000F05BFA002000F058FA39
:1018A000E12000F05BFA002000F052FA152000F071
:1018B0004FFA172000F04CFA072000F049FA1120E7
:1018C00000F046FA062000F043FA2B2000F040FA20
:1018D000562000F03DFA3C2000F03AFA052000F0D6
:1018E00037FA102000F034FA0F2000F031FA3F20D0
:1018F00000F02EFA3F2000F02BFA0F2000F028FA1B
:101900002B2000F02BFA002000F022FA002000F03B
:101910001FFA012000F01CFA3F2000F019FA2A20DB
:1019200000F01CFA002000F013FA002000F010FA7A
:10193000002000F00DFAEF2000F00AFA112000F06C
:101940000DFA782003F010FC292000F007FA03209C
:10195000FFF7E8FC0120094908604FF6FF70FFF728
:10196000BFFC00BFD5E60000000C014000140140A0
:1019700000180140002001404801002080812142E0
:1019800010B50246012000E050430B1EA1F10104F6
:10199000E1B2F9D110BD000008B5034800880090FD
:1019A000BDF8000008BD00000008006C10B504463A
:1019B000204600F0D3F9052003F0FCFBFFF7ECFF15
:1019C00010BD000010B5044600232D48808849F260
:1019D0004131884252D1082C1CD2DFE804F00406C1
:1019E000090C0F12151800BF14E043F0800311E03A
:1019F00043F040030EE043F0C0030BE043F020034C
:101A000008E043F0600305E043F0A00302E043F088
:101A1000E00300BF00BF43F00801362000F0AEF93C
:101A20001749488900F09AF9002000F091F9002048
:101A300000F08EF912490988491EC1F30F2000F009
:101A400087F90F490978491EC8B200F081F90C499D
:101A5000888900F083F9002000F07AF9002000F076
:101A600077F907494988491EC1F30F2000F070F942
:101A700003498978491EC8B200F06AF910BD000018
:101A80004801002000B502460B460D48808849F207
:101A90004131884213D10A49488900F05FF9101298
:101AA00000F056F9D0B200F053F90549888900F0EA
:101AB00055F9181200F04CF9D8B200F049F900BD00
:101AC00048010020F0B504460D46A018401E86B21D
:101AD000E818401E87B21348808849F24131884295
:101AE0001FD11049488900F039F9201200F030F96F
:101AF000E0B200F02DF9301200F02AF9F0B200F057
:101B000027F90849888900F029F9281200F020F9FE
:101B1000E8B200F01DF9381200F01AF9F8B200F03E
:101B200017F9F0BD480100202DE9F84F80460E4618
:101B300017461C46B3462046E31704EB5373DB10ED
:101B400021464FEAE47C04EB5C7C4FEAEC0CA4EB0E
:101B5000CC0CBCF1000F02D04FF0010C01E04FF0B3
:101B6000000C6344224604EBD27C4FEA6C0C03FB6E
:101B70000CF3DBB20093A7F12000C7B2002555E0BB
:101B80000C2C07D107EB47002B4901EB800010F824
:101B9000059013E0102C05D1284800EB071010F831
:101BA00005900BE0182C07D107EBC700244901EB87
:101BB000800010F8059001E0BDE8F88F4FF0000AB2
:101BC0002EE009F0800028B1314640460A9AFFF71E
:101BD000C5FC07E00B9828B91A48028831464046F0
:101BE000FFF7BCFC4FEA49604FEA1069701C86B2EF
:101BF00015484088B04200DCDEE7A6EB0B00A042AF
:101C00000AD15E4608F101001FFA80F80E480088EC
:101C1000404500DCD0E706E00AF1010000F0FF0AD1
:101C2000BAF1080FCDDB00BF681CC5B20098854231
:101C3000A6DB00BFC0E700003C540008B058000815
:101C4000A05E000816000020480100202DE9FF4F8B
:101C500083B0074691461E46DDE9105A00200290E7
:101C600000243AE0301B401EC1B20A20FFF788FE74
:101C7000B9FBF0F00A21B0FBF1F201FB1208029867
:101C8000B8B9701EA04214DDB8F1000F0FD10020CA
:101C9000AB4605EBDB71491001FB0471CDE900A0F7
:101CA00088B22B4620220499FFF73EFF13E0012063
:101CB00002900020AB4605EBDB71491001FB04717B
:101CC000CDE900A088B208F13001CAB22B460499D0
:101CD000FFF72AFF00BF601CC4B2B442C2DB07B0EA
:101CE000BDE8F08F2DE9FC4F04460D46904699461D
:101CF000DDE90CA70B9E04F0FF0B08EB04001FFAB4
:101D000080F809EB05001FFA80F917E0444502DB73
:101D10005C46A81985B24D4500DB15E00020CDE9F1
:101D200000A03A78334629462046FFF7FDFE3046AC
:101D300006EBD07104EB61018CB27F1C38787E28F1
:101D400002DC38782028E1DA00BFBDE8FC8F000013
:101D500001490880704700000008006C01490880B4
:101D600070470000FE07006C0248008902490880A5
:101D70007047000048010020FE07006C024A1080F6
:101D8000921C118070470000FE07006C08B501210D
:101D9000482001F0CFFB2020ADF8000010208DF886
:101DA000030003208DF8020069460948FFF70EF989
:101DB00020210748FFF7A0F92020ADF80000694670
:101DC0000448FFF703F920210248FFF795F908BD01
:101DD000000C014000180140014609B9002070477D
:101DE00040F20110A1F806010020A1F80401A1F8B9
:101DF0000201012081F8080100BFF0E710B5044698
:101E00000648006800B910BD0448006821464268D1
:101E100002480068904700BFF5E70000400100203D
:101E200010B50648006800B910BD04480068C168D4
:101E300002480068884700BFF6E700004001002024
:101E4000014609B900207047B1F90401B1F9022136
:101E5000801AB1F80621104490FBF2F302FB130044
:101E600080B2F0E700B970470021A0F80411A0F893
:101E7000021100BFF7E700002DE9FF4104460F46BD
:101E800015461E461648A04201D0BDE8FF81012E2E
:101E900006D0022E0FD0032E0ED0042E1DD11BE033
:101EA0006B462A463946204600F0ADFABDF80000E0
:101EB000ADF8000011E010E0082D01DA284600E03E
:101EC000082002466B463946204600F04DFCBDF81E
:101ED0000000ADF8000000E000BF00BF00BFD4E785
:101EE0005811002070B5049C064D286000B970BDE3
:101EF000054D044E36683560044D024E3668B560B7
:101F000000BFF4E73C010020371F0008351F000820
:101F100010B504460648006800B910BD04480068C2
:101F20002146426802480068904700BFF5E700007C
:101F30003C010020704770B504460D4629462046F6
:101F400003F062FA70BD000010B50648006800B9E1
:101F500010BD04480068C16802480068884700BF97
:101F6000F6E700003C0100200EB500200121082208
:101F70004FF4E133CDE9002102900A46124913489B
:101F800000F032F81249134801F04EFB08B9002066
:101F90000EBD11490F4801F047FB08B90020F7E7D3
:101FA0000E490C4801F040FB08B90020F0E70C494D
:101FB000084801F039FB08B90020E9E7094903485E
:101FC00000F01BFD0120E3E7E51E0008581100208A
:101FD000BC000020841400201C0100200801002007
:101FE00030010020791E00082DE9F04F89B0044629
:101FF0000F4693469846139D14B909B0BDE8F08F7B
:1020000004F11400FFF7E8FE04F58F70FFF7E4FE1B
:1020100084F828B20020A4F82A03002606E0002154
:1020200004F54B7040F82610701CC6B2142EF6DB77
:102030004148E0604148606000202060A06020616D
:10204000401EC4F87C030004C4F88403C4F8800371
:102050004046FEF73BFA0190FEF790FA02460B4627
:10206000CDE9020100203649FEF7B8F90022354BD0
:10207000CDE90401FEF740F9CDE90601FEF7C2FA09
:1020800081464FF0000A149909B1012200E00022B4
:1020900012995018FEF711FA49460690FEF7BCF85F
:1020A0000790FEF73EFA1FFA80FA65B95046FEF730
:1020B0000DFA49460690FEF757F80790FEF731FAF9
:1020C0001FFA80FA27E0012D12D14FF07F514846C8
:1020D000FEF7A2F806905046FEF7F8F9059006992B
:1020E000FEF742F80790FEF71CFA1FFA80FA12E09A
:1020F000022D10D169074846FEF78EF8069050462B
:10210000FEF7E4F905900699FEF72EF80790FEF722
:1021100008FA1FFA80FAA4F888A34FF6FF70A4F813
:102120008A0337B114982B46009041462046129AF4
:10213000B84700BF61E70000052A000837280008FB
:102140000000F03F006AF84010B5034800F006F8C0
:1021500000F0C0FC10BD0000581100202DE9FE4326
:1021600004460CB9BDE8FE8304F5607003C8401A4C
:10217000B4F88813884200D2F4E7204600F0CEFB82
:10218000064606B9EEE794F8290294F82812884228
:1021900000D098E040F22A20005D01281BDB40F2CD
:1021A0002A20005D042816DC4FF40B70015D401EF0
:1021B000005D41EA002540F22E20015D401E005DD9
:1021C00041EA002740F22A20035D3A46294620468C
:1021D00000F027F971E040F22A20005D052804D0C4
:1021E00040F22A20005D06281BD14FF40B70015DE0
:1021F000401E005D41EA002540F22E20015D401E98
:10220000005D41EA00200290022002A9CDE9001001
:1022100040F22A20035D01222946204600F0CBFD32
:102220004BE040F22A20005D0F2804D040F22A2023
:10223000005D102841D14FF40B70015D401E005D20
:1022400041EA002840F22E20015D401E005D41EA77
:10225000002540F22F20075D401F005D0F2813D19D
:10226000E91705EB5171C910A5EBC10109B10121B5
:1022700000E0002101EBE501B9420ED003228F21DD
:10228000204600F004FB19E0B7EB450F05D0032210
:102290009021204600F0FBFA10E040F22F20015D73
:1022A00004F50C70CDE9000140F22A20035D2A46B6
:1022B0004146204600F07FFD00BF00BFD4F88003F8
:1022C000C4F8840300BF0020A4F82A0300BF49E734
:1022D0002DE9F04706460D4694461C46089F3346B6
:1022E00013B90020BDE8F087012F03D0022F01D0E1
:1022F0000020F7E7002281E003F54B7050F8220040
:1023000000B979E003F54B7050F822000088A8422C
:1023100071DC03F54B7050F82200018803F54B7017
:1023200050F822000089084405EB0C01884262DB6A
:1023300003F54B7050F82200807AB8425AD103F569
:102340004B7050F822000088281A1FFA80F8414686
:1023500049E003F54B7959F82290D9F804904FEAF7
:10236000211A39F81A904FEAE17A01EB1A7A4FEA0A
:102370002A1AA1EB0A1A49FA0AF909F00109B9F176
:10238000000F17D008464FEAE17901EB59794FEA7F
:10239000E909A1EBC90A4FF0010909FA0AF904EBAE
:1023A000E10A9AF800A049EA0A0904EBE10A8AF86E
:1023B000009016E008464FEAE17901EB59794FEABF
:1023C000E909A1EBC90A4FF0010909FA0AF904EB7E
:1023D000E10A9AF800A02AEA090A04EBE10989F85F
:1023E00000A0481C81B208EB0C008842B1DC01203F
:1023F00078E700E000BF00BF501C82B2142AFFF64D
:102400007BAF00206EE7F8B504460D4616461F4622
:1024100001203B463246294600902046FFF758FFF0
:10242000F8BD2DE9FC5F044689461646984600270C
:1024300014B90020BDE8FC9F002789E104F54B702A
:1024400050F8270000B981E104F54B7050F82700DF
:102450000088484575DC04F54B7050F8270001886A
:1024600004F54B7050F827000089084409EB060179
:10247000884266DBB8F1010F06D104F54B7050F8C5
:102480002700807A012809D0B8F1020F7CD104F529
:102490004B7050F82700807A0228F7D104F54B7072
:1024A00050F827000088A9EB00001FFA80FA0020EE
:1024B0000190009000BFD4F87C03401C0028FAD1A2
:1024C000A06810B10120A16888474FF6FF70A4F8FA
:1024D0008C0394F82812B4F88C0300F079FFA4F868
:1024E0008C0394F82812204600F0C7F9B4F88C0346
:1024F000414600F06DFFA4F88C034146204600F0F1
:10250000BCF9B346F21706EB5272D210A6EBC20228
:10251000002A01DD012200E0002202EBE602D1B236
:10252000B4F88C0300F054FFA4F88C03B346F01702
:1025300006EB5070C010A6EBC000002802DD0120A1
:1025400001E002E1002000EBE600C1B2204600F00D
:1025500094F9554647E0A5EB0A010198B0EBE10F6D
:1025600011D0B4F88C03009900F032FFA4F88C036A
:102570002046009900F081F900200090A5EB0A00A8
:10258000C0F3CF00019000E04DE004F54B7151F82D
:10259000271049682A1131F81210EA1705EB127258
:1025A0001211A5EB0212114101F0010169B1284697
:1025B000E91705EB5171C910A5EBC102012191404A
:1025C000009A1143C9B200910BE02846E91705EBC8
:1025D0005171C910A5EBC10101228A4000999143B4
:1025E0000091681C85B20AEB0600A842B3DCB4F87F
:1025F0008C03009900F0ECFEA4F88C0320460099AF
:1026000000F03BF9022104F563702268904700BF97
:10261000D4F87C03401C0028FAD1A06810B1002037
:10262000A16888478FE0B8F1030F06D104F54B701D
:1026300050F82700807A032809D0B8F1040F7ED122
:1026400004F54B7050F82700807A04287AD14FF0B7
:10265000000A04F54B7050F827000088A9EB000031
:102660001FFA80FB00BFD4F87C03401C0028FAD17D
:10267000A06810B10120A16888474FF6FF70A4F848
:102680008C0394F82812B4F88C0300F0A1FEA4F88F
:102690008C0394F82812204600F0EFF8B4F88C036D
:1026A000414600F095FEA4F88C034146204600F018
:1026B000E4F87206110EB4F88C0300F089FEA4F859
:1026C0008C037006010E204600F0D7F84FF0000A88
:1026D00022E004F54B7050F8270040680BEB6A01CC
:1026E00030F81150290AB4F88C0300F071FEA4F8F8
:1026F0008C03290A204600F0C0F8E9B2B4F88C0334
:1027000000F066FEA4F88C03E9B2204600F0B5F8AC
:102710000AF102001FFA80FABAEB460FD9DB022158
:1027200004F563702268904700BFD4F87C03401C16
:102730000028FAD1A06820B10020A16800E001E0E3
:10274000884700E002E0012074E600BF781C87B2F1
:10275000142FFFF673AE08F18000C1B202222046AA
:1027600000F095F8002065E6F8B504460D461646DB
:102770001F4603203B46324629460090204600F083
:1027800001F8F8BD2DE9F04305460C4617469C4676
:10279000079E2A4612B90020BDE8F083032E03D01D
:1027A000042E01D00020F7E7002140E002F54B7035
:1027B00050F8210000B938E002F54B7050F82100C4
:1027C0000088A04230DC02F54B7050F821000388ED
:1027D00002F54B7050F8210000891844E319984223
:1027E00022DB02F54B7050F82100807AB0421AD1FA
:1027F00002F54B7050F821000088201A1FFA80F86B
:1028000000230CE002F54B7050F82100406808EB03
:10281000030930F819002CF81300581C83B2BB428E
:10282000F0DB0120B8E700BF00BF481C81B21429CB
:10283000BCDB0020B0E770B505460E462C4604B957
:1028400070BD314604F1140000F0EAFD00B9F7E76D
:10285000D4F87C03401C18B94FF6FF70A4F88A0323
:10286000B4F88A03314600F0B3FDA4F88A03D4F823
:102870008003C4F87C0300BFE2E713B5044604B943
:102880001CBD012101A82268904700BFF8E770B580
:1028900004460E46154600BFD4F87C03401C0028B1
:1028A000FAD1A06810B10120A16888474FF6FF70E7
:1028B000A4F88C0394F82812B4F88C0300F088FD77
:1028C000A4F88C0394F828122046FFF7D6FFB4F83A
:1028D0008C03314600F07CFDA4F88C033146204681
:1028E000FFF7CBFFB4F88C03294600F071FDA4F884
:1028F0008C0329462046FFF7C0FF022104F56370D0
:102900002268904700BFD4F87C03401C0028FAD10D
:10291000A06810B10020A168884770BD38B5044692
:102920000CB9002038BD694604F58F7000F05CFDDD
:1029300008B90020F6E79DF80010B4F82A2304F245
:1029400029208154B4F82A0301284ADB40F22A20C6
:10295000005D012813DB40F22A20005D04280EDC14
:10296000B4F82A0305283CDDB4F82A03072838DB2D
:10297000B4F82A03401CA4F82A030120D2E740F24D
:102980002A20005D052804D040F22A20005D062898
:102990000AD1B4F82A03072823DBB4F82A03401C21
:1029A000A4F82A030120BDE740F22A20005D0F2889
:1029B00004D040F22A20005D102812D1B4F82A0376
:1029C00006280EDDB4F82A1340F22F20005D0830EF
:1029D000814206DBB4F82A03401CA4F82A03012034
:1029E000A0E7B4F82A03B0F5807F04DCB4F82A032A
:1029F000401CA4F82A03002094E700B97047016145
:102A000000BFFBE72DE9F84305464FF00008C1463B
:102A10002C460CB9BDE8F883D4F88003401CC4F8F8
:102A20008003D4F88003401C50B9D4F88403C0F16B
:102A3000FF38C4F880830020C4F884034FF00109F4
:102A4000D4F87C03401C00B9E4E7B9F1000F0AD0C8
:102A5000D4F87C13C1F1FF31D4F880030844C4F8E2
:102A60008003C4F87C83D4F87C13D4F88003401A24
:102A7000B4F8881388422AD3B4F88A0340B104F129
:102A80001400FFF7EFF94FF0FF30C4F87C03C1E703
:102A900004F11400FFF7D4F90646002710E0694658
:102AA00004F1140000F0A0FC00B9B3E79DF8001099
:102AB00004F58F7000F0B4FC00B9ABE7781C87B266
:102AC000B742ECDB4FF0FF30C4F87C0300BF00BF1F
:102AD000A0E700001FB5FF2003900B4A07CA8DE84E
:102AE000070003AB05220121084800F056F9BDF8A4
:102AF0000C200B21054800F09CFB6B46052211467B
:102B0000024800F0A1FB1FBDB87800085811002052
:102B10002DE9F04306460C4617461D46334613B9C9
:102B20000020BDE8F083012D03D0022D01D000204C
:102B3000F7E7002178E003F54B7050F8210000B969
:102B400070E003F54B7050F821000088A04268DC6B
:102B500003F54B7050F82100028803F54B7050F8D4
:102B6000210000890244601C82425ADB03F54B704D
:102B700050F82100807AA84252D103F54B7050F8EA
:102B800021000088201A82B22FB303F54B7C5CF839
:102B900021C0DCF804C04FEA22183CF818C01046E7
:102BA0004FEAE27802EB18784FEA2818A2EB0819EE
:102BB0004FF0010808FA09F84CEA080C1FFA8CF8E3
:102BC00003F54B7C5CF821C0DCF804C04FEA221905
:102BD0002CF8198022E003F54B7C5CF821C0DCF86E
:102BE00004C04FEA22183CF818C010464FEAE278B9
:102BF00002EB18784FEA2818A2EB08194FF00108E9
:102C000008FA09F82CEA080C03F54B7858F82180EB
:102C1000D8F804804FEA221928F819C0012080E76B
:102C200000BF00BF481C81B2142984DB002078E774
:102C30002DE9F04F06460D4694469846099F3346C7
:102C400013B90020BDE8F08F012F03D0022F01D06F
:102C50000020F7E700219BE003F54B7050F82100BE
:102C600000B993E003F54B7050F821000088A842AA
:102C70007EDC03F54B7050F82100028803F54B70A1
:102C800050F821000089104405EB0C0290427CDBD7
:102C900003F54B7050F82100807AB84274D103F5E7
:102CA0004B7050F821000088281A84B2002267E097
:102CB000C1464FEAE27A02EB5A7A4FEAEA0AA2EBFD
:102CC000CA0A09EBE20B9BF800B04BFA0AFB0BF0C7
:102CD000010ABAF1000F27D003F54B7A5AF821A068
:102CE000DAF804A004EB020B4FEA2B1B3AF81BA006
:102CF00010194FEAE07B00EB1B7B4FEA2B1BA0EB8C
:102D00000B1E4FF0010B0BFA0EFB4AEA0B0A03F500
:102D10004B7B5BF821B0DBF804B004EB020E4FEA0A
:102D20002E1E2BF81EA029E003F54B7A5AF821A09D
:102D3000DAF804A004EB020B4FEA2B1B3AF81BA0B5
:102D400010194FEAE07B00EB1B7B4FEA2B1BA0EB3B
:102D50000B1E4FF0010B0BFA0EFB2AEA0B0A03F5D0
:102D60004B7B5BF821B0DBF804B004EB020E01E012
:102D70000BE009E04FEA2E1E2BF81EA0501C82B279
:102D8000624595DB01205DE700BF00BF481C81B2B2
:102D90001429FFF661AF002054E7F8B504460D464C
:102DA00016461F4601203B463246294600902046E3
:102DB000FFF73EFFF8BD2DE9FC4704460D461746D8
:102DC0009946DDE90A6A4FF00008B9F1050F09D00C
:102DD000B9F1060F7DD0B9F10F0F7BD0B9F1100F0B
:102DE00079D19CE13088B0F57F4F02D0308800283F
:102DF00072D13088B0F57F4F07D101231A4629469A
:102E00002046FFF785FE804606E001230022294682
:102E10002046FFF77DFE8046B8F1000F74D000BF5A
:102E2000D4F87C03401C0028FAD1A06810B101201E
:102E3000A16888474FF6FF70A4F88C0394F8281215
:102E4000B4F88C0300F0C4FAA4F88C0394F82812A8
:102E50002046FFF712FDB4F88C03494600F0B8FA9B
:102E6000A4F88C0349462046FFF707FD290AB4F869
:102E70008C0300F0ADFAA4F88C03290A2046FFF772
:102E8000FCFCE9B2B4F88C0300F0A2FAA4F88C03BD
:102E9000E9B22046FFF7F1FC3288110AB4F88C033E
:102EA00000F096FAA4F88C033088010A2046FFF758
:102EB000E4FC3178B4F88C0300F08AFAA4F88C03AF
:102EC00031782046FFF7D9FC022104F563702268AF
:102ED00003E0A4E024E0A3E11CE0904700BFD4F8A5
:102EE0007C03401C0028FAD1A06810B10020A16822
:102EF0008847206998B101231A4629462046D4F80C
:102F000010C0E0470BE0FFE7022285212046FFF7D3
:102F1000BEFC04E0032285212046FFF7B8FC7FE1D8
:102F2000012033463A46294600902046FFF780FEAE
:102F30008046B8F1000F6CD000BFD4F87C03401C71
:102F40000028FAD1A06810B10120A16888474FF687
:102F5000FF70A4F88C0394F82812B4F88C0300F0E6
:102F600037FAA4F88C0394F828122046FFF785FC62
:102F7000B4F88C03494600F02BFAA4F88C034946B8
:102F80002046FFF77AFC290AB4F88C0300F020FAF7
:102F9000A4F88C03290A2046FFF76FFCE9B2B4F8C5
:102FA0008C0300F015FAA4F88C03E9B22046FFF771
:102FB00064FC390AB4F88C0300F00AFAA4F88C0314
:102FC000390A2046FFF759FCF9B2B4F88C0300F037
:102FD000FFF9A4F88C03F9B22046FFF74EFC02215A
:102FE00004F563702268904700BFD4F87C03401C4E
:102FF0000028FAD1A06810B10020A1688847206994
:1030000060B101233A4629462046D4F810C0E04773
:1030100004E002228F212046FFF739FC00E13288CC
:1030200003232946204600F01FF98046B8F1000F1F
:103030006FD000BFD4F87C03401C0028FAD1A068F0
:1030400010B10120A16888474FF6FF70A4F88C03E7
:1030500094F82812B4F88C0300F0BAF9A4F88C03A1
:1030600094F828122046FFF708FCB4F88C03494670
:1030700000F0AEF9A4F88C0349462046FFF7FDFBAB
:10308000290AB4F88C0300F0A3F9A4F88C03290AE8
:103090002046FFF7F2FBE9B2B4F88C0300F098F990
:1030A000A4F88C03E9B22046FFF7E7FB3288110A47
:1030B000B4F88C0300F08CF9A4F88C033088010A72
:1030C0002046FFF7DAFB3178B4F88C0300F080F982
:1030D000A4F88C0331782046FFF7CFFB022104F5DA
:1030E00063702268904700BFD4F87C03401C00281E
:1030F000FAD1A06810B10020A1688847206968B1A2
:103100000323012229462046D4F810C0E04705E0F9
:10311000FFE7022286212046FFF7B9FB80E003206B
:10312000012133463A46CDE900102946204600F0F9
:10313000E5F88046B8F1000F6CD000BFD4F87C03EE
:10314000401C0028FAD1A06810B10120A16888476E
:103150004FF6FF70A4F88C0394F82812B4F88C038F
:1031600000F036F9A4F88C0394F828122046FFF7F3
:1031700084FBB4F88C03494600F02AF9A4F88C03C8
:1031800049462046FFF779FB290AB4F88C0300F082
:103190001FF9A4F88C03290A2046FFF76EFBE9B259
:1031A000B4F88C0300F014F9A4F88C03E9B22046BB
:1031B000FFF763FB390AB4F88C0300F009F9A4F8AF
:1031C0008C03390A2046FFF758FBF9B2B4F88C0398
:1031D00000F0FEF8A4F88C03F9B22046FFF74DFB8F
:1031E000022104F563702268904700BFD4F87C0385
:1031F000401C0028FAD1A06810B10020A1688847BF
:10320000206960B103233A4629462046D4F810C00D
:10321000E04704E0022290212046FFF738FB00BF80
:1032200000BFB8F1000F02D10020BDE8FC870120EB
:10323000FBE770B504460D46164603233246294681
:10324000204600F011F870BDFCB504460D46164648
:103250001F46032000213B463246CDE90010294697
:10326000204600F04BF8FCBDF0B505460C4616466E
:103270002A460AB90020F0BD032B03D0042B01D04D
:103280000020F8E7002135E002F54B7050F82100EE
:1032900000B92DE002F54B7050F821000088A042E3
:1032A00025DC02F54B7050F82100078802F54B70C1
:1032B00050F8210000890744601C874217DB02F5A3
:1032C0004B7050F82100807A98420FD102F54B7074
:1032D00050F821000088201A87B202F54B7050F890
:1032E0002100406820F817600120C4E700BF00BF3C
:1032F000481C81B21429C7DB0020BCE72DE9F04F40
:1033000006460D4694461C46DDE90987324612B949
:103310000020BDE8F08F032F03D0042F01D0002040
:10332000F7E7002150E002F54B7050F8210000B99A
:1033300048E002F54B7050F821000088A84240DCBC
:1033400002F54B7050F82100038802F54B7050F8DD
:1033500021000089184405EB0C03984231DB02F58B
:103360004B7050F82100807AB84229D102F54B7099
:1033700050F821000088281A1FFA80F9002300BFA6
:103380001AE0B8F1000F09D014F81300000234F865
:1033900013A040EA1A2024F8130001E034F81300C7
:1033A00002F54B7A5AF821A0DAF804A009EB030BD6
:1033B0002AF81B00581C83B26345E2DB0120A8E712
:1033C00000BF00BF481C81B21429ACDB0020A0E77D
:1033D000024682EA0100C0B2024B33F8100080EAD4
:1033E00022207047B676000810B50246B2F90201F5
:1033F000B2F90431984201D1002010BDB2F90201A6
:10340000401CB2F8063190FBF3F403FB140000B249
:10341000A2F80201B2F90201105C08700120ECE789
:1034200010B50246B2F90401401CB2F8063190FB17
:10343000F3F403FB1400B2F90231984201D10020E9
:1034400010BDB2F90401401CB2F8063190FBF3F450
:1034500003FB140000B2A2F80401B2F904011154F4
:103460000120EDE700BFFEE77047000070B50021C6
:1034700000230F22C47804B3154C246804F4E064DC
:10348000C4F5E064210AC1F10403CA40447804FA97
:1034900003F184781440214309010E4C0678A155AC
:1034A000047804F01F050124AC4005786D11AD00CF
:1034B00005F1E025C5F8004109E0047804F01F0596
:1034C0000124AC40044D0678761145F8264070BDC5
:1034D0000CED00E000E400E080E100E0024901437F
:1034E000024A1160704700000000FA050CED00E090
:1034F0007047000029B1064A52690243044B5A61E1
:1035000004E0034A52698243014B5A61704700004C
:103510000010024029B1064AD2690243044BDA6125
:1035200004E0034AD2698243014BDA61704700002C
:103530000010024029B1064A92690243044B9A6185
:1035400004E0034A92698243014B9A61704700008C
:103550000010024030B500210022002400232D4D30
:103560006D6805F00C0121B1042905D0082923D18B
:1035700005E0294D056022E0274D05601FE0254D3F
:103580006D6805F47012234D6D6805F480340225D2
:1035900005EB92421CB9214D554305600BE01D4DD2
:1035A0006D6805F400351DB11C4D5543056002E002
:1035B000194D5543056002E0174D056000BF00BF7F
:1035C000144D6D6805F0F0010909154D6B5C056837
:1035D000DD4045600F4D6D6805F4E061090A104D4E
:1035E0006B5C4568DD4085600A4D6D6805F460518F
:1035F000C90A0B4D6B5C4568DD40C560054D6D68C3
:1036000005F44041890B074D6B5CC568B5FBF3F5CC
:10361000056130BD0010024000127A0000093D0033
:10362000680000207800002010B502460C460021FA
:1036300013460AB9002010BD002108E053F821000C
:1036400018B943F821400120F5E7481C81B214293C
:10365000F4DB0020EFE7000000B587B0012108206F
:10366000FFF768FF01218803FFF754FF4FF4604024
:10367000ADF8180018208DF81B0003208DF81A00F3
:1036800006A91848FDF7A2FC4FF460411548FDF764
:1036900033FD0020ADF804004FF48270ADF8060051
:1036A0000020ADF808000220ADF80A000120ADF8B6
:1036B0000C004002ADF80E003820ADF810000020DC
:1036C000ADF812000720ADF8140001A9064800F07B
:1036D00065F80121044800F047F8FF2000F006F8E3
:1036E00007B000BD000C01400038004070B5054631
:1036F000002405E0601CC4B2C82C01DD002070BDB0
:1037000002210E4800F03CF80028F3D029460B486F
:1037100000F042F8002405E0601CC4B2C82C01DDB2
:103720000020ECE70121054800F02AF80028F3D03A
:10373000024800F02EF8C0B2E1E700000038004077
:1037400010B50446074800884FF6C7710840054980
:10375000088008460088204308800121014800F0C5
:1037600003F810BD0038004021B1028842F0400249
:10377000028004E002884FF6BF731A40028070474F
:103780000246002013890B400BB1012000E000200D
:1037900070470146888970478181704710B50022C3
:1037A000028802F441520B884C8823438C882343BF
:1037B000CC8823430C8923434C8923438C8923439E
:1037C000CC8923431A430280838B4FF2FF7423403A
:1037D00083830B8A038210BD704710B500F002F896
:1037E00010BD00000CB50020019000903348006827
:1037F00040F480303149086000BF3048006800F470
:10380000003000900198401C0190009818B9019870
:10381000B0F5A06FF1D12948006800F4003010B174
:103820000120009001E0002000900098012843D181
:103830002348006840F010002149086008460068ED
:1038400020F0030008600846006840F002000860AD
:103850001A48406819494860084640684860084668
:10386000406840F4806048600846406820F47C105E
:1038700048600846406840F4E81048600846006820
:1038800040F08070086000BF0C48006800F00070D5
:103890000028F9D00948406820F003000749486033
:1038A0000846406840F00200486000BF0348406896
:1038B00000F00C000828F9D10CBD000000100240F7
:1038C00000200240042808D14FF0E021096941F0AE
:1038D00004014FF0E022116107E04FF0E021096997
:1038E00021F004014FF0E0221161704770470000A1
:1038F00010B51348006840F00100114908600846FF
:103900004068104908400E494860084600680E4962
:1039100008400B4908600846006820F480200860D1
:103920000846406820F4FE0048604FF41F0088609D
:10393000FFF753FF4FF000600449086010BD00001E
:10394000001002400000FFF8FFFFF6FE08ED00E067
:1039500010B50121084800F052F860B10121064875
:1039600000F03EF805480068401C04490860FEF776
:10397000EBFAFEF755FA10BD00040040600000208D
:103980007FB505460C4601210220FFF7C3FDADF8C7
:103990000850ADF804400020ADF80A00ADF806006C
:1039A00001A90E4800F046F8012211460B4800F02C
:1039B00037F81D208DF8000001208DF8010003204C
:1039C0008DF8020001208DF803006846FFF74EFDD8
:1039D0000121024800F007F87FBD0000000400400C
:1039E000CA430282704721B1028842F0010202807C
:1039F00004E002884FF6FE731A400280704730B52B
:103A00000246002000230024158A05EA0103958957
:103A100005EA010413B10CB1012000E0002030BD23
:103A20001AB183890B43838102E083898B438381AD
:103A300070470000002202881D4B98420ED01D4B9B
:103A400098420BD0B0F1804F08D01B4B984205D064
:103A50001A4B984202D01A4B984204D14FF68F73FA
:103A60001A404B881A43174B984207D0164B98427E
:103A700004D04FF6FF431A40CB881A4302808B884C
:103A800083850B8803850A4B98420BD0094B9842DB
:103A900008D00E4B984205D00D4B984202D00D4BEA
:103AA000984201D10B7A038601238382704700007C
:103AB000002C014000340140000400400008004098
:103AC000000C004000100040001400400040014085
:103AD00000440140004801402DE9FE4F04460D46D8
:103AE00017461E46DDE90EABDDE90C894FF4784040
:103AF0007249088072A04FF478411022CDE900216C
:103B00000290704843880288A0212820FEF7EAF836
:103B10006DA04FF478411022CDE900210290694850
:103B200043880288A0217820FEF7DCF867A04FF4D4
:103B300078411022CDE90021029062484388028832
:103B4000B4212820FEF7CEF861A04FF4784110226E
:103B5000CDE9002102905B4843880288B421782097
:103B6000FEF7C0F85BA04FF478411022CDE90021A8
:103B70000290544843880288C8212820FEF7B2F8F2
:103B800055A04FF478411022CDE9002102904D4814
:103B900043880288C8217820FEF7A4F84FA04FF48C
:103BA00078411022CDE900210290464843880288DE
:103BB000DC212820FEF796F849A04FF47841102226
:103BC000CDE9002102903F4843880288DC2178201B
:103BD000FEF788F843A04FF478411022CDE9002188
:103BE0000290384843880288F0212820FEF77AF8AE
:103BF0004FF47840102104232246CDE90010A02183
:103C00004020FEF723F84FF47840102104232A4681
:103C1000CDE90010A0219020FEF718F84FF478406D
:103C2000102104233A46CDE90010B4214020FEF7CC
:103C30000DF84FF47840102104233246CDE90010EE
:103C4000B4219020FEF702F84FF4784010210423AD
:103C50004246CDE90010C8214020FDF7F7FF4FF4A0
:103C60007840102104234A46CDE90010C821902055
:103C7000FDF7ECFF4FF47840102104235246CDE9C4
:103C80000010DC214020FDF7E1FF4FF478401021C7
:103C900004235A46CDE90010DC219020FDF7D6FF21
:103CA0004FF4784010210323CDE90010F02160206B
:103CB000109AFDF7CBFFBDE8FE8F00001400002036
:103CC00078313A004801002079313A0078323A00E0
:103CD00079323A0078333A0079333A0078343A004E
:103CE00079343A006661632069733A0000B597B091
:103CF000002012900B9012901F20FE4908804FF672
:103D0000FF70FD490880FDF7EBFA0020F9490880B3
:103D1000FA480068002110226423CDE900210290B6
:103D2000A02228210846FDF7DDFF00204FF6FF7195
:103D30004FF478421023CDE90132CDE90310F0A011
:103D4000F022C82100900820FDF7CAF800204FF6A5
:103D5000FF714FF478421023CDE90132CDE9031011
:103D6000EDA0F022DC2100900820FDF7B9F84FF417
:103D700078421421084600F039FC0020EC4981F813
:103D80002000486222E2EA4840680A9001200A992D
:103D90008847E74890F8200000F0C00040286FD125
:103DA00000200B90E24890F8200020F04000E0490D
:103DB00081F820000846818913AA129822F8201061
:103DC000DB48C18A129802EB800041801298401CA7
:103DD000C0B212901298012806D0022815D00328EC
:103DE00029D0042810D141E04FF6FF721421084673
:103DF00000F0FCFBCF480088143880B24FF47842C2
:103E000014210A9000F0F2FBCFE3CA48008814386E
:103E100080B24FF6FF7214210A9000F0E7FBC5480C
:103E20004088143880B24FF4784201460A9014203A
:103E300000F0DCFBB9E3BF484088143880B24FF68D
:103E4000FF7201460A90142000F0D0FBB948408868
:103E5000143880B20A90B7480088143880B24FF402
:103E6000784209900A9900F0C1FB9EE3BDF84C002E
:103E7000BDF85010401A0A90002802DB0A9802E0B0
:103E800094E30A9840420F90BDF84E1013A8C088E2
:103E9000081A0A90002801DB0A9801E00A984042BB
:103EA0000E900F9840430F900E9840430E90DDE91E
:103EB0000E1008440590FCF70EFBCDE9060101F059
:103EC0002DFACDE90801FCF740FB80B21190BDF856
:103ED0005400BDF85810401A0A90002801DB0A98D7
:103EE00001E00A9840420F9013A84189C089081A3E
:103EF0000A90002801DB0A9801E00A9840420E90DF
:103F00000F9840430F900E9840430E90DDE90E103D
:103F100008440590FCF7DFFACDE9060101F0FEF94F
:103F2000CDE90801FCF711FB80B210901098FCF766
:103F3000CDFA09901198FCF7C9FA08900999FCF795
:103F40009DF90A90FCF71AFBCDE90C014FF066329F
:103F5000794BDDE90C01FCF725FB0AD3774A784B56
:103F6000DDE90C01FCF736FB03D3119808B110987A
:103F7000F0BB002012906F484088143880B20A903D
:103F80006C480088143880B24FF6FF7209900A9985
:103F900000F02CFB4FF478421421084600F026FB79
:103FA0000022684BDDE90C01FCF7A6F9CDE9080118
:103FB000FCF7CBFA80B213A90A90C989BDF8582042
:103FC00013AB5B89CDE90132CDE90310BDF8540094
:103FD000009013A8C0880990BDF850000890BDF863
:103FE0004E000790BDF84C00069007A90EC900E0EE
:103FF00002E0FFF771FDE8E2BDF84C00BDF8541097
:10400000401A0A90002801DB0A9801E00A98404211
:104010000F90BDF84E1013A84089081A0A90002886
:1040200001DB0A9801E00A9840420E900F98404345
:104030000F900E9840430E90DDE90E100844059055
:10404000FCF749FACDE9060101F068F9CDE908016C
:10405000FCF77BFA80B21190BDF85000BDF8581003
:10406000401A0A90002801DB0A9801E00A984042B1
:104070000F9013A8C188C089081A0A90002801DB94
:104080000A9801E00A9840420E900F9840430F9022
:104090000E9840430E90DDE90E1008440590FCF7A1
:1040A0001AFACDE9060101F039F9CDE90801FCF76A
:1040B0004CFA80B210901098FCF708FA0990119809
:1040C000FCF704FA08900999FCF7D8F80A90FCF775
:1040D00055FACDE90C014FF06632174BDDE90C01C2
:1040E000FCF760FA31D3154A154BDDE90C01FCF7FA
:1040F00071FA29E01400002016000020385400084E
:10410000D0A3D7BCA3BAD2C0B4CEB5E3CBC4BDC78D
:10411000B5C4B5E300000000202020202020BDF819
:10412000D0D0B4A5C3FEC6C1D0A3D7BC0000000048
:1041300020000020480100206666EE3FCDCCCCCCAC
:10414000CCCCF03F0000594041D200201290F948F9
:104150004088143880B20A90F6480088143880B23B
:104160004FF6FF7209900A9900F040FA4FF4784236
:104170001421084600F03AFA0022EF4BDDE90C0169
:10418000FCF7BAF8CDE90801FCF7DFF980B2014687
:104190000A9013A8C289BDF8580013AB5B89CDE91A
:1041A0000130CDE90321BDF85400009013A8C08868
:1041B0000990BDF850000890BDF84E000790BDF87A
:1041C0004C00069007A90EC9FFF786FCFDE1BDF87B
:1041D0005000BDF85410401A0A90002801DB0A98DC
:1041E00001E00A9840420F9013A8C1884089081A3C
:1041F0000A90002801DB0A9801E00A9840420E90DC
:104200000F9840430F900E9840430E90DDE90E103A
:1042100008440590FCF75FF9CDE9060101F07EF84E
:10422000CDE90801FCF791F980B21190BDF84C007E
:10423000BDF85810401A0A90002801DB0A9801E0E6
:104240000A9840420F90BDF84E1013A8C089081A72
:104250000A90002801DB0A9801E00A9840420E907B
:104260000F9840430F900E9840430E90DDE90E10DA
:1042700008440590FCF72FF9CDE9060101F04EF84E
:10428000CDE90801FCF761F980B210901098FCF7B5
:104290001DF909901198FCF719F908900999FBF795
:1042A000EDFF0A90FCF76AF9CDE90C014FF0663298
:1042B000A24BDDE90C01FCF775F906D3A04AA14B2E
:1042C000DDE90C01FCF786F941D2002012909948F3
:1042D0004088143880B20A9096480088143880B21A
:1042E0004FF6FF7209900A9900F080F94FF4784276
:1042F0001421084600F07AF900228F4BDDE90C0109
:10430000FBF7FAFFCDE90801FCF71FF980B201467F
:104310000A9013A8C289BDF8580013AB5B89CDE998
:104320000130CDE90321BDF85400009013A8C088E6
:104330000990BDF850000890BDF84E000790BDF8F8
:104340004C00069007A90EC9FFF7C6FB3DE1BDF87A
:104350005000BDF84C10401A0890FCF7AEF80A90D7
:104360007448008828380890FCF7A7F809900A9943
:10437000FBF784FF74494862BDF85000BDF84C104B
:1043800008440690FCF799F807906F48406A014688
:1043900006900798FBF740FF099066480088079051
:1043A000FCF794F808900999FBF730FF4FF0804133
:1043B0000A90FBF763FF6449C86213A84089BDF8FF
:1043C0004E10401A0890FCF778F80A905948408837
:1043D00028380890FCF771F809900A99FBF74EFF0E
:1043E0005949886213A84089BDF84E1008440690C8
:1043F000FCF763F807905448806A014606900798D6
:10440000FBF70AFF09904B4840880790FCF75EF8DD
:1044100008900999FBF7FAFE4FF080410A90FBF7EC
:104420002DFF494908630846406A0890FCF760F888
:104430000990002801DB099801E009984042022810
:104440000DDC4148806A0890FCF752F80A90002879
:1044500001DB0A9801E00A984042022845DD00206D
:10446000129034484088143880B20A90314800884D
:10447000143880B24FF6FF7209900A9900F0B6F82E
:104480004FF478421421084600F0B0F82FA04FF402
:1044900078411022CDE900210290264840880A90F8
:1044A00024480088099002461A2128200A9BFDF71B
:1044B00019FC254890F8340008B9012000E00020DC
:1044C000214981F83400084690F8340030B190203A
:1044D00023490870D0202349087005E0D0202049E6
:1044E000087090201F4908706FE01F201E49088047
:1044F0004FF6FF70FCF7F4FE1CA04FF47841102239
:10450000CDE9002102900B4840880A9009480088B4
:10451000099002466E2120200A9BFDF7E3FB002054
:104520004FF6FF714FF478421023CDE90132CDE907
:10453000031027E048010020000059406666EE3F66
:10454000CDCCCCCCCCCCF03F200000205450204E21
:1045500065656420726561646A757374210000008A
:10456000580000205900002014000020546F75638B
:10457000682053637265656E2041646A75737420A8
:104580004F4B210013A0F022822100902020FCF745
:10459000A7FC4FF47A7000F0E7FD00F02FFA4FF619
:1045A000FF70FCF79DFE17B000BD00BF0A2000F0B1
:1045B000DBFD0B98401C80B20B900B98B0F57A7F16
:1045C00002DD00F04FF802E000BFFFF7DCBB00BFE8
:1045D00000BFE8E7B4A5C3FEC6C1D0A3D7BCCDEAEF
:1045E000B3C9A3AC4F4BA3A1A3A10000F8B50446E7
:1045F0000D4616461A48068004F10D018AB2193993
:1046000088B22B4629460096FCF7EAFE05F10D001C
:1046100083B2193881B2224620460096FCF7E0FEAC
:104620006A1C91B2621C90B2FCF730FF6A1C91B216
:10463000621E90B2FCF72AFF6A1E91B2621C90B211
:10464000FCF724FF6A1E91B2621E90B2FCF71EFFB7
:104650003346062229462046FCF72AFFF8BD000013
:104660001400002070B586B018220021684600F0C2
:10467000EBFB9DF811409DF812500A2D01D101204D
:1046800000E00020032C01D1012100E000210840BE
:1046900000284BD026480099016005682846FBF7A2
:1046A0000CFF06462349FBF7E9FD234948622048F1
:1046B0000199016005682846FBF7FFFE06461D4983
:1046C000FBF7DCFD1C498862194802990160056806
:1046D0002846FBF7F2FE1849C862154803990160A5
:1046E00005682846FBF7E9FE134908630CB1012C65
:1046F00004D10020104981F8340003E001200E4964
:1047000081F834000C4890F8340030B190200B4907
:104710000870D0200A49087005E0D02007490870C9
:10472000902007490870012006B070BD0020FBE70B
:104730005C00002020BCBE4C20000020580000205F
:104740005900002008B501218820FEF7F3FE022061
:10475000ADF8000010208DF8030003208DF8020052
:1047600069462448FCF732FC02212248FCF7C4FCCD
:104770000420ADF8000048208DF8030069461D486C
:10478000FCF724FC4FF42060ADF8000010208DF8F9
:10479000030003208DF8020069461748FCF716FC59
:1047A0004FF420611448FCF7A7FC4FF48060ADF88B
:1047B000000048208DF8030069460F48FCF706FC0E
:1047C0000E49A1F10A0000F0A1F80C49A1F10A007C
:1047D00000F09CF8FFF746FF08B1002008BD4FF637
:1047E000FF70FCF77DFDFFF781FAFFF73BFF01202B
:1047F000F4E70000000C0140001C014036000020DE
:1048000070B506460025002400201E4908601E4998
:10481000C1F8A4011D490860304600F0B7F9062030
:1048200000F0C8FC00201A49C1F88401012000F002
:10483000C1FC01201349086000F0BCFC00201449B1
:10484000C1F8840100BF15E04FF6FF7000EA440490
:1048500000200C490860012000F0ACFC01200C494C
:10486000C1F8840107487C38006808B1601C84B234
:10487000681CC5B2102DE7DB241101200349086034
:10488000204670BD8481214200802342AC812342B6
:10489000008021422DE9FE4380460027002406E0E7
:1048A0004046FFF7ADFF2DF81400601C84B2052CC4
:1048B000F6DB002416E0601C85B20FE03DF8140022
:1048C0003DF81510884207DD3DF814603DF81500ED
:1048D0002DF814002DF81560681C85B2052DEDDB50
:1048E000601C84B2042CE6DB0027012405E03DF8BF
:1048F0001400384487B2601C84B2042CF7DB032018
:1049000097FBF0F086B23046BDE8FE832DE9F0411A
:1049100004460D4607480078FFF7BCFF06460648E8
:104920000078FFF7B7FF074626802F800120BDE8FB
:10493000F081000058000020590000207FB5044697
:104940000D4602A903A8FFF7E1FF064616B90020AD
:1049500004B070BD694601A8FFF7D8FF06460EB93E
:104960000020F5E7BDF80400BDF80C10884206DC15
:10497000BDF80C10BDF80400323081420CDBBDF8EC
:104980000C00BDF80410884236DCBDF80410BDF8F8
:104990000C00323081422FDABDF80000BDF808105B
:1049A000884206DCBDF80810BDF8000032308142B4
:1049B0000CDBBDF80800BDF8001088421CDCBDF817
:1049C0000010BDF808003230814215DABDF80C1035
:1049D000BDF80420881800EBD071C1F34F0121808D
:1049E000BDF80810BDF80020881800EBD071C1F3A5
:1049F0004F0129800120ABE70020A9E710B586B060
:104A00001F49486A1F49FBF707FC0446FBF770FD86
:104A10001D4908600846006800901949886A1949CC
:104A2000FBF7FAFB0446FBF763FD174908600846ED
:104A3000006801901249C86AFBF75AFD12490860E4
:104A40000846006802900E49086BFBF751FD0E49BD
:104A500008600846006803900320094981F8340083
:104A6000084690F834008DF811000A208DF81200E5
:104A700018220021684600F053FA06B010BD00006D
:104A80002000002020BCBE4C5C0000202DE9F0413D
:104A900004463C48006800284ED12CB13A49A1F1A7
:104AA0000A00FFF74BFF35E03749A1F10A00FFF795
:104AB00045FF78B3344916398889FBF707FD074667
:104AC00031481638416A3846FBF7A6FB06462E48A1
:104AD0001638C16A3046FBF747FB0546FBF721FD58
:104AE000294916398881C88AFBF7F0FC0746264811
:104AF0001638816A3846FBF78FFB0646224816387F
:104B0000016B3046FBF730FB0546FBF70AFD1E49FB
:104B10001639C8821C48163890F8200000F0800032
:104B200038BBC0201849163981F820000846818911
:104B30008182C18AC1831CE01348163890F8200096
:104B400000F0800050B11048163890F8200020F096
:104B500080000D49163981F820000AE000210A483A
:104B600016388182C1834FF6FF7007491639888154
:104B7000C8820548163890F8200000F08000BDE893
:104B8000F0810000288123423600002070B50446E1
:104B9000002500BF17E004F0800018B101200B4988
:104BA000086002E00020094908606006040E002049
:104BB00007490860012000F0FDFA01200549C1F80D
:104BC0008401681CC5B2082DE5DB70BDA4812342B9
:104BD000848121420080214210B540F225510748CE
:104BE00000F01AF848B1054800F0D2F8C4B22046E7
:104BF000FDF78EF92046FDF701F910BD00380140A0
:104C000021B1828942F40052828104E082894DF60A
:104C1000FF731A408281704770B50246002400235A
:104C20000025002040F66A16B14200D100BFC1F352
:104C3000421501F01F03012606FA03F3012D02D1EC
:104C40009689334006E0022D02D1168A334001E0F6
:104C5000968A33400C12012606FA04F41688344072
:104C600013B10CB1012000E0002070BDF0B5034687
:104C7000002400260025002040F66A17B94200D122
:104C800000BF1846C1F3421401F01F06012707FABE
:104C900006F5012C01D10C3004E0022C01D11030BA
:104CA00000E014301AB107682F43076002E007687C
:104CB000AF430760F0BD00002DE9F04786B0054620
:104CC0000E460024A24600BFA1460027B08900B1CD
:104CD00000BF2F462C8A4CF6FF700440F088044336
:104CE0002C82AC894EF6F3100440B0883189084319
:104CF000718908430443AC81AC8A4FF6FF400440FD
:104D0000B0890443AC8201A8FEF724FC1F48874207
:104D100002D1DDF810A001E0DDF80CA0A88900F4B4
:104D2000004040B10AEBCA0000EB0A1031684900AC
:104D3000B0FBF1F807E00AEBCA0000EB0A1031689B
:104D40008900B0FBF1F86420B8FBF0F00401200901
:104D5000642101FB1089A88900F4004040B1322091
:104D600000EBC900B0FBF1F000F00700044308E0DD
:104D7000322000EB09106421B0FBF1F000F00F00CD
:104D800004432C8106B0BDE8F087000000380140E4
:104D900001468888C0F30800704700BFFEE70000A6
:104DA00010B50446240300F017F900F0AFF8002016
:104DB0000D4908602020FEF799FCC4F30740FEF778
:104DC00095FCC4F30720FEF791FCE0B2FEF78EFCE1
:104DD00001200649C1F8B0014FF4C87000F0C4F9D1
:104DE00000F094F810BD0000B08121420080214203
:104DF00008B501210820FEF79DFB4FF48050ADF867
:104E0000000010208DF8030003208DF80200694691
:104E10000A48FCF7DBF84FF480510848FCF76CF9BE
:104E2000012007490860FEF717FC0020FEF788FC08
:104E300000F032F80349088008BD0000000C014072
:104E4000B08121421C0000202DE9F04106460C46AD
:104E5000174600200F4908600320FEF747FCC4F303
:104E60000740FEF743FCC4F30720FEF73FFCE0B227
:104E7000FEF73CFC002505E0FF20FEF737FC7055EF
:104E8000681C85B2BD42F7DB012002490860BDE81D
:104E9000F0810000B081214210B5002400200E49AD
:104EA00008609020FEF722FC0020FEF71FFC002087
:104EB000FEF71CFC0020FEF719FCFF20FEF716FC95
:104EC00044EA0024FF20FEF711FC044301200349BB
:104ED000C1F8B001204610BDB081214200802142BE
:104EE00010B500240020074908600520FEF7FEFBEE
:104EF000FF20FEF7FBFB044601200349C1F8B00187
:104F0000204610BDB08121420080214210B500BF73
:104F1000FFF7E6FF00F001000028F9D110BD000006
:104F20002DE9F05F81460F461646DFF8A8B04FEA3C
:104F30001738C7F30B0ACAF58054A64200DC344682
:104F400044E04FEA08314FF480525846FFF77CFFA7
:104F5000002508E00AEB05001BF80000FF2800D040
:104F600003E0681C85B2A542F4DB00BFA54216DA57
:104F70004046FFF715FF002507E019F8050005EB8F
:104F80000A010BF80100681C85B2A542F5DB4FEA67
:104F900008314FF48052584600F02EF804E02246C3
:104FA0003946484600F028F8A64200D10FE008F143
:104FB00001084FF0000AA1442744301B86B2B6F521
:104FC000805F02DD4FF4805400E03446B9E700BF53
:104FD000BDE8F09F5601002010B50020044908608C
:104FE0000620FEF783FB01200249C1F8B00110BD85
:104FF000B0812142008021422DE9F04107460E4652
:105000001446F0B2C0F58075AC4200DC254612E0D3
:105010002A463146384600F013F8AC4200D10BE086
:105020002F442E44601B84B2B4F5807F02DD4FF420
:10503000807500E02546EBE700BFBDE8F081000089
:105040002DE9F04106460C461746FFF7C5FF002044
:105050000F4908600220FEF749FBC4F30740FEF742
:1050600045FBC4F30720FEF741FBE0B2FEF73EFB31
:10507000002504E0705DFEF739FB681C85B2BD4277
:10508000F8DB012002490860FFF740FFBDE8F0812E
:10509000B081214202E008C8121F08C1002AFAD1DB
:1050A00070477047002001E001C1121F002AFBD1A8
:1050B000704700000149086070470000440100206B
:1050C00010B5FCF71DF80021084600F009F83F2153
:1050D000012000F005F80021022000F001F810BDC9
:1050E00070B505460C46FCF75FF8D220FCF722F8B5
:1050F000FCF7A6F818B1FCF77DF8012070BD284632
:10510000FCF718F8FCF79CF82046FCF713F8FCF7BE
:1051100097F818B1FCF76EF80120EFE7FCF76AF892
:105120000020EBE710B56FF00400FEF7CBFB0A4858
:1051300000680A49B0FBF1F0094908700846007898
:1051400000EB4001C1EBC0104FF6FF7101EAC00057
:105150000449088010BD00000000002000127A0001
:1051600064000020660000200146114A12884A436C
:105170004FF0E0235A6100229A611A46126942F008
:1051800001021A6100BF4FF0E022106900F0010235
:105190001AB100F48032002AF5D04FF0E0221269F3
:1051A00022F001024FF0E0231A6100229A61704759
:1051B000660000200146114A12784A434FF0E0236E
:1051C0005A6100229A611A46126942F001021A617C
:1051D00000BF4FF0E022106900F001021AB100F4A4
:1051E0008032002AF5D04FF0E022126922F001024D
:1051F0004FF0E0231A6100229A617047640000209A
:105200000EB5FFF78FFF4FF4A060FEF767F94FF47C
:10521000E13000F0A9F8FCF7B9FDFCF7C7F9FFF79A
:10522000E7FD4FF478402B49088029E02AA04FF48D
:10523000784110221346CDE900210290C822962120
:105240001E20FCF74FFD4FF4FA70FFF78DFF28A0EA
:105250004FF4784110221346CDE900210290C82274
:1052600096211E20FCF73EFD4FF4FA70FFF77CFFFD
:105270002448006808B9012000E0002021490860A6
:10528000FFF70AFE4EF614718842CFD11EA04FF4EC
:10529000784110221346CDE900210290C8229621C0
:1052A0001E20FCF71FFDFBF7C9FCFBF7FBFF1A49AB
:1052B00008688047FFF704FF4FF6FF70FCF710F80F
:1052C000FCF752FE63212320FEF75AFB01E0FCF7B6
:1052D0003BFFFCE7140000205732355131362043A4
:1052E0006865636B204661696C656421000000009D
:1052F000506C6561736520436865636B21202020D5
:10530000202020009401234257323551313620525B
:105310006561647921000000200000202DE9F04142
:1053200006460F46FBF72EFA041E0D4618BF012055
:10533000284320F00040C0F17F6000F1E040C00F42
:105340000ED0301C18BF0120384320F00040C0F1BF
:105350007F6000F1E040C00F04BF0120FFF7AAFE0C
:1053600020462946BDE8F08110B586B004460121EB
:1053700044F20500FEF7DEF84FF40070ADF81400BB
:1053800003208DF8160018208DF8170005A91C4879
:10539000FBF71CFE4FF48060ADF8140004208DF87C
:1053A000170005A91648FBF711FE25208DF800000F
:1053B00000208DF801008DF8020001208DF8030017
:1053C0006846FEF753F801940020ADF80800ADF8E8
:1053D0000A00ADF80C00ADF810000C20ADF80E007E
:1053E00001A90848FFF768FC012240F22551054851
:1053F000FFF73CFC01210348FFF702FC06B010BD9B
:10540000000801400038014010B50246002000BFEE
:105410000CE000BF074B1B8803F04003002BF9D0C2
:10542000135C044C241D2380431C98B28842F0DB9B
:1054300010BD000000380140C478000800000000E2
:105440000000000000000000000000003F400000DD
:10545000000000000000300040003000400000006C
:1054600009000BC03D000BC03D00090018C02440DE
:105470007FE0224031800000180024C01B000D8016
:105480003240018003801C4027401C8007400040C0
:10549000100060000000000000000000000000009C
:1054A00000001F80204040200000402020401F803E
:1054B00000000000090006001F800600090000002F
:1054C000040004003F80040004000000001000609D
:1054D00000000000000000000400040004000400BC
:1054E0000400000000000040000000000000000078
:1054F000002001C006003800400000001F8020404E
:10550000204020401F800000000010403FC00040AD
:105510000000000018C02140224024401840000034
:1055200010802040244024401B80000002000D0019
:1055300011003FC0014000003C8024402440244032
:10554000238000001F80244024403440038000005A
:105550003000200027C03800200000001B802440BD
:10556000244024401B8000001C0022C02240224016
:105570001F80000000000000084000000000000044
:1055800000000000046000000000000000000400B3
:105590000A001100208040400900090009000900AC
:1055A0000900000000004040208011000A000400B3
:1055B0001800200023402400180000001F80204015
:1055C000274029401F400000004007C039000F005D
:1055D00001C0004020403FC0244024401B80000008
:1055E0001F802040204020403080000020403FC0ED
:1055F000204020401F80000020403FC024402E401B
:1056000030C0000020403FC024402E003000000089
:105610000F001080204022403380020020403FC015
:10562000040004003FC02040204020403FC02040F4
:10563000204000000060202020203FC020002000EB
:1056400020403FC024400B0030C0204020403FC0DD
:1056500020400040004000C03FC03C0003C03C0070
:105660003FC0000020403FC00C4023003FC020004E
:105670001F802040204020401F80000020403FC06D
:1056800024402400180000001F802140214020E019
:105690001FA0000020403FC02440260019C0004049
:1056A00018C02440244022403180000030002040B7
:1056B0003FC020403000000020003F8000400040FC
:1056C0003F80200020003E0001C00700380020007D
:1056D000380007C03C0007C038000000204039C037
:1056E000060039C0204000002000384007C0384084
:1056F00020000000304021C02640384020C000007B
:10570000000000007FE0402040200000000070000A
:105710000C000380004000000000402040207FE09B
:1057200000000000000020004000200000000000F9
:105730000010001000100010001000100000000009
:10574000400000000000000000000280054005400D
:1057500003C0004020003FC004400440038000001C
:105760000000038004400440064000000000038065
:10577000044024403FC00040000003800540054035
:1057800003400000000004401FC0244024402000CB
:10579000000002E0055005500650042020403FC0A4
:1057A0000440040003C000400000044027C0004043
:1057B0000000000000100010041027E000000000AE
:1057C00020403FC00140070004C00440204020406A
:1057D0003FC000400040000007C0040007C00400B4
:1057E00003C00000044007C00440040003C00040A0
:1057F000000003800440044003800000041007F010
:105800000450044003800000000003800440045062
:1058100007F00010044007C002400400040000002C
:10582000000006400540054004C0000000000400E0
:105830001F80044000400000040007800040044036
:1058400007C000400400070004C0018006000400F7
:10585000060001C0070001C006000000044006C0A9
:10586000010006C0044000000410071004E001809D
:10587000060004000000044005C00640044000008B
:105880000000000004007BE0402000000000000059
:105890000000FFF000000000000040207BE004005A
:1058A0000000000040008000400020002000400078
:1058B00000000000000000000000000000000000E8
:1058C0000000000000001FCC000C000000000000E1
:1058D0000000080030006000080030006000000098
:1058E000022003FC1E20022003FC1E2002200000D8
:1058F00000000E1811043FFF10840C780000000017
:105900000F0010840F3800C007781884007800005A
:1059100000780F8410C411240E9800E4008400085D
:105920000800680070000000000000000000000097
:1059300000000000000007E01818200440020000EA
:10594000000040022004181807E0000000000000DA
:105950000240024001800FF001800240024000003E
:105960000080008000800FF8008000800080000030
:105970000001000D000E000000000000000000000B
:105980000000008000800080008000800080008097
:105990000000000C000C00000000000000000000EF
:1059A00000000006001800600180060018002000BA
:1059B000000007F0080810041004080807F00000B1
:1059C0000000080408041FFC00040004000000009C
:1059D00000000E0C10141024104411840E0C000052
:1059E00000000C1810041104110412880C7000003F
:1059F000000000E00320042408241FFC0024000011
:105A000000001F9810841104110410881070000009
:105A1000000007F0088811041104188800700000C5
:105A200000001C00100010FC13001C0010000000FF
:105A300000000E3811441084108411440E38000008
:105A400000000700088C10441044088807F000008C
:105A5000000000000000030C030C00000000000028
:105A6000000000000001010600000000000000002E
:105A7000000000800140022004100808100400000B
:105A80000220022002200220022002200220000028
:105A900000001004080804100220014000800000EB
:105AA00000000E001200100C106C10800F0000009F
:105AB00003E00C1813E4142417C4082807D00000CE
:105AC0000004003C03C41C40074000E4001C000428
:105AD00010041FFC1104110411040E880070000052
