:020000040800F2
:100000003813002081010008B9230008690800089E
:10001000B523000849070008BF2C000800000000B5
:100020000000000000000000000000008927000818
:100030004D07000800000000450100087528000871
:100040009B0100089B0100089B0100089B01000820
:100050009B0100089B0100089B0100089B01000810
:100060009B0100089B0100089B0100089B01000800
:100070009B0100089B0100089B0100089B010008F0
:100080009B0100089B0100089B0100089B010008E0
:100090009B0100089B0100089B0100089B010008D0
:1000A0009B0100089B0100089B0100089B010008C0
:1000B0009B010008DD2800089B0100089B01000847
:1000C0009B0100089B0100089B0100089B010008A0
:1000D0009B0100086D2A00089B010008E12A000826
:1000E0009B0100089B0100089B010008DFF80CD071
:1000F00000F0C2FA004800478D2D00083813002098
:10010000EFF3108072B6704780F31088704772B6B4
:1001100006484FF0FF010170002080F30988044871
:100120004FF08051C0F8001062B6FEE722ED00E00B
:1001300004ED00E002484FF080510160704700007C
:1001400004ED00E072B6EFF3098028B1203880E8B2
:10015000F00F09490968086000B5DFF82000804702
:100160005DF804EB90E8F00F203080F309884EF042
:10017000040E62B670470000B4010020E9240008B4
:100180000648804706480047FEE7FEE7FEE7FEE731
:10019000FEE7FEE7FEE7FEE7FEE7FEE77D28000854
:1001A000ED000008F0B480EA0102D40F4200B2EB87
:1001B000410F02D20246084611464A0042D0C30D02
:1001C000DDB2C1F3C752AD1A202D35DAC1F31601E5
:1001D00041F4000204B15242C5F1200602FA06F1D0
:1001E0002A411044B3EBD05F23D0C4B1012DA0EB62
:1001F000C35009DCF0BC4FF0004202EAC352DBB24C
:1002000000F5000000F0ACB9400000F1807000EB98
:10021000C350A0F1807040EAD170490009E049085C
:1002200041EAC071A0EBC35000F50000400800EBAC
:10023000C350F0BC00F08BB96142012202EB4101D6
:10024000001BF6E7F0BC704781F00041AAE780F0A0
:100250000040A7E780EA010210B502F00043400029
:1002600022D04A001FD0010E01EB1261C0F35600EC
:10027000C2F3560240F4000042F40002A0FB022048
:1002800000047F39140400D0401C50EA124001D40D
:100290004000491EC2B20C0604EBD010401C4008BE
:1002A000802A02D003E0002010BD20F001000029C8
:1002B00000DA0020184310BD2DE9FE4F81EA030447
:1002C00004F0004421F0004100944FF0000B23F0B3
:1002D000004350EA01045ED052EA03045BD0C3F34A
:1002E0000A54C1F30A552C44A4F2F3340194A0FB40
:1002F0000254C1F3130141F48011C3F3130343F417
:10030000801301FB024400FB034E840A970A44EA6F
:10031000815447EA8357A4FB076802958D0A05FBC1
:1003200007854FEA932C04FB0C542705029D4FEAE6
:10033000065847EA1637B5EB08056EEB070C870E33
:10034000920E47EA811742EA8312A7FB0201B6EB3D
:100350000B0164EB00042B0D43EA0C335E1844EBF5
:100360001C50DA465146E7FB0201C5F313044FEA7D
:100370000B3343EA14534FEA0432019C43EA060369
:10038000A4F10C040294009CCDE900B400F025F91E
:1003900003B0BDE8F08F00200146F9E72DE9F04DEC
:1003A00081EA030404F0004B21F0004514464FF0AD
:1003B000000A23F0004150EA050220D054EA01026D
:1003C0001DD0C5F30A570246C5F31303C1F313004A
:1003D000C1F30A5640F4801543F48013A7EB0608D6
:1003E000101BD64608F2FD3873EB050002D308F166
:1003F000010801E092185B41B8F1000F03DA002018
:100400000146BDE8F08D00204FF480110646844679
:100410000EE0171B73EB050705D3121B63EB0503F7
:1004200006434CEA010C49084FEA300092185B4140
:1004300050EA0107EDD152EA030012D082EA04002B
:1004400083EA0501084305D0101BAB4106D2012207
:10045000002306E000224FF0004302E06FF00102AB
:1004600053101AEB06004CEB085110EB0A0041EB5D
:100470000B01BDE8F04D00F0A1B8C10F80EAE070BB
:100480000844CA079623002100F06AB89623002288
:10049000114600F065B800F0004220F00040C10DA8
:1004A000C0F3160040F400007F2901DA00207047F5
:1004B000962903DCC1F19601C84001E096398840D5
:1004C000002AF4D04042704720F00040C10DC0F334
:1004D000160040F400007F2901DA002070479629B9
:1004E00003DCC1F19601C8407047963988407047D7
:1004F00000F0004230F000400AD0C10D01F56071FB
:10050000C0F3160042EA0151C20840071143704788
:1005100000200146704701F0004330B421F0004153
:1005200050EA010206D00A0DA2F56072C1F3130170
:10053000002A02DC30BC00207047440F44EAC104AA
:10054000C100E01830BC00EBC250AFF300800029BE
:10055000A8BF7047401C490008BF20F00100704749
:1005600010B4B0FA80FC00FA0CF050EA010404BFA9
:1005700010BC704749B1CCF1200421FA04F411FAFF
:100580000CF118BF012121430843A3EB0C01CB1D43
:100590004FEA00614FEA102042BF002010BC7047B4
:1005A00000EBC35010440029A4BF10BC7047401C8E
:1005B000490008BF20F0010010BC704710B5141EA0
:1005C00073F1000408DA401C41F1000192185B410C
:1005D0001A4301D120F0010010BD2DE9F04D9246E3
:1005E0009B4611B1B1FA81F202E0B0FA80F22032FA
:1005F000904600F053F804460F4640EA0A0041EAEC
:100600000B0153465A46084313D0114653EA0100E2
:1006100019D0C8F14002504600F04FF805460E468A
:1006200050465946424600F039F8084305D00120AB
:1006300004E020463946BDE8F08D0020054346EA37
:10064000E0762C4337430A986305E40AA0EB0800E0
:100650000022FD0A44EA47540A3002D50020014630
:10066000E9E7010510196941DDE90845001969410B
:10067000BDE8F04DA2E70000064C074D06E0E0683B
:1006800040F0010394E8070098471034AC42F6D3D9
:10069000FFF730FDF830000818310008202A04DB8D
:1006A000203A00FA02F1002070479140C2F1200385
:1006B00020FA03F3194390407047202A04DB203AC4
:1006C00021FA02F00021704721FA02F3D040C2F172
:1006D0002002914008431946704770B58C1810F8F5
:1006E000015B15F0070301D110F8013B2A1106D177
:1006F00010F8012B03E010F8016B01F8016B5B1E91
:10070000F9D12B0705D40023521E0DD401F8013B6B
:10071000FAE710F8013BCB1A921C03E013F8015BD7
:1007200001F8015B521EF9D5A142D8D3002070BD5B
:10073000014908607047000088860D420149086041
:100740007047000000860D4200BFFEE770472DE9AC
:10075000F041024600250026002000230024002747
:1007600091F803C00CF00F0591F803C00CF0100CC9
:10077000BCF1000F03D091F802C04CEA050591F8D6
:1007800000C0BCF1000F31D0146800202BE04FF006
:10079000010C0CFA00F3B1F800C00CEA03069E420B
:1007A00020D183004FF00F0C0CFA03F7BC4305FA7D
:1007B00003FC4CEA040491F803C0BCF1280F06D1F5
:1007C0004FF0010C0CFA00FCC2F814C00AE091F8DA
:1007D00003C0BCF1480F05D14FF0010C0CFA00FC2E
:1007E000C2F810C0401C0828D1D31460B1F800C072
:1007F000BCF1FF0F34DD546800202EE000F1080C3E
:100800004FF0010808FA0CF3B1F800C00CEA030637
:100810009E4221D183004FF00F0C0CFA03F7BC432A
:1008200005FA03FC4CEA040491F803C0BCF1280F5C
:1008300005D100F1080C08FA0CF8C2F8148091F800
:1008400003C0BCF1480F07D100F1080C4FF00108BC
:1008500008FA0CF8C2F81080401C0828CED3546067
:10086000BDE8F0814161704700BFFEE703460BB968
:100870000020704719609A8000201881D8800120DC
:10088000987200BFF5E7014609B900207047B1F939
:100890000800B1F90620801A8A88104490FBF2F310
:1008A00002FB130080B2F1E700B97047002101811B
:1008B000C18000BFF9E700002DE9FF4104460F4663
:1008C00015461E461948A04201D0BDE8FF81012E01
:1008D00006D0022E0FD0032E0ED0042E22D120E0FF
:1008E0006B462A463946204600F0C6FBBDF800009C
:1008F000ADF8000016E015E0082D01DA284600E00A
:10090000082002466B463946204600F0AAFDBDF895
:1009100000004FEA1028BDF8000000F0FF0800BFFB
:1009200000E000BF00BF00BFCFE70000CC03002005
:100930002DE9FF4104460F4615461E461948A042C0
:1009400001D0BDE8FF81012E06D0022E0FD0032E6C
:100950000ED0042E22D120E06B462A46394620468E
:1009600000F08AFBBDF80000ADF8000016E015E0CD
:10097000082D01DA284600E0082002466B46394679
:10098000204600F06EFDBDF800004FEA1028BDF8CB
:10099000000000F0FF0800BF00E000BF00BF00BF84
:1009A000CFE70000640800202DE9F04104460D4621
:1009B00017469846069E094804600CB9BDE8F081C8
:1009C00007480649096808600648044909688860BC
:1009D000284602F0EDF900BFF0E7000028000020F3
:1009E000810A0008710A00082DE9F04104460D460D
:1009F00017469846069E094804600CB9BDE8F08188
:100A0000074806490968086006480449096888607B
:100A1000284602F065F900BFF0E700002C00002036
:100A2000910A0008750A000810B5044606480068D7
:100A300000B910BD044800682146426802480068B9
:100A4000904700BFF5E700002800002010B50446DD
:100A50000648006800B910BD044800682146426895
:100A600002480068904700BFF5E700002C00002016
:100A7000704700000149086070470000B40122423D
:100A800070B504460D462946204602F0E3F970BDD4
:100A900070B504460D462946204602F015FA70BD91
:100AA00010B504460648006800B910BD0448006847
:100AB0002146C26802480068904700BFF5E7000081
:100AC0002800002010B504460648006800B910BD93
:100AD000044800682146C26802480068904700BF89
:100AE000F5E700002C0000200EB5002001210822AF
:100AF0004FF41653CDE9002102900A4617491848D1
:100B000000F098F840F20110164B0246164900908A
:100B1000134800F0FDF91549114800F07DF808B9B7
:100B200000200EBD12490E4800F076F808B90020EA
:100B3000F7E710490A4800F06FF808B90020F0E71D
:100B40000D49074800F068F808B90020E9E70B49AB
:100B5000034800F0DFFD0120E3E70000A9090008D9
:100B6000CC030020C9020020C80100207000002032
:100B7000D0000020BC000020E4000020B9080008DC
:100B80000EB50020012108224FF41653CDE90021B3
:100B9000029002221749184800F04CF840F2011068
:100BA000164B024616490090134800F0B1F915495A
:100BB000114800F031F808B900200EBD12490E4866
:100BC00000F02AF808B90020F7E710490A4800F0B9
:100BD00023F808B90020F0E70D49074800F01CF899
:100BE00008B90020E9E70B49034800F093FD012014
:100BF000E3E70000E909000864080020610700201D
:100C00006006002030010020900100207C010020BF
:100C1000A40100203109000870B504460D4604B156
:100C20000DB9002070BD1422294604F50D7001F0A5
:100C3000A9FBF7E72DE9F04F89B004460F4693462C
:100C40009846139D14B909B0BDE8F08F00202062CA
:100C50000021A1846061218384F82CB0A4F82E01C6
:100C6000A4F83002002606E0002104F50D7040F8DB
:100C70002610701CC6B2142EF6DB4148E0604148D5
:100C8000606000202060A0602061401EC4F88402E3
:100C90000020C4F88C02C4F888024046FFF7F6FB37
:100CA0000190FFF725FC02460B46CDE9020100202A
:100CB0003549FFF773FB0022344BCDE90401FFF700
:100CC000FBFACDE90601FFF726FC81464FF0000A4A
:100CD000149909B1012200E0002212995018FFF77F
:100CE000CCFB49460690FFF7B5FA0790FFF7ECFBFF
:100CF0001FFA80FA65B95046FFF7C8FB49460690CF
:100D0000FFF750FA0790FFF7DFFB1FFA80FA27E0A2
:100D1000012D12D14FF07F514846FFF79BFA069004
:100D20005046FFF7B3FB05900699FFF73BFA079093
:100D3000FFF7CAFB1FFA80FA12E0022D10D16907F3
:100D40004846FFF787FA06905046FFF79FFB05904D
:100D50000699FFF727FA0790FFF7B6FB1FFA80FA0C
:100D6000A4F890A24FF6FF70A4F8920237B114983D
:100D70002B46009041462046129AB84700BF62E7D2
:100D80001F170008311500080000F03F006AF84006
:100D900010B5034800F010F800F030FD10BD000061
:100DA000CC03002010B5034800F006F800F044FD25
:100DB00010BD0000640800202DE9FE4304460CB974
:100DC000BDE8FE8304F5227003C8401AB4F89012FF
:100DD000884200D2F4E7204600F02EFC064606B911
:100DE00091E094F82D0030B194F82D0094F82C1077
:100DF000884200D087E02E20005D012817DB2E20DE
:100E0000005D042813DC3020015D2F20005D41EAE5
:100E100000253220015D3120005D41EA00272E20AF
:100E2000035D3A462946204600F034F965E02E205D
:100E3000005D052803D02E20005D062818D1302043
:100E4000015D2F20005D41EA00253220015D312047
:100E5000005D41EA00200290022002A9CDE90010C5
:100E60002E20035D01222946204600F056FE44E074
:100E70002E20005D0F2803D02E20005D10283CD1CD
:100E80003020015D2F20005D41EA00283220015D05
:100E90003120005D41EA00253320075D2E20005DF2
:100EA0000F2813D1E91705EB5171C910A5EBC1014A
:100EB00009B1012100E0002101EBE501B9420ED0AA
:100EC00003228F21204600F056FB17E0B7EB450FB9
:100ED00005D003229021204600F04DFB0EE0332088
:100EE000015D04F13400CDE900012E20035D2A46A6
:100EF0004146204600F011FE00BF00BFD4F8880232
:100F0000C4F88C0200BF0020A4F82E0100BF57E7F0
:100F10002DE9F04104460E4617461D46DDF81880BF
:100F20000CB9BDE8F0813A46314604F11400FFF7F0
:100F30009DFC4246294604F12000FFF797FC00BFC4
:100F4000EFE72DE9F04706460D4694461C46089FFC
:100F5000334613B90020BDE8F087012F03D0022FDC
:100F600001D00020F7E7002281E003F50D7050F872
:100F7000220000B979E003F50D7050F822000088D6
:100F8000A84271DC03F50D7050F82200018803F5CA
:100F90000D7050F822000089084405EB0C018842CE
:100FA00062DB03F50D7050F82200807AB8425AD106
:100FB00003F50D7050F822000088281A1FFA80F8F7
:100FC000414649E003F50D7959F82290D9F804908B
:100FD0004FEA211A39F81A904FEAE17A01EB1A7AAE
:100FE0004FEA2A1AA1EB0A1A49FA0AF909F001098B
:100FF000B9F1000F17D008464FEAE17901EB5979B2
:101000004FEAE909A1EBC90A4FF0010909FA0AF907
:1010100004EBE10A9AF800A049EA0A0904EBE10AA4
:101020008AF8009016E008464FEAE17901EB597919
:101030004FEAE909A1EBC90A4FF0010909FA0AF9D7
:1010400004EBE10A9AF800A02AEA090A04EBE10994
:1010500089F800A0481C81B208EB0C008842B1DC82
:10106000012078E700E000BF00BF501C82B2142AC4
:10107000FFF67BAF00206EE7F8B504460D46164636
:101080001F4601203B463246294600902046FFF786
:1010900058FFF8BD2DE9FE4F04468946164698468E
:1010A000002714B90020BDE8FE8F0027CDE104F52C
:1010B0000D7050F8270000B9C5E104F50D7050F827
:1010C0002700008848457BDC04F50D7050F82700A8
:1010D000018804F50D7050F827000089084409EBD9
:1010E000060188426CDBB8F1010F06D104F50D70E2
:1010F00050F82700807A012809D0B8F1020F6ED18C
:1011000004F50D7050F82700807A0228F7D104F515
:101110000D7050F827000088A9EB00001FFA80FB33
:1011200000200290824600BFD4F88402401C0028B0
:10113000FAD1A06810B10120A16888474FF6FF706E
:1011400001900020A4F8300294F82C10019801F0CE
:1011500085F8019094F82C10B4F83022501CA4F8B3
:10116000300204F5987081544146019801F076F8F8
:101170000190B4F83012481CA4F8300204F59870BD
:1011800000F80180F01706EB5070C010A6EBC0000D
:101190000096002801DD012000E0002000EBE600C1
:1011A000C1B2019801F05AF801903046F11706EBF0
:1011B0005171C910A6EBC101002902DD012101E036
:1011C00040E1002101EBE601CAB2B4F83032591C0B
:1011D000A4F8301204F59871CA545D4648E07DE0E9
:1011E000A5EB0B010298B0EBE10F14D0514601982A
:1011F00001F034F80190B4F83012481CA4F8300221
:1012000004F5987000F801A04FF0000AA5EB0B0060
:10121000C0F3CF00029004F50D7151F82710496812
:101220002A1131F81210EA1705EB12721211A5EB10
:101230000212114101F0010169B12846E91705EBDD
:101240005171C910A5EBC1020121914041EA0A0187
:1012500001F0FF0A0AE02846E91705EB5171C910B1
:10126000A5EBC102012191402AEA010A681C85B25E
:101270000BEB0600A842B3DC5146019800F0EEFFEC
:101280000190B4F83012481CA4F8300204F59870AC
:1012900000F801A00198C1B2B4F83022501CA4F8A3
:1012A000300204F59870815401980112B4F830228C
:1012B000501CA4F8300204F598708154B4F8301230
:1012C0002268904700BFD4F88402401C0028FAD15D
:1012D000A06810B10020A1688847B1E0B8F1030F01
:1012E00006D104F50D7050F82700807A032809D044
:1012F000B8F1040F7ED104F50D7050F82700807A04
:101300000428F7D14FF0000A04F50D7050F82700BB
:101310000088A9EB000080B2029000BFD4F88402DC
:10132000401C0028FAD1A06810B10120A1688847AC
:101330004FF6FF7B0020A4F8300294F82C1058469A
:1013400000F08CFF834694F82C10B4F83022501C27
:10135000A4F8300204F5987081544146584600F0D4
:101360007DFF8346B4F83012481CA4F8300204F51F
:10137000987000F801807006010E584600F06EFF6C
:1013800083467006010EB4F83022501CA4F83002D7
:1013900004F5987081544FF0000A28E004F50D70B0
:1013A00050F827004168029800EB6A0031F81050AD
:1013B000290A584600F052FF8346290AB4F8302221
:1013C000501CA4F8300204F598708154E9B25846D4
:1013D00000F044FF8346B4F83022501CA4F83002D9
:1013E00004F5987085540AF102001FFA80FABAEBEE
:1013F000460F00E023E0D1DBB4F83022501CA4F803
:10140000300204F5987000F802B04FEA2B21B4F8CE
:101410003022501CA4F8300204F598708154B4F8BE
:1014200030122268904700BFD4F88402401C002884
:10143000FAD1A06810B10020A168884700E002E05E
:10144000012030E600BF781C87B2142FFFF62FAEC4
:1014500008F18000C1B20222204600F08CF8002082
:1014600021E6F8B504460D4616461F4603203B46C6
:10147000324629460090204600F001F8F8BD2DE9DB
:10148000F04305460C4617469C46079E2A4612B96D
:101490000020BDE8F083032E03D0042E01D00020ED
:1014A000F7E7002140E002F50D7050F8210000B987
:1014B00038E002F50D7050F821000088A04230DCC1
:1014C00002F50D7050F82100038802F50D7050F8F8
:1014D000210000891844E319984222DB02F50D70BF
:1014E00050F82100807AB0421AD102F50D7050F800
:1014F00021000088201A1FFA80F800230CE002F572
:101500000D7050F82100406808EB030930F819000D
:101510002CF81300581C83B2BB42F0DB0120B8E763
:1015200000BF00BF481C81B21429BCDB0020B0E71B
:1015300073B505462C4604B97CBD012201A904F10E
:10154000140000F0DAFE00B9F6E7D4F88402401C7B
:1015500018B94FF6FF70A4F89202B4F892029DF801
:10156000041000F07BFEA4F89202D4F88802C4F8BC
:10157000840200BFE0E72DE9F04104460F4615461E
:1015800000BFD4F88402401C0028FAD1A06810B132
:101590000120A16888474FF6FF760020A4F83002AA
:1015A00094F82C10304600F059FE064694F82C10A2
:1015B000B4F83022501CA4F8300204F5987081541D
:1015C0003946304600F04AFE0646B4F83012481C50
:1015D000A4F8300204F5987047542946304600F0CC
:1015E0003DFE0646B4F83012481CA4F8300204F55B
:1015F00098704554B4F83022501CA4F8300204F519
:10160000987086543112B4F83022501CA4F830027D
:1016100004F598708154B4F830122268904700BFE6
:10162000D4F88402401C0028FAD1A06810B1002030
:10163000A1688847BDE8F0817CB504460CB900205C
:101640007CBD0122694604F1200000F013FE08B9B8
:101650000020F5E700251CE0012201A904F120008B
:1016600000F008FE08B90020EAE7B4F82E01FF28D0
:1016700000DD0CE09DF80410B4F82E2104F12D00DB
:101680008154B4F82E01401CA4F82E0100BF681C40
:1016900085B29DF800008542DEDBB4F82E010128FA
:1016A00036DB2E20005D012813D02E20005D02289D
:1016B0000FD02E20005D03280BD02E20005D0428C3
:1016C00007D02E20005D052803D02E20005D0628BF
:1016D00005D1B4F82E0108281AD10120B0E72E2038
:1016E000005D0F2803D02E20005D10280ED1B4F825
:1016F0002E0109280CDB3320015DB4F82E2101F105
:101700000900824201D101209AE701E0002097E719
:10171000012095E700B97047016100BFFBE72DE9A3
:10172000FC4705460F464FF00008C1462C460CB951
:10173000BDE8FC87C4F88872D4F88802401C50B910
:10174000D4F88C02C0F1FF38C4F888820020C4F8B5
:101750008C024FF00109D4F88402401C00B9E7E77D
:10176000B9F1000F0AD0D4F88412C1F1FF31D4F8D6
:1017700088020844C4F88802C4F88482D4F8841229
:10178000D4F88802401AB4F89012884233D3B4F8DF
:10179000920240B104F11400FFF786F84FF0FF30D9
:1017A000C4F88402C4E704F11400FFF76CF8019058
:1017B000012201A904F1200000F09FFD002611E0A4
:1017C0000122694604F1140000F054FD00B9AFE7AE
:1017D0000122694604F1200000F08FFD00B9A7E75F
:1017E000701C86B2BDF804008642E9DB4FF0FF3082
:1017F000C4F8840200BF00BF9AE700001FB5FF20B5
:1018000003900B4A07CA8DE8070003AB05220121AC
:10181000084800F074F9BDF80C200B21054800F0D1
:101820004EFC6B4605221146024800F053FC1FBDDA
:10183000E0300008CC0300201FB5FF2003900B4AC6
:1018400007CA8DE8070003AB05220121084800F014
:1018500056F9BDF80C200B21054800F030FC6B4612
:1018600005221146024800F035FC1FBDEC3000088F
:10187000640800202DE9F04306460C4617461D4635
:10188000334613B90020BDE8F083012D03D0022DAB
:1018900001D00020F7E7002178E003F50D7050F843
:1018A000210000B970E003F50D7050F821000088A8
:1018B000A04268DC03F50D7050F82100028803F5A2
:1018C0000D7050F8210000890244601C82425ADBEE
:1018D00003F50D7050F82100807AA84252D103F52B
:1018E0000D7050F821000088201A82B22FB303F542
:1018F0000D7C5CF821C0DCF804C04FEA22183CF8EB
:1019000018C010464FEAE27802EB18784FEA281820
:10191000A2EB08194FF0010808FA09F84CEA080C84
:101920001FFA8CF803F50D7C5CF821C0DCF804C0CC
:101930004FEA22192CF8198022E003F50D7C5CF89F
:1019400021C0DCF804C04FEA22183CF818C0104649
:101950004FEAE27802EB18784FEA2818A2EB081950
:101960004FF0010808FA09F82CEA080C03F50D7885
:1019700058F82180D8F804804FEA221928F819C0B5
:10198000012080E700BF00BF481C81B2142984DB1E
:10199000002078E72DE9F04F06460D46944698461C
:1019A000099F334613B90020BDE8F08F012F03D003
:1019B000022F01D00020F7E700219BE003F50D7016
:1019C00050F8210000B993E003F50D7050F82100A4
:1019D0000088A8427EDC03F50D7050F821000288D3
:1019E00003F50D7050F821000089104405EB0C023E
:1019F00090427CDB03F50D7050F82100807AB842EC
:101A000074D103F50D7050F821000088281A84B2B3
:101A1000002267E0C1464FEAE27A02EB5A7A4FEAC7
:101A2000EA0AA2EBCA0A09EBE20B9BF800B04BFAF8
:101A30000AFB0BF0010ABAF1000F27D003F50D7A6B
:101A40005AF821A0DAF804A004EB020B4FEA2B1B92
:101A50003AF81BA010194FEAE07B00EB1B7B4FEA22
:101A60002B1BA0EB0B1E4FF0010B0BFA0EFB4AEAEF
:101A70000B0A03F50D7B5BF821B0DBF804B004EB37
:101A8000020E4FEA2E1E2BF81EA029E003F50D7A58
:101A90005AF821A0DAF804A004EB020B4FEA2B1B42
:101AA0003AF81BA010194FEAE07B00EB1B7B4FEAD2
:101AB0002B1BA0EB0B1E4FF0010B0BFA0EFB2AEABF
:101AC0000B0A03F50D7B5BF821B0DBF804B004EBE7
:101AD000020E01E00BE009E04FEA2E1E2BF81EA0DB
:101AE000501C82B2624595DB01205DE700BF00BF5C
:101AF000481C81B21429FFF661AF002054E7F8B505
:101B000004460D4616461F4601203B4632462946EE
:101B100000902046FFF73EFFF8BD2DE9FC5F04462C
:101B20000D4617469846DDE90C6B4FF00009B8F1F9
:101B3000050F09D0B8F1060F7DD0B8F10F0F7BD09B
:101B4000B8F1100F79D10BE23088B0F57F4F02D099
:101B50003088002872D13088B0F57F4F07D101233B
:101B60001A4629462046FFF785FE814606E00123F6
:101B7000002229462046FFF77DFE8146B9F1000F7D
:101B80007CD000BFD4F88402401C0028FAD1A068A1
:101B900010B10120A16888474FF6FF7A0020A4F811
:101BA000300294F82C10504600F058FB824694F80E
:101BB0002C10B4F83022501CA4F8300204F59870B0
:101BC00081544146504600F049FB8246B4F8301239
:101BD000481CA4F8300204F5987000F80180290A26
:101BE000504600F03BFB8246290AB4F83022501CD4
:101BF000A4F8300204F598708154E9B2504600F020
:101C00002DFB8246B4F83022501CA4F8300204F5B3
:101C1000987085543088010A504600F01FFB8246B8
:101C20003088010AB4F83022501CA4F8300204F5C0
:101C30009870815403E0EEE049E037E241E031780A
:101C4000504600F00BFB82463178B4F83022501C2D
:101C5000A4F8300204F598708154B4F83022501C76
:101C6000A4F8300204F5987000F802A04FEA2A2187
:101C7000B4F83022501CA4F8300200E01BE004F558
:101C800098708154B4F830122268904700BFD4F89D
:101C90008402401C0028FAD1A06810B10020A1687D
:101CA0008847206990B101231A4629462046D4F876
:101CB00010C0E0470AE0022285212046FFF75BFCC6
:101CC00004E0032285212046FFF755FCEEE10120C8
:101CD00033463A46294600902046FFF75BFE814690
:101CE000B9F1000F7CD000BFD4F88402401C00285A
:101CF000FAD1A06810B10120A16888474FF6FF7A99
:101D00000020A4F8300294F82C10504600F0A6FAF7
:101D1000824694F82C10B4F83022501CA4F83002FB
:101D200004F5987081544146504600F097FA824677
:101D3000B4F83012481CA4F8300204F5987000F88A
:101D40000180290A504600F089FA8246290AB4F82F
:101D50003022501CA4F8300204F598708154E9B286
:101D6000504600F07BFA8246B4F83022501CA4F8AA
:101D7000300204F598708554390A504600F06EFA26
:101D80008246390AB4F83022501CA4F8300204F517
:101D900098708154F9B2504600F060FA8246B4F867
:101DA0003022501CA4F8300204F598708754B4F81F
:101DB0003022501CA4F8300204F5987000F802A0FC
:101DC0004FEA2A21B4F83022501CA4F8300204F55E
:101DD00098708154B4F830122268904700BF00E038
:101DE00013E0D4F88402401C0028F8D1A06810B198
:101DF0000020A1688847206960B101233A4629463E
:101E00002046D4F810C0E04704E002228F2120468B
:101E1000FFF7B1FB4AE1328803232946204600F050
:101E200069F98146B9F1000F7DD000BFD4F8840272
:101E3000401C0028FAD1A06810B10120A168884791
:101E40004FF6FF7A0020A4F8300294F82C10504688
:101E500000F004FA824694F82C10B4F83022501C9A
:101E6000A4F8300204F5987081544146504600F0C1
:101E7000F5F98246B4F83012481CA4F8300204F593
:101E8000987000F80180290A504600F0E7F9824670
:101E9000290AB4F83022501CA4F8300204F59870D6
:101EA0008154E9B2504600F0D9F98246B4F83022A4
:101EB000501CA4F8300204F5987085543088010A4B
:101EC000504600F0CBF982463088010AB4F830223F
:101ED000501CA4F8300204F59870815431785046B3
:101EE00000F0BCF982463178B4F83022501CA4F8D6
:101EF000300204F598708154B4F83022501CA4F8D4
:101F0000300204F5987000F802A04FEA2A21B4F8D4
:101F10003022501CA4F8300204F598708154B4F8B3
:101F20003012226800E015E0904700BFD4F8840228
:101F3000401C0028FAD1A06810B10020A168884791
:101F4000206960B10323012229462046D4F810C03D
:101F5000E04704E0022286212046FFF70CFBA5E0C3
:101F60000320012133463A46CDE900102946204698
:101F700000F00AF98146B9F1000F7ED000BFD4F815
:101F80008402401C0028FAD1A06810B10120A16889
:101F900088474FF6FF7A0020A4F8300294F82C10FE
:101FA000504600F05BF9824694F82C10B4F83022C9
:101FB000501CA4F8300204F59870815441465046F4
:101FC00000F04CF98246B4F83012481CA4F83002F4
:101FD00004F5987000F80180290A504600F03EF997
:101FE0008246290AB4F83022501CA4F8300204F5C5
:101FF00098708154E9B2504600F030F98246B4F846
:102000003022501CA4F8300204F598708554390A27
:10201000504600F023F98246390AB4F83022501CA9
:10202000A4F8300204F598708154F9B2504600F0DB
:1020300015F98246B4F83022501CA4F8300204F599
:1020400098708754B4F83022501CA4F8300204F57C
:10205000987000F802A04FEA2A21B4F83022501CF0
:10206000A4F8300204F598708154B4F83012226854
:10207000904700BFD4F8840200E011E0401C002823
:10208000F8D1A06810B10020A1688847206960B12C
:1020900003233A4629462046D4F810C0E04704E01E
:1020A000022290212046FFF766FA00BF00BFB9F177
:1020B000000F02D10020BDE8FC9F0120FBE770B5B6
:1020C00004460D461646032332462946204600F0B4
:1020D00011F870BDFCB504460D4616461F46032098
:1020E00000213B463246CDE900102946204600F04B
:1020F0004BF8FCBDF0B505460C4616462A460AB913
:102100000020F0BD032B03D0042B01D00020F8E702
:10211000002135E002F50D7050F8210000B92DE0E6
:1021200002F50D7050F821000088A04225DC02F570
:102130000D7050F82100078802F50D7050F821004D
:1021400000890744601C874217DB02F50D7050F8C8
:102150002100807A98420FD102F50D7050F82100CD
:102160000088201A87B202F50D7050F821004068EF
:1021700020F817600120C4E700BF00BF481C81B2EF
:102180001429C7DB0020BCE72DE9F04F06460D46B9
:1021900094461C46DDE90987324612B90020BDE8A5
:1021A000F08F032F03D0042F01D00020F7E7002188
:1021B00050E002F50D7050F8210000B948E002F53A
:1021C0000D7050F821000088A84240DC02F50D7027
:1021D00050F82100038802F50D7050F821000089A5
:1021E000184405EB0C03984231DB02F50D7050F8F2
:1021F0002100807AB84229D102F50D7050F82100F3
:102200000088281A1FFA80F9002300BF1AE0B8F1ED
:10221000000F09D014F81300000234F813A040EAAC
:102220001A2024F8130001E034F8130002F50D7AA7
:102230005AF821A0DAF804A009EB030B2AF81B00D6
:10224000581C83B26345E2DB0120A8E700BF00BF52
:10225000481C81B21429ACDB0020A0E7024682EAC8
:102260000100C0B2024B33F8100080EA2220704710
:10227000E02E000870B504460D461646B4F9060077
:10228000B4F90810884201D1002070BDB4F90600ED
:10229000401CA18890FBF1F201FB120000B2E0802B
:1022A000052E27D2DFE806F003090F161D00B4F94A
:1022B00006102068405C28701CE0B4F90610206805
:1022C000405C287016E0B4F90610206830F8110060
:1022D00028800FE0B4F90610206850F8210028602B
:1022E00008E0B4F90620216851F82200FEF7D3F87F
:1022F000286000BF00BF0120C7E730B50346B3F92F
:102300000800401C9C8890FBF4F504FB1500B3F911
:102310000640A04201D1002030BDB3F90800401CA6
:102320009C8890FBF4F504FB150000B21881052A87
:1023300025D2DFE802F003090F161D000878B3F973
:1023400008501C6860551AE00878B3F908501C68FA
:10235000605514E00888B3F908501C6824F815008B
:102360000DE00868B3F908501C6844F8250006E041
:102370000868B3F908501C6844F8250000BF00BF86
:102380000120C9E730B503460C46154600211A4620
:102390000BB9002030BD002108E052F8210018B927
:1023A00042F821400120F5E7481C81B2A942F4DB44
:1023B0000020EFE700BFFEE77047000070B5002186
:1023C00000230F22C47804B3154C246804F4E0649D
:1023D000C4F5E064210AC1F10403CA40447804FA58
:1023E00003F184781440214309010E4C0678A1556D
:1023F000047804F01F050124AC4005786D11AD0090
:1024000005F1E025C5F8004109E0047804F01F0556
:102410000124AC40044D0678761145F8264070BD85
:102420000CED00E000E400E080E100E0024901433F
:10243000024A1160704700000000FA050CED00E050
:1024400070B51C480068401C1A49086000242DE043
:10245000194850F8240040B3174850F82400007E73
:10246000012822D1144850F82400006970B1FDF70A
:1024700047FE0546104850F824000069401E0E49EA
:1024800051F8241008612846FDF73EFEFDF738FE9E
:102490000546094850F82400C068401C064951F818
:1024A0002410C8602846FDF72FFE641C102CCFD3E3
:1024B00070BD0000B0010020F80A002010B50348EC
:1024C000007808B1FDF736FE10BD0000C101002004
:1024D00010B50448007818B1FFF7B2FFFFF7EEFF20
:1024E00010BD0000C101002010B5002100223E48AF
:1024F0000068807E012811D13B48006890F82500D3
:1025000001280BD13848006880683C38374B1B687D
:1025100018600020344B1B6883F82500344800689D
:1025200070B30020002128E0324B53F82130304CAA
:102530002468A34201D101201EE001281BD12D4BAC
:1025400053F82130BBB12B4B53F821301B7E012BAC
:1025500011D1284B53F821301B6963B9244B1B68F8
:102560005B7E244C54F82140647EA34203D1214B6E
:1025700053F8212030E000BF491C1029D4D300BFFC
:1025800000201B4B1860002123E01A4850F821005E
:10259000E8B1184850F82100007E012817D11548ED
:1025A00050F82100006990B91AB1107E08B1106985
:1025B00018B1104850F821200AE0507E0D4B53F816
:1025C00021305B7E984202DD0A4850F8212000BF8E
:1025D000491C1029D9D300BF044802600248026098
:1025E00003480260106810BDB8010020B40100204B
:1025F000C4010020F80A002029B1064AD26902432A
:10260000044BDA6104E0034AD2698243014BDA6188
:10261000704700000010024029B1064A9269024347
:10262000044B9A6104E0034A92698243014B9A6128
:10263000704700000010024030B500210022002445
:1026400000232D4D6D6805F00C0121B1042905D042
:10265000082923D105E0294D056022E0274D0560BA
:102660001FE0254D6D6805F47012234D6D6805F46B
:102670008034022505EB92421CB9214D554305607B
:102680000BE01D4D6D6805F400351DB11C4D554323
:10269000056002E0194D5543056002E0174D0560E5
:1026A00000BF00BF144D6D6805F0F0010909154D1C
:1026B0006B5C0568DD4045600F4D6D6805F4E061B9
:1026C000090A104D6B5C4568DD4085600A4D6D68F8
:1026D00005F46051C90A0B4D6B5C4568DD40C5606F
:1026E000054D6D6805F44041890B074D6B5CC5686D
:1026F000B5FBF3F5056130BD0010024000127A0011
:1027000000093D00110000202100002008B5012132
:102710001120FFF781FF0020FEF710F80020FEF7E0
:1027200007F84FF40050ADF8000010208DF80300BA
:1027300002208DF8020069460448FEF708F84FF4BD
:1027400000510248FEF78EF808BD0000001001405D
:1027500008B501210520FFF75FFF4FF48050ADF869
:10276000000010208DF8030002208DF80200694659
:102770000448FDF7ECFF4FF480510248FEF772F871
:1027800008BD000000080140704710B500F002F8D5
:1027900010BD00000CB50020019000903348006887
:1027A00040F480303149086000BF3048006800F4D0
:1027B000003000900198401C0190009818B90198D1
:1027C000B0F5A06FF1D12948006800F4003010B1D5
:1027D0000120009001E0002000900098012843D1E2
:1027E0002348006840F0100021490860084600684E
:1027F00020F0030008600846006840F0020008600E
:102800001A484068194948600846406848600846C8
:10281000406840F4806048600846406820F47C10BE
:1028200048600846406840F4E81048600846006880
:1028300040F08070086000BF0C48006800F0007035
:102840000028F9D00948406820F003000749486093
:102850000846406840F00200486000BF03484068F6
:1028600000F00C000828F9D10CBD00000010024057
:102870000020024010B5FFF72BFE10BD10B5134825
:10288000006840F00100114908600846406810499E
:1028900008400E494860084600680E4908400B4948
:1028A00008600846006820F48020086008464068F8
:1028B00020F4FE0048604FF41F008860FFF765FFBA
:1028C0004FF000600449086010BD00000010024095
:1028D0000000FFF8FFFFF6FE08ED00E010B5012153
:1028E0000A4800F056F880B10121084800F042F88B
:1028F00007480068401C0649086008460068FEF763
:10290000CFF803480068FEF7DDF810BD0004004072
:10291000000000207FB505460C4601210220FFF78C
:102920006BFEADF80850ADF804400020ADF80A0089
:10293000ADF8060001A90E4800F046F80122114644
:102940000B4800F037F81D208DF8000001208DF8AD
:10295000010003208DF8020001208DF80300684675
:10296000FFF72CFD0121024800F007F87FBD0000B1
:1029700000040040CA430282704721B1028842F03D
:102980000102028004E002884FF6FE731A400280C2
:10299000704730B50246002000230024158A05EA5E
:1029A0000103958905EA010413B10CB1012000E08F
:1029B000002030BD1AB183890B43838102E08389F3
:1029C0008B43838170470000002202881D4B984290
:1029D0000ED01D4B98420BD0B0F1804F08D01B4B4E
:1029E000984205D01A4B984202D01A4B984204D113
:1029F0004FF68F731A404B881A43174B984207D0F3
:102A0000164B984204D04FF6FF431A40CB881A4326
:102A100002808B8883850B8803850A4B98420BD0F4
:102A2000094B984208D00E4B984205D00D4B984266
:102A300002D00D4B984201D10B7A03860123838289
:102A400070470000002C01400034014000040040A9
:102A500000080040000C004000100040001400403E
:102A600000400140004401400048014010B540F2E0
:102A70002551164800F05FF830B1144800F016F9FF
:102A8000C4B22046FDF7D0FF40F227710F4800F096
:102A900052F8D0B10E4802880088401C0C4B1880B8
:102AA0000C480068815C094800F005F90848008876
:102AB00009490988884208D1012008490870002284
:102AC00040F22771014800F060F810BD0038014065
:102AD0000E000020080000200C0000201000002044
:102AE00010B540F22551064800F025F838B10448E9
:102AF00000F0DCF8C4B22046FDF7A8FF00BF10BD0F
:102B00000048004021B1828942F40052828104E0F1
:102B100082894DF6FF731A40828170470246002079
:102B2000B1F5007F00D100BF13880B400BB101202D
:102B300000E00020704770B5024600240023002505
:102B4000002040F66A16B14200D100BFC1F3421521
:102B500001F01F03012606FA03F3012D02D1968925
:102B6000334006E0022D02D1168A334001E0968AF6
:102B700033400C12012606FA04F41688344013B1CF
:102B80000CB1012000E0002070BDF0B50346002428
:102B900000260025002040F66A17B94200D100BF88
:102BA0001846C1F3421401F01F06012707FA06F583
:102BB000012C01D10C3004E0022C01D1103000E0D6
:102BC00014301AB107682F43076002E00768AF436B
:102BD0000760F0BD2DE9F04786B005460E4600249B
:102BE000A24600BFA1460027B08900B100BF2F4612
:102BF0002C8A4CF6FF700440F08804432C82AC8988
:102C00004EF6F3100440B0883189084371890843B7
:102C10000443AC81AC8A4FF6FF400440B0890443C2
:102C2000AC8201A8FFF708FD1F48874202D1DDF8FA
:102C300010A001E0DDF80CA0A88900F4004040B12C
:102C40000AEBCA0000EB0A1031684900B0FBF1F84A
:102C500007E00AEBCA0000EB0A1031688900B0FBFC
:102C6000F1F86420B8FBF0F004012009642101FBB5
:102C70001089A88900F4004040B1322000EBC9005F
:102C8000B0FBF1F000F00700044308E0322000EB55
:102C900009106421B0FBF1F000F00F0004432C8117
:102CA00006B0BDE8F0870000003801400146888882
:102CB000C0F308007047C1F308028280704700BF6C
:102CC000FEE702E008C8121F08C1002AFAD17047C7
:102CD0007047002001E001C1121F002AFBD170479C
:102CE00010B586B0044601210920FFF795FC0121AB
:102CF0008804FFF781FC4FF40060ADF80400042065
:102D00008DF8070001A91F48FDF721FD4FF48060F1
:102D1000ADF8040003208DF8060018208DF8070098
:102D200001A91848FDF713FD02940020ADF80C002E
:102D3000ADF80E00ADF81000ADF814000C20ADF8A1
:102D4000120002A91048FFF745FF012240F2255169
:102D50000D48FFF71AFF01210B48FFF7D3FE27208C
:102D60008DF8000001208DF8030000208DF801008F
:102D70008DF802006846FFF721FBFFF7C7FC06B09D
:102D800010BD0000000C0140004800404FF4A0605E
:102D9000FFF74CFBFDF7A8FEFDF7F2FE632147208D
:102DA000FFF7B8FD03E0FDF7F3FFFDF7FBFFFAE7E0
:102DB00010B586B00446012144F20500FFF72CFC53
:102DC0004FF40070ADF8140003208DF816001820A1
:102DD0008DF8170005A91D48FDF7B9FC4FF4806078
:102DE000ADF8140004208DF8170005A91748FDF769
:102DF000AEFC25208DF8000000208DF801008DF834
:102E0000020001208DF803006846FFF7D7FA01940D
:102E10000020ADF80800ADF80A00ADF80C00ADF8E0
:102E200010000C20ADF80E0001A90948FFF7D2FEF2
:102E3000012240F225510648FFF7A7FE0121044870
:102E4000FFF760FEFFF784FC06B010BD00080140EC
:102E50000038014070B505460C460A4805600A482E
:102E6000048000200949088009490870012240F2C5
:102E700027710848FFF789FE00BF05480078002841
:102E8000FBD070BD080000200C0000200E000020C8
:102E9000100000200038014010B5044600BF40215A
:102EA0000848FFF73BFE0028F9D021460548FFF708
:102EB00002FF00BF40210348FFF730FE0028F9D091
:102EC00010BD00000048004070B505460E460024C5
:102ED00003E0285DFFF7E0FF641CB442F9DB70BD3E
:102EE0000000C1C081C1400101C3C003800241C2D2
:102EF00001C6C006800741C70005C1C581C44004A2
:102F000001CCC00C800D41CD000FC1CF81CE400E51
:102F1000000AC1CA81CB400B01C9C009800841C861
:102F200001D8C018801941D9001BC1DB81DA401AD1
:102F3000001EC1DE81DF401F01DDC01D801C41DCA1
:102F40000014C1D481D5401501D7C017801641D6D1
:102F500001D2C012801341D30011C1D181D04010E1
:102F600001F0C030803141F10033C1F381F24032D1
:102F70000036C1F681F7403701F5C035803441F4A1
:102F8000003CC1FC81FD403D01FFC03F803E41FE51
:102F900001FAC03A803B41FB0039C1F981F8403861
:102FA0000028C1E881E9402901EBC02B802A41EAD1
:102FB00001EEC02E802F41EF002DC1ED81EC402CA1
:102FC00001E4C024802541E50027C1E781E64026D1
:102FD0000022C1E281E3402301E1C021802041E0E1
:102FE00001A0C060806141A10063C1A381A24062D1
:102FF0000066C1A681A7406701A5C065806441A4A1
:10300000006CC1AC81AD406D01AFC06F806E41AE50
:1030100001AAC06A806B41AB0069C1A981A8406860
:103020000078C1B881B9407901BBC07B807A41BAD0
:1030300001BEC07E807F41BF007DC1BD81BC407CA0
:1030400001B4C074807541B50077C1B781B64076D0
:103050000072C1B281B3407301B1C071807041B0E0
:103060000050C190819140510193C05380524192D0
:103070000196C056805741970055C19581944054A0
:10308000019CC05C805D419D005FC19F819E405E50
:10309000005AC19A819B405B0199C0598058419860
:1030A0000188C04880494189004BC18B818A404AD0
:1030B000004EC18E818F404F018DC04D804C418CA0
:1030C0000044C184818540450187C04780464186D0
:1030D0000182C042804341830041C18181804040E0
:1030E00001000200030004000500000001000200CE
:1030F0000300040005000000183100080000002053
:10310000C8010000DA06000890310008C80100205C
:1031100070110000D22C000801152D0102030404D7
:10312000A80906070809020406081B111202120367
:10313000120412051206120712081209120A120BC3
:10314000022D0C22301B202046120B1215121F12CA
:10315000291233123D12471251125B1265126F028F
:103160002D793A7C4CD2041AC8141A40AA1A550177
:10317000813ADC140A4302C00A49F0C00B103C013A
:10318000C01A8814E9C03A9C1402120262010000BD
:04000005080000ED02
:00000001FF
