:020000040800F2
:10000000900D0020850100080D1D0008190800084A
:10001000091D0008F9060008D325000800000000AB
:10002000000000000000000000000000A520000803
:10003000FD060008000000004901000891210008A9
:100040009F0100089F0100089F0100089F01000810
:100050009F0100089F0100089F0100089F01000800
:100060009F0100089F0100089F0100089F010008F0
:100070009F0100089F0100089F0100089F010008E0
:100080009F0100089F0100089F0100089F010008D0
:100090009F0100089F0100089F0100089F010008C0
:1000A0009F0100089F0100089F0100089F010008B0
:1000B0009F010008F92100089F0100089F01000826
:1000C0009F0100089F0100089F0100089F01000890
:1000D0009F010008812300089F010008F523000804
:1000E0009F0100089F0100089F010008DFF810D061
:1000F00000F0C4FA00480047A1260008AFF30080D2
:10010000900D0020EFF3108072B6704780F31088D6
:10011000704772B606484FF0FF010170002080F36F
:10012000098804484FF08051C0F8001062B6FEE71D
:1001300022ED00E004ED00E002484FF08051016044
:100140007047000004ED00E072B6EFF3098028B1BB
:10015000203880E8F00F09490968086000B5DFF829
:10016000200080475DF804EB90E8F00F203080F32A
:1001700009884EF0040E62B670470000FC000020B3
:100180003D1E00080648804706480047FEE7FEE798
:10019000FEE7FEE7FEE7FEE7FEE7FEE7FEE7FEE737
:1001A00099210008ED000008F0B480EA0102D40FA4
:1001B0004200B2EB410F02D20246084611464A0005
:1001C00042D0C30DDDB2C1F3C752AD1A202D35DACE
:1001D000C1F3160141F4000204B15242C5F12006F8
:1001E00002FA06F12A411044B3EBD05F23D0C4B128
:1001F000012DA0EBC35009DCF0BC4FF0004202EA35
:10020000C352DBB200F5000000F0ACB9400000F1D1
:10021000807000EBC350A0F1807040EAD1704900BB
:1002200009E0490841EAC071A0EBC35000F50000A5
:10023000400800EBC350F0BC00F08BB961420122D2
:1002400002EB4101001BF6E7F0BC704781F0004172
:10025000AAE780F00040A7E780EA010210B502F0AB
:100260000043400022D04A001FD0010E01EB126172
:10027000C0F35600C2F3560240F4000042F40002FC
:10028000A0FB022000047F39140400D0401C50EA77
:10029000124001D44000491EC2B20C0604EBD0103B
:1002A000401C4008802A02D003E0002010BD20F04E
:1002B0000100002900DA0020184310BD2DE9FE4F8F
:1002C00081EA030404F0004421F0004100944FF05F
:1002D000000B23F0004350EA01045ED052EA03040D
:1002E0005BD0C3F30A54C1F30A552C44A4F2F3348F
:1002F0000194A0FB0254C1F3130141F48011C3F334
:10030000130343F4801301FB024400FB034E840AF1
:10031000970A44EA815447EA8357A4FB0768029589
:100320008D0A05FB07854FEA932C04FB0C54270527
:10033000029D4FEA065847EA1637B5EB08056EEB03
:10034000070C870E920E47EA811742EA8312A7FB39
:100350000201B6EB0B0164EB00042B0D43EA0C33F6
:100360005E1844EB1C50DA465146E7FB0201C5F328
:1003700013044FEA0B3343EA14534FEA0432019C4F
:1003800043EA0603A4F10C040294009CCDE900B4F6
:1003900000F025F903B0BDE8F08F00200146F9E731
:1003A0002DE9F04D81EA030404F0004B21F00045F3
:1003B00014464FF0000A23F0004150EA050220D015
:1003C00054EA01021DD0C5F30A570246C5F31303D0
:1003D000C1F31300C1F30A5640F4801543F48013AF
:1003E000A7EB0608101BD64608F2FD3873EB050094
:1003F00002D308F1010801E092185B41B8F1000F47
:1004000003DA00200146BDE8F08D00204FF4801192
:10041000064684460EE0171B73EB050705D3121B37
:1004200063EB050306434CEA010C49084FEA300030
:1004300092185B4150EA0107EDD152EA030012D055
:1004400082EA040083EA0501084305D0101BAB4192
:1004500006D20122002306E000224FF0004302E012
:100460006FF0010253101AEB06004CEB085110EB31
:100470000A0041EB0B01BDE8F04D00F0A1B8C10F3F
:1004800080EAE0700844CA079623002100F06AB8A9
:1004900096230022114600F065B800F0004220F0DB
:1004A0000040C10DC0F3160040F400007F2901DABE
:1004B00000207047962903DCC1F19601C84001E095
:1004C00096398840002AF4D04042704720F000401E
:1004D000C10DC0F3160040F400007F2901DA0020AE
:1004E0007047962903DCC1F19601C84070479639E0
:1004F0008840704700F0004230F000400AD0C10D43
:1005000001F56071C0F3160042EA0151C2084007CC
:100510001143704700200146704701F0004330B49A
:1005200021F0004150EA010206D00A0DA2F56072E6
:10053000C1F31301002A02DC30BC00207047440FD5
:1005400044EAC104C100E01830BC00EBC250AFF374
:1005500000800029A8BF7047401C490008BF20F058
:100560000100704710B4B0FA80FC00FA0CF050EAB9
:10057000010404BF10BC704749B1CCF1200421FA3A
:1005800004F411FA0CF118BF012121430843A3EB35
:100590000C01CB1D4FEA00614FEA102042BF002042
:1005A00010BC704700EBC35010440029A4BF10BC1E
:1005B0007047401C490008BF20F0010010BC704784
:1005C00010B5141E73F1000408DA401C41F100015B
:1005D00092185B411A4301D120F0010010BD2DE9B2
:1005E000F04D92469B4611B1B1FA81F202E0B0FAA9
:1005F00080F22032904600F053F804460F4640EA5D
:100600000A0041EA0B0153465A46084313D01146EB
:1006100053EA010019D0C8F14002504600F04FF8EB
:1006200005460E4650465946424600F039F8084302
:1006300005D0012004E020463946BDE8F08D0020B9
:10064000054346EAE0762C4337430A986305E40AFB
:10065000A0EB08000022FD0A44EA47540A3002D504
:1006600000200146E9E7010510196941DDE9084567
:1006700000196941BDE8F04DA2E70000064C074DA6
:1006800006E0E06840F0010394E807009847103462
:10069000AC42F6D3FFF72EFD0829000828290008F0
:1006A000202A04DB203A00FA02F100207047914032
:1006B000C2F1200320FA03F3194390407047202A27
:1006C00004DB203A21FA02F00021704721FA02F3FC
:1006D000D040C2F120029140084319467047000003
:1006E000014908607047000088860D420149086092
:1006F0007047000000860D4200BFFEE770472DE9FD
:10070000F041024600250026002000230024002797
:1007100091F803C00CF00F0591F803C00CF0100C19
:10072000BCF1000F03D091F802C04CEA050591F826
:1007300000C0BCF1000F31D0146800202BE04FF056
:10074000010C0CFA00F3B1F800C00CEA03069E425B
:1007500020D183004FF00F0C0CFA03F7BC4305FACD
:1007600003FC4CEA040491F803C0BCF1280F06D145
:100770004FF0010C0CFA00FCC2F814C00AE091F82A
:1007800003C0BCF1480F05D14FF0010C0CFA00FC7E
:10079000C2F810C0401C0828D1D31460B1F800C0C2
:1007A000BCF1FF0F34DD546800202EE000F1080C8E
:1007B0004FF0010808FA0CF3B1F800C00CEA030688
:1007C0009E4221D183004FF00F0C0CFA03F7BC437B
:1007D00005FA03FC4CEA040491F803C0BCF1280FAD
:1007E00005D100F1080C08FA0CF8C2F8148091F851
:1007F00003C0BCF1480F07D100F1080C4FF001080D
:1008000008FA0CF8C2F81080401C0828CED35460B7
:10081000BDE8F0814161704700BFFEE703460BB9B8
:100820000020704719609A8000201881D88001202C
:10083000987200BFF5E700002DE9F04104460D462F
:1008400017469846069E094804600CB9BDE8F08139
:10085000074806490968086006480449096888602D
:10086000284601F0C7FE00BFF0E700002800002086
:10087000A90800089D08000810B50446064800684D
:1008800000B910BD0448006821464268024800686B
:10089000904700BFF5E700002800002001490860EC
:1008A00070470000B401224270B504460D46294647
:1008B000204601F01DFF70BD10B5044606480068D3
:1008C00000B910BD044800682146C26802480068AB
:1008D000904700BFF5E70000280000203EB5102338
:1008E000002201210D4800F05BFD0446032C14D0CA
:1008F000122C05D0072C10D1084800F0EFF80CE0BE
:10090000012000900549019002AB102208680021E7
:1009100000F089FDBDF8080002903EBDD403002020
:1009200038B512481023002201210090104800F031
:1009300048FD0446032C06D0122C04D0072C02D10B
:100940000B4800F0CBF80B48102300220121009047
:10095000094800F036FD0446032C06D0122C04D0C2
:10096000072C02D1044800F0B9F838BDD8000020A7
:10097000EC030020DA000020340400201CB5002025
:10098000012108234FF41652CDE900102D492E48BD
:1009900000F0B0F8012801D000201CBD40F2011287
:1009A0002A49294800F031FD2949274800F070F80C
:1009B00008B90020F1E72749234800F069F808B991
:1009C0000020EAE72449204800F062F808B9002036
:1009D000E3E7032047F2305300221B4900901F48F1
:1009E00000F066F8032047F23053002216490090C9
:1009F0001B4800F05DF8032047F2305300221249F3
:100A00000090184800F054F8032047F230530022B9
:100A10000D490090144800F04BF8032047F2305382
:100A2000002209490090114800F042F810A200216C
:100A3000124801F02EF812A20021144801F029F802
:100A40000120AAE739080008500200204C040020C9
:100A50003400002080000020CC000020D4030020BF
:100A6000EC030020040400201C04002034040020B7
:100A700072775F746573745F3000000021130008A3
:100A800072775F746573745F310000006113000852
:100A900070B504460D4604B10DB9002070BD142296
:100AA000294604F1100001F017F906463046F5E733
:100AB00070B5049C00B970BD42600160064D2D68A0
:100AC0000A26B5FBF6F585600361047500254575BA
:100AD000C1F87C5100BFEEE70000002000B970476C
:100AE0000021017341750168D1F87411816000BF64
:100AF000F5E700002DE9F04F89B004460F46904617
:100B00009946129D1CB9002009B0BDE8F08F002065
:100B10002066002164200153002606E0002104F134
:100B2000100040F82610701CC6B2142EF6DB4148A7
:100B3000E06000202060404860600020A060A4F8D1
:100B40006C01401EC4F870010020C4F874014046D6
:100B5000FFF79EFC0190FFF7CDFC02460B46CDE966
:100B6000020100203549FFF71BFC0022344BCDE980
:100B70000401FFF7A3FBCDE90601FFF7CEFC824697
:100B80004FF0000B139909B1012100E0002101EBA6
:100B90000900FFF774FC51460690FFF75DFB0790D4
:100BA000FFF794FC1FFA80FB65B95846FFF770FC0D
:100BB00051460690FFF7F8FA0790FFF787FC1FFAF7
:100BC00080FB27E0012D12D14FF07F515046FFF7F7
:100BD00043FB06905846FFF75BFC05900699FFF72C
:100BE000E3FA0790FFF772FC1FFA80FB12E0022D78
:100BF00010D169075046FFF72FFB06905846FFF7C4
:100C000047FC05900699FFF7CFFA0790FFF75EFCC7
:100C10001FFA80FBA4F878B1002084F8800137B176
:100C200013982B464A46414600902046B84701207B
:100C30006AE7000027170008E11600080000F03FEF
:100C40000088C3402DE9F04F06460D46944699466C
:100C5000DDE90978334613B90020BDE8F08F012F94
:100C600003D0022F01D00020F7E70021A2E003F11A
:100C7000100050F8210000B99AE003F1100050F87C
:100C80002100C07A404500D092E003F1100050F8F6
:100C900021000088A8427DDC03F1100050F82100FB
:100CA000028803F1100050F821000089104405EB80
:100CB0000C0290427BDB03F1100050F82100807A97
:100CC000B84273D103F1100050F821000088281AAF
:100CD00084B2002266E04FEAE27A02EB5A7A4FEAE7
:100CE000EA0AA2EBCA0A09EBE20B9BF800B04BFA46
:100CF0000AFB0BF0010ABAF1000F27D003F1100A2A
:100D00005AF821A0DAF804A004EB020B4FEA2B1BDF
:100D10003AF81BA010194FEAE07B00EB1B7B4FEA6F
:100D20002B1BA0EB0B1E4FF0010B0BFA0EFB4AEA3C
:100D30000B0A03F1100B5BF821B0DBF804B004EBF5
:100D4000020E4FEA2E1E2BF81EA029E003F1100A16
:100D50005AF821A0DAF804A004EB020B4FEA2B1B8F
:100D60003AF81BA010194FEAE07B00EB1B7B4FEA1F
:100D70002B1BA0EB0B1E4FF0010B0BFA0EFB2AEA0C
:100D80000B0A03F1100B5BF821B0DBF804B004EBA5
:100D9000020E01E00BE009E04FEA2E1E2BF81EA028
:100DA000501C82B2624596DB012056E700BF00BFAF
:100DB000481C81B21429FFF65AAF00204DE72DE9F7
:100DC000F04F06460D4694461C46DDE90A79DDF8EB
:100DD0002480324612B90020BDE8F08F032F03D0E3
:100DE000042F01D00020F7E7002158E002F11000A5
:100DF00050F8210000B950E002F1100050F8210035
:100E0000C07A484500D048E002F1100050F82100B7
:100E10000088A84240DC02F1100050F8210003884D
:100E200002F1100050F821000089184405EB0C0372
:100E3000984231DB02F1100050F82100807AB8426C
:100E400029D102F1100050F821000088281A1FFA59
:100E500080FA002300BF1AE0B8F1000F09D014F89F
:100E60001300000234F813B040EA1B2024F81300EA
:100E700001E034F8130002F1100B5BF821B0DBF84D
:100E800004B00AEB030E2BF81E00581C83B2634516
:100E9000E2DB0120A0E700BF00BF481C81B214299B
:100EA000A4DB002098E710B500F067FC10BD2DE929
:100EB000F04F8BB004460D4690461E46DDE9147B8C
:100EC00001200A901CB900200BB0BDE8F08F20680B
:100ED00008B90020F8E7A07DC0F3400028B1A07D4C
:100EE00000F0010008B10820EEE72068D0F87C018E
:100EF00030B12068D0F87C01A04201D00320E3E7A4
:100F00000120216881F88101607DC0BB216801F169
:100F1000600000F046FE012D09DB042D07DC009780
:100F2000334642462946206800F021FB1CE0052D8F
:100F300001D0062D0BD1012F16DBBBF8000000906D
:100F4000334642462946206800F017FD0CE00F2D7D
:100F500001D0102D08D1F8B2CDE9000B334642463E
:100F60002946206800F00FFC2068D0F87401A060CA
:100F7000012060752068C0F87C410620A4E7FFE7E7
:100F8000207B217D884275DA206890F88001002856
:100F900071D000200790216881F88001216801F15B
:100FA0006000012208A900F00FFE10B90A200A9083
:100FB000AFE19DF82000804502D009200A90A8E109
:100FC000216801F16000012207A900F0FDFD10B9C0
:100FD0000A200A909DE19DF81C0081287BD012DC3C
:100FE000052879D008DC01281ED002281DD003284E
:100FF0007AD0042872D178E0062870D00F286FD0FC
:101000001028F7D1EFE085286BD006DC822869D064
:10101000832868D08428EDD11BE1862879D08F28D9
:1010200078D09028E6D128E100BF216801F1600066
:10103000012208A900F0C8FD216801F1600000F05C
:101040009FFD9DF82010891C884202D00A200A903A
:101050005FE107F0FF0909964FF0000A32E02168CE
:1010600001F16000012206A900F0AEFD20B90A20BE
:101070000A904EE144E106E19DF81C00CDE900082C
:10108000B9F1080F01DA494600E008210A4606AB2B
:1010900020680999FFF7D6FD10B90B200A9038E1B6
:1010A000B9F1080F01DA494600E00821099808441F
:1010B00080B20990A9F1080000F0FF090AF10100CF
:1010C0001FFA80FA9DF820008245C8DB0220607577
:1010D00012200A901DE1ADE05AE005E0D2E058E0B0
:1010E00080E0BBE0ABE0AFE000BF216801F1600051
:1010F000012208A900F068FD216801F1600000F0FC
:101100003FFD9DF82010891C884204D00A200A90D7
:10111000FFE0A8E0ACE09DF82000401006904FF002
:10112000000A2DE0216801F16000012204A900F00D
:101130004BFD9DF8100000020590216801F1600050
:10114000012204A900F040FDBDF814009DF8101024
:10115000084305909DF81C00002106EB0A02CDE92A
:101160000108009191B205AB01222068FFF727FE2C
:1011700010B90B200A90CCE00AF101001FFA80FAA6
:1011800006988245CEDB0220607512200A90C0E0EE
:1011900000BF012206A9206800F075FA012802D0DC
:1011A0000A200A90B5E0BDF81800B04202D0102025
:1011B0000A90AEE0012206A9206800F064FA012836
:1011C00002D00A200A90A4E0BBF80000BDF8181075
:1011D000884202D010200A909BE002206075122005
:1011E0000A9096E000BF012206A9206800F04BFAA1
:1011F000012802D00A200A908BE0BDF81800B04206
:1012000002D010200A9084E0012206A9206800F094
:101210003AFA012802D00A200A907AE0BDF81800B4
:10122000B84202D010200A9073E0022060751220AC
:101230000A906EE0032060750C200A9069E003209C
:1012400060750D200A9064E0032060750E200A90FE
:101250005FE0032060750F200A905AE0032060755C
:1012600010200A9055E00320607511200A9050E08C
:101270000320607510200A904BE003206075112058
:101280000A9046E000BF607D02280CD12068D0F8AB
:101290007401A168401A6168884234D300206075E7
:1012A00001200A9035E0607D012802D0607D03288E
:1012B00029D12068D0F87401A168401A21698842B8
:1012C00021D32068D0F87401A06000206075207BD5
:1012D000401C207300202168C1F87C01207B217D07
:1012E00088420ADB07200A90A07DC0F3400018B1B5
:1012F000A07D40F00100A0750BE005200A9008E0F9
:1013000007200A9005E0607D012801D10620DBE579
:1013100000BF00202168C1F87C010A98D4E50000D4
:1013200038B505460B4806230022012100900A48E3
:1013300000F059F80446032C0AD0122C06D0072CD2
:1013400006D10648FFF7CAFB012038BD0220FCE7A2
:101350000020FAE7DE00002004040020EC03002057
:1013600038B505460B4806230022012100900A48A3
:1013700000F039F80446032C0AD0122C06D0072CB2
:1013800006D10648FFF7AAFB012038BD0220FCE782
:101390000020FAE7EA0000201C040020EC030020F3
:1013A0002DE9FC4107460C4615461E4600202B46FB
:1013B00022460121CDE900603846FFF778FDBDE8FF
:1013C000FC812DE9FC4107460C4615461E46DDF81A
:1013D00020802B4622460F213846CDE90068FFF7D2
:1013E00066FDBDE8FC812DE9FC4107460C4615462B
:1013F0001E46DDF820802B46224610213846CDE9D6
:101400000068FFF754FDBDE8FC8170B504460D4649
:10141000164604B970BD3246294604F16000FFF754
:10142000FDF900BFF6E72DE9F04F06460D46904660
:101430001C46DDE9097C334613B90020BDE8F08F76
:10144000012F03D0022F01D00020F7E7002289E00E
:1014500003F1100050F8220000B981E003F1100000
:1014600050F82200C07A604500D079E003F1100006
:1014700050F822000088A84271DC03F1100050F8F7
:101480002200018803F1100050F82200008908446E
:1014900005EB0801884262DB03F1100050F82200DE
:1014A000807AB8425AD103F1100050F82200008827
:1014B000281A1FFA80F9494649E003F1100A5AF840
:1014C00022A0DAF804A04FEA211B3AF81BA04FEA49
:1014D000E17B01EB1B7B4FEA2B1BA1EB0B1B4AFAB9
:1014E0000BFA0AF0010ABAF1000F17D008464FEACA
:1014F000E17A01EB5A7A4FEAEA0AA1EBCA0B4FF004
:10150000010A0AFA0BFA04EBE10B9BF800B04AEA75
:101510000B0A04EBE10B8BF800A016E008464FEA3B
:10152000E17A01EB5A7A4FEAEA0AA1EBCA0B4FF0D3
:10153000010A0AFA0BFA04EBE10B9BF800B02BEA64
:101540000A0A04EBE10B8BF800A0481C81B209EBFE
:1015500008008842B1DC012070E700E000BF00BF56
:10156000501C82B2142AFFF673AF002066E72DE903
:10157000F0470446894617461D46089E00BFD4F82A
:101580007001401C0028FAD1A06810B10120A168A8
:1015900088474FF6FF780020A4F86C01B4F86C116E
:1015A000481CA4F86C0104F16C00475439464046CD
:1015B00000F0FEFA8046B4F86C11481CA4F86C01E7
:1015C00004F16C0000F801904946404600F0F0FA42
:1015D0008046290AB4F86C21501CA4F86C0104F16F
:1015E0006C008154290A404600F0E2FA8046B4F8C3
:1015F0006C21501CA4F86C0104F16C008554E9B214
:10160000404600F0D5FA8046310AB4F86C21501CEF
:10161000A4F86C0104F16C008154310A404600F0DA
:10162000C7FA8046B4F86C21501CA4F86C0104F190
:101630006C008654F1B2404600F0BAFA8046B4F825
:101640006C21501CA4F86C0104F16C0000F80280BD
:101650004FEA2821B4F86C21501CA4F86C0104F165
:101660006C008154B4F86C112268904700BFD4F824
:101670007001401C0028FAD1A06810B10020A168B8
:101680008847BDE8F087F8B506460D4617460DB900
:101690000020F8BD00241FE00122694606F1600029
:1016A00000F092FA08B90420F3E79DF80000000268
:1016B00025F814000122694606F1600000F084FA62
:1016C00008B90420E5E735F814009DF80010084338
:1016D00025F81400601CC4B2BC42DDDB0120D8E751
:1016E00073B505462C4604B97CBD012201A904F15D
:1016F000600000F0ACFA00B9F6E7D4F87001401CC5
:1017000018B94FF6FF70A4F87A01B4F87A019DF881
:10171000041000F04DFAA4F87A01D4F87401C4F86A
:10172000700100BFE0E770B505460E462C4604B9CF
:1017300070BDC4F87461D4F87001401C00B9F7E7BB
:10174000D4F87011D4F87401401AB4F878118842B2
:1017500011D3B4F87A0140B104F1600000F021FA2D
:101760004FF0FF30C4F87001E2E7012084F88001F7
:10177000801EC4F8700100BFDAE710B5FFF7AEF8BD
:10178000FFF7CEF810BD2DE9F84F04460F469346FB
:1017900098460A9E00BFD4F87001401C0028FAD178
:1017A000A06810B10120A16888474FF6FF70009033
:1017B0000020A4F86C01B4F86C11481CA4F86C016A
:1017C00004F16C0000F801B05946009800F0F0F9FF
:1017D0000090B4F86C11481CA4F86C0104F16C0082
:1017E00047543946009800F0E3F900904FEA182179
:1017F000B4F86C21501CA4F86C0104F16C00815405
:101800004FEA1821009800F0D3F90090B4F86C2149
:10181000501CA4F86C0104F16C0000F8028008F080
:10182000FF01009800F0C4F900900021B4F86C2189
:10183000501CA4F86C0104F16C008154009800F075
:10184000B7F90090B4F86C21501CA4F86C0104F1B5
:101850006C008654F1B2009800F0AAF900900F2FA6
:101860000DD13046F11706EB5171C910A6EBC1013D
:1018700009B1012100E0002101EBE60904E0102F8D
:1018800002D170064FEA1069B4F86C11481CA4F834
:101890006C0104F16C0000F801904946009800F0DA
:1018A00087F900900F2F16D1002511E00B98415DAC
:1018B000B4F86C21501CA4F86C0104F16C00815444
:1018C0000B98415D009800F073F90090681C85B298
:1018D0004D45EBDB2CE0102F2AD1DDF82CA00025A4
:1018E00023E03AF815000112B4F86C21501CA4F85A
:1018F0006C0104F16C0081543AF815000112009853
:1019000000F056F900901AF81510B4F86C21501C2C
:10191000A4F86C0104F16C0081541AF815100098B9
:1019200000F046F90090681C85B2B542D9DB00BFD3
:101930000098C1B2B4F86C21501CA4F86C0104F1F9
:101940006C00815400980112B4F86C21501CA4F86A
:101950006C0104F16C008154B4F86C11226890475A
:1019600000BFD4F87001401C0028FAD1A06810B163
:101970000020A1688847BDE8F88F2DE9F0470446AC
:10198000894617461D46089E00BFD4F87001401CCA
:101990000028FAD1A06810B10120A16888474FF64D
:1019A000FF780020A4F86C01B4F86C11481CA4F86E
:1019B0006C0104F16C0047543946404600F0F8F8D9
:1019C0008046B4F86C11481CA4F86C0104F16C005A
:1019D00000F801904946404600F0EAF88046290A9E
:1019E000B4F86C21501CA4F86C0104F16C00815413
:1019F000290A404600F0DCF88046B4F86C21501CFF
:101A0000A4F86C0104F16C008554E9B2404600F082
:101A1000CFF88046310AB4F86C21501CA4F86C0150
:101A200004F16C008154310A404600F0C1F8804650
:101A3000B4F86C21501CA4F86C0104F16C008654BD
:101A4000F1B2404600F0B4F88046B4F86C21501C66
:101A5000A4F86C0104F16C0000F802804FEA282120
:101A6000B4F86C21501CA4F86C0104F16C00815492
:101A7000B4F86C112268904700BFD4F87001401C84
:101A80000028FAD1A06810B10020A1688847BDE8FD
:101A9000F0872DE9F04105460F46164600F050F854
:101AA000044614B90020BDE8F0812560A660676097
:101AB0002046F8E770B500243DE0204800EB041014
:101AC000007B00F0010098B31C4800EB0410007B81
:101AD000C00968BB194800EB0410006800B928E091
:101AE000164A02EB04125068144A02EB0412116801
:101AF00088470546012D09D1104800EB0410007BF2
:101B000040F080000D4901EB0411087385B10B48CA
:101B100000EB0410007BC0F3400048B1074800EB25
:101B20000410007B40F08000044901EB04110873AD
:101B300000BF601C84B2142CBFDB70BD10010020FC
:101B4000002116E00D4800EB0110007B00F00100C1
:101B500068B90A4800EB0110007B40F00100074A19
:101B600002EB01121073054800EB01107047481C8E
:101B700081B21429E6DB0020F8E700001001002004
:101B8000014609B900207047B1F90800B1F90620F3
:101B9000801A8A88104490FBF2F302FB130080B293
:101BA000F1E700B9704700210181C18000BFF9E76A
:101BB000024682EA0100C0B2024B33F8100080EA0C
:101BC000222070470827000870B504460D461646C7
:101BD000B4F90600B4F90810884201D1002070BDA4
:101BE000B4F90600401CA18890FBF1F201FB120041
:101BF00000B2E080052E27D2DFE806F003090F16B9
:101C00001D00B4F906102068405C28701CE0B4F98F
:101C100006102068405C287016E0B4F906102068B1
:101C200030F8110028800FE0B4F90610206850F851
:101C30002100286008E0B4F90620216851F822004C
:101C4000FEF72BFC286000BF00BF0120C7E730B5BE
:101C50000346B3F90800401C9C8890FBF4F504FB94
:101C60001500B3F90640A04201D1002030BDB3F900
:101C70000800401C9C8890FBF4F504FB150000B2A2
:101C80001881052A25D2DFE802F003090F161D008E
:101C90000878B3F908501C6860551AE00878B3F961
:101CA00008501C68605514E00888B3F908501C6897
:101CB00024F815000DE00868B3F908501C6844F8D2
:101CC000250006E00868B3F908501C6844F82500B0
:101CD00000BF00BF0120C9E730B503460C461546DA
:101CE00000211A460BB9002030BD002108E052F84F
:101CF000210018B942F821400120F5E7481C81B2C3
:101D0000A942F4DB0020EFE700BFFEE770470000C8
:101D100070B5002100230F22C47804B3154C246849
:101D200004F4E064C4F5E064210AC1F10403CA408C
:101D3000447804FA03F184781440214309010E4CDD
:101D40000678A155047804F01F050124AC400578FD
:101D50006D11AD0005F1E025C5F8004109E00478FA
:101D600004F01F050124AC40044D0678761145F8B7
:101D7000264070BD0CED00E000E400E080E100E0F2
:101D800002490143024A1160704700000000FA0551
:101D90000CED00E070B51C480068401C1A49086052
:101DA00000242DE0194850F8240040B3174850F89B
:101DB0002400007E012822D1144850F82400006934
:101DC00070B1FEF79FF90546104850F824000069ED
:101DD000401E0E4951F8241008612846FEF796F976
:101DE000FEF790F90546094850F82400C068401CE9
:101DF000064951F82410C8602846FEF787F9641C8C
:101E0000102CCFD370BD0000F8000020500500203A
:101E100010B50348007808B1FEF78EF910BD000038
:101E20000901002010B50448007818B1FFF7B2FF8F
:101E3000FFF7EEFF10BD00000901002010B50021E2
:101E400000223E480068807E012811D13B4800688E
:101E500090F8250001280BD13848006880683C388C
:101E6000374B1B6818600020344B1B6883F8250033
:101E70003448006870B30020002128E0324B53F84A
:101E80002130304C2468A34201D101201EE00128FA
:101E90001BD12D4B53F82130BBB12B4B53F82130C4
:101EA0001B7E012B11D1284B53F821301B6963B9DC
:101EB000244B1B685B7E244C54F82140647EA34273
:101EC00003D1214B53F8212030E000BF491C1029D9
:101ED000D4D300BF00201B4B1860002123E01A4818
:101EE00050F82100E8B1184850F82100007E012880
:101EF00017D1154850F82100006990B91AB1107E29
:101F000008B1106918B1104850F821200AE0507E3D
:101F10000D4B53F821305B7E984202DD0A4850F8A1
:101F2000212000BF491C1029D9D300BF04480260FA
:101F30000248026003480260106810BD00010020E2
:101F4000FC0000200C0100205005002029B1064AA9
:101F5000D2690243044BDA6104E0034AD269824346
:101F6000014BDA61704700000010024029B1064AB7
:101F700092690243044B9A6104E0034A92698243E6
:101F8000014B9A61704700000010024030B50021FB
:101F90000022002400232D4D6D6805F00C0121B1B5
:101FA000042905D0082923D105E0294D056022E048
:101FB000274D05601FE0254D6D6805F47012234D17
:101FC0006D6805F48034022505EB92421CB9214D61
:101FD000554305600BE01D4D6D6805F400351DB1DE
:101FE0001C4D5543056002E0194D5543056002E064
:101FF000174D056000BF00BF144D6D6805F0F0017E
:102000000909154D6B5C0568DD4045600F4D6D6835
:1020100005F4E061090A104D6B5C4568DD408560A0
:102020000A4D6D6805F46051C90A0B4D6B5C45683B
:10203000DD40C560054D6D6805F44041890B074DD5
:102040006B5CC568B5FBF3F5056130BD001002405F
:1020500000127A0000093D0011000020210000203C
:1020600008B501211120FFF781FF0020FEF73EFB9C
:102070000020FEF735FB4FF40050ADF800001020B3
:102080008DF8030002208DF8020069460448FEF72F
:1020900036FB4FF400510248FEF7BCFB08BD0000C0
:1020A00000100140704710B500F002F810BD0000AC
:1020B0000CB50020019000903348006840F4803057
:1020C0003149086000BF3048006800F400300090DB
:1020D0000198401C0190009818B90198B0F5A06FC4
:1020E000F1D12948006800F4003010B101200090BF
:1020F00001E0002000900098012843D123480068A7
:1021000040F01000214908600846006820F00300F4
:1021100008600846006840F0020008601A484068FD
:10212000194948600846406848600846406840F4DD
:10213000806048600846406820F47C10486008468B
:10214000406840F4E81048600846006840F080703D
:10215000086000BF0C48006800F000700028F9D04B
:102160000948406820F00300074948600846406875
:1021700040F00200486000BF0348406800F00C00D7
:102180000828F9D10CBD00000010024000200240D8
:1021900010B5FFF747FE10BD10B51348006840F0BA
:1021A00001001149086008464068104908400E497E
:1021B0004860084600680E4908400B490860084618
:1021C000006820F4802008600846406820F4FE0083
:1021D00048604FF41F008860FFF765FF4FF0006014
:1021E0000449086010BD0000001002400000FFF824
:1021F000FFFFF6FE08ED00E010B50121084800F0F1
:1022000052F860B10121064800F03EF80548006828
:10221000401C0449086008460068FEF74DFB10BDED
:1022200000040040000000207FB505460C46012157
:102230000220FFF78BFEADF80850ADF804400020F7
:10224000ADF80A00ADF8060001A90E4800F046F806
:10225000012211460B4800F037F81D208DF80000D0
:1022600001208DF8010003208DF8020001208DF877
:1022700003006846FFF74CFD0121024800F007F813
:102280007FBD000000040040CA430282704721B1B4
:10229000028842F00102028004E002884FF6FE73D9
:1022A0001A400280704730B5024600200023002407
:1022B000158A05EA0103958905EA010413B10CB1F9
:1022C000012000E0002030BD1AB183890B438381D7
:1022D00002E083898B4383817047000000220288DB
:1022E0001D4B98420ED01D4B98420BD0B0F1804F41
:1022F00008D01B4B984205D01A4B984202D01A4B7B
:10230000984204D14FF68F731A404B881A43174BEB
:10231000984207D0164B984204D04FF6FF431A401C
:10232000CB881A4302808B8883850B8803850A4BF0
:1023300098420BD0094B984208D00E4B984205D0DA
:102340000D4B984202D00D4B984201D10B7A038677
:102350000123838270470000002C014000340140BB
:102360000004004000080040000C00400010004045
:10237000001400400040014000440140004801407A
:1023800010B540F22551164800F05FF830B11448FE
:1023900000F016F9C4B22046FEF76EFA40F227713B
:1023A0000F4800F052F8D0B10E4802880088401C57
:1023B0000C4B18800C480068815C094800F005F956
:1023C0000848008809490988884208D1012008493D
:1023D0000870002240F22771014800F060F810BD3B
:1023E000003801400E000020080000200C000020F2
:1023F0001000002010B540F22551064800F025F8E5
:1024000038B1044800F0DCF8C4B22046FEF734FAD4
:1024100000BF10BD0048004021B1828942F4005243
:10242000828104E082894DF6FF731A4082817047F1
:1024300002460020B1F5007F00D100BF13880B4099
:102440000BB1012000E00020704770B50246002467
:1024500000230025002040F66A16B14200D100BFDB
:10246000C1F3421501F01F03012606FA03F3012D03
:1024700002D19689334006E0022D02D1168A3340FC
:1024800001E0968A33400C12012606FA04F41688FD
:10249000344013B10CB1012000E0002070BDF0B554
:1024A0000346002400260025002040F66A17B942A2
:1024B00000D100BF1846C1F3421401F01F060127E6
:1024C00007FA06F5012C01D10C3004E0022C01D1F1
:1024D000103000E014301AB107682F43076002E0A3
:1024E0000768AF430760F0BD2DE9F04786B00546A9
:1024F0000E460024A24600BFA1460027B08900B1C5
:1025000000BF2F462C8A4CF6FF700440F08804432D
:102510002C82AC894EF6F3100440B0883189084310
:10252000718908430443AC81AC8A4FF6FF400440F4
:10253000B0890443AC8201A8FFF728FD1F488742F9
:1025400002D1DDF810A001E0DDF80CA0A88900F4AC
:10255000004040B10AEBCA0000EB0A1031684900A4
:10256000B0FBF1F807E00AEBCA0000EB0A10316893
:102570008900B0FBF1F86420B8FBF0F004012009F9
:10258000642101FB1089A88900F4004040B1322089
:1025900000EBC900B0FBF1F000F00700044308E0D5
:1025A000322000EB09106421B0FBF1F000F00F00C5
:1025B00004432C8106B0BDE8F087000000380140DC
:1025C00001468888C0F308007047C1F30802828082
:1025D000704700BFFEE702E008C8121F08C1002ACA
:1025E000FAD170477047002001E001C1121F002A94
:1025F000FBD1704710B586B0044601210920FFF7D2
:10260000B5FC01218804FFF7A1FC4FF40060ADF890
:10261000040004208DF8070001A91F48FEF76FF899
:102620004FF48060ADF8040003208DF806001820F8
:102630008DF8070001A91848FEF761F80294002000
:10264000ADF80C00ADF80E00ADF81000ADF81400B8
:102650000C20ADF8120002A91048FFF745FF012237
:1026600040F225510D48FFF71AFF01210B48FFF7F3
:10267000D3FE27208DF8000001208DF803000020F4
:102680008DF801008DF802006846FFF741FBFFF767
:10269000E7FC06B010BD0000000C014000480040FF
:1026A0004FF4A060FFF76CFBFEF768F96321472049
:1026B000FFF7BAFD03E0FEF7F6FBFFF7FBF9FAE7D9
:1026C00010B5044600BF40210848FFF7B1FE0028BE
:1026D000F9D021460548FFF778FF00BF40210348A5
:1026E000FFF7A6FE0028F9D010BD0000004800400A
:1026F00070B505460E46002403E0285DFFF7E0FFB5
:10270000641CB442F9DB70BD0000C1C081C140014E
:1027100001C3C003800241C201C6C006800741C791
:102720000005C1C581C4400401CCC00C800D41CD61
:10273000000FC1CF81CE400E000AC1CA81CB400B31
:1027400001C9C009800841C801D8C018801941D901
:10275000001BC1DB81DA401A001EC1DE81DF401F91
:1027600001DDC01D801C41DC0014C1D481D54015A1
:1027700001D7C017801641D601D2C012801341D3B1
:102780000011C1D181D0401001F0C030803141F141
:102790000033C1F381F240320036C1F681F7403791
:1027A00001F5C035803441F4003CC1FC81FD403D61
:1027B00001FFC03F803E41FE01FAC03A803B41FB31
:1027C0000039C1F981F840380028C1E881E9402981
:1027D00001EBC02B802A41EA01EEC02E802F41EF91
:1027E000002DC1ED81EC402C01E4C024802541E5A1
:1027F0000027C1E781E640260022C1E281E34023B1
:1028000001E1C021802041E001A0C060806141A1C0
:102810000063C1A381A240620066C1A681A7406790
:1028200001A5C065806441A4006CC1AC81AD406D60
:1028300001AFC06F806E41AE01AAC06A806B41AB30
:102840000069C1A981A840680078C1B881B9407900
:1028500001BBC07B807A41BA01BEC07E807F41BF90
:10286000007DC1BD81BC407C01B4C074807541B5A0
:102870000077C1B781B640760072C1B281B34073B0
:1028800001B1C071807041B00050C1908191405140
:102890000193C053805241920196C0568057419790
:1028A0000055C19581944054019CC05C805D419D60
:1028B000005FC19F819E405E005AC19A819B405B30
:1028C0000199C059805841980188C0488049418980
:1028D000004BC18B818A404A004EC18E818F404F90
:1028E000018DC04D804C418C0044C18481854045A0
:1028F0000187C047804641860182C04280434183B0
:102900000041C1818180404028290008000000204A
:1029100010010000D6250008382A00081001002008
:10292000800C0000E6250008000000000000000008
:102930000000000000000000000000000001020391
:102940000401020304060708090204060800000047
:102950000000000000000000000000000000000077
:102960002C000020400001010100020003000400CF
:10297000050006000700080009000A000B000C0013
:102980000000000000000000000000000000000047
:102990000000000000000000000000000000000037
:1029A00000000000000000000000000040000020C7
:1029B00020000301010002000300040005000600DE
:1029C0000700080009000A000B000C0000000000CE
:1029D00000000000000000000000000000000000F7
:1029E00000000000000000000000000000000000E7
:1029F00000000000000000008C0000202000030206
:102A0000AAAA5555D20401000200030004000500E3
:102A1000060006000500040003000200010000009B
:102A200000000000000000000000000000000000A6
:082A300000010000000000009D
:04000005080000ED02
:00000001FF
